{
  "_format": "hh-sol-artifact-1",
  "contractName": "EasyBet",
  "sourceName": "contracts/EasyBet.sol",
  "abi": [
    {
      "inputs": [],
      "stateMutability": "nonpayable",
      "type": "constructor"
    },
    {
      "anonymous": false,
      "inputs": [
        {
          "indexed": true,
          "internalType": "uint256",
          "name": "activityId",
          "type": "uint256"
        },
        {
          "indexed": false,
          "internalType": "string[]",
          "name": "choices",
          "type": "string[]"
        },
        {
          "indexed": false,
          "internalType": "uint256",
          "name": "prizeAmount",
          "type": "uint256"
        },
        {
          "indexed": false,
          "internalType": "uint256",
          "name": "deadline",
          "type": "uint256"
        }
      ],
      "name": "ActivityCreated",
      "type": "event"
    },
    {
      "anonymous": false,
      "inputs": [
        {
          "indexed": false,
          "internalType": "uint256",
          "name": "tokenId",
          "type": "uint256"
        },
        {
          "indexed": false,
          "internalType": "uint256",
          "name": "price",
          "type": "uint256"
        },
        {
          "indexed": false,
          "internalType": "address",
          "name": "owner",
          "type": "address"
        }
      ],
      "name": "BetPlaced",
      "type": "event"
    },
    {
      "inputs": [
        {
          "internalType": "uint256",
          "name": "",
          "type": "uint256"
        }
      ],
      "name": "activities",
      "outputs": [
        {
          "internalType": "address",
          "name": "owner",
          "type": "address"
        },
        {
          "internalType": "uint256",
          "name": "listedTimestamp",
          "type": "uint256"
        },
        {
          "internalType": "uint256",
          "name": "prizeAmount",
          "type": "uint256"
        },
        {
          "internalType": "uint256",
          "name": "deadline",
          "type": "uint256"
        },
        {
          "internalType": "bool",
          "name": "isOpen",
          "type": "bool"
        }
      ],
      "stateMutability": "view",
      "type": "function"
    },
    {
      "inputs": [],
      "name": "activityCounter",
      "outputs": [
        {
          "internalType": "uint256",
          "name": "",
          "type": "uint256"
        }
      ],
      "stateMutability": "view",
      "type": "function"
    },
    {
      "inputs": [
        {
          "internalType": "string[]",
          "name": "choices",
          "type": "string[]"
        },
        {
          "internalType": "uint256",
          "name": "prizeAmount",
          "type": "uint256"
        },
        {
          "internalType": "uint256",
          "name": "deadline",
          "type": "uint256"
        }
      ],
      "name": "createActivity",
      "outputs": [
        {
          "internalType": "uint256",
          "name": "",
          "type": "uint256"
        }
      ],
      "stateMutability": "nonpayable",
      "type": "function"
    },
    {
      "inputs": [],
      "name": "helloworld",
      "outputs": [
        {
          "internalType": "string",
          "name": "",
          "type": "string"
        }
      ],
      "stateMutability": "pure",
      "type": "function"
    },
    {
      "inputs": [],
      "name": "owner",
      "outputs": [
        {
          "internalType": "address",
          "name": "",
          "type": "address"
        }
      ],
      "stateMutability": "view",
      "type": "function"
    }
  ],
  "bytecode": "0x608060405234801561001057600080fd5b50336000806101000a81548173ffffffffffffffffffffffffffffffffffffffff021916908373ffffffffffffffffffffffffffffffffffffffff160217905550600060028190555061109d806100686000396000f3fe608060405234801561001057600080fd5b50600436106100575760003560e01c80630d1657e81461005c5780632f2f4859146100905780637d70de01146100ae5780638da5cb5b146100cc578063b39af364146100ea575b600080fd5b6100766004803603810190610071919061056f565b61011a565b604051610087959493929190610607565b60405180910390f35b61009861017d565b6040516100a591906106ea565b60405180910390f35b6100b66101ba565b6040516100c3919061070c565b60405180910390f35b6100d46101c0565b6040516100e19190610727565b60405180910390f35b61010460048036038101906100ff919061095d565b6101e4565b604051610111919061070c565b60405180910390f35b60016020528060005260406000206000915090508060000160009054906101000a900473ffffffffffffffffffffffffffffffffffffffff16908060010154908060030154908060040154908060050160009054906101000a900460ff16905085565b60606040518060400160405280600b81526020017f68656c6c6f20776f726c64000000000000000000000000000000000000000000815250905090565b60025481565b60008054906101000a900473ffffffffffffffffffffffffffffffffffffffff1681565b60008060009054906101000a900473ffffffffffffffffffffffffffffffffffffffff1673ffffffffffffffffffffffffffffffffffffffff163373ffffffffffffffffffffffffffffffffffffffff1614610275576040517f08c379a000000000000000000000000000000000000000000000000000000000815260040161026c90610a3e565b60405180910390fd5b6002845110156102ba576040517f08c379a00000000000000000000000000000000000000000000000000000000081526004016102b190610aaa565b60405180910390fd5b4282116102fc576040517f08c379a00000000000000000000000000000000000000000000000000000000081526004016102f390610b16565b60405180910390fd5b6000831161033f576040517f08c379a000000000000000000000000000000000000000000000000000000000815260040161033690610ba8565b60405180910390fd5b600060026000815461035090610bf7565b91905081905590506000600160008381526020019081526020016000209050338160000160006101000a81548173ffffffffffffffffffffffffffffffffffffffff021916908373ffffffffffffffffffffffffffffffffffffffff160217905550428160010181905550858160020190805190602001906103d392919061044b565b5084816003018190555083816004018190555060018160050160006101000a81548160ff021916908315150217905550817fc93ef60213ff34b6f125d92d1c28aec0f0ef8a649ca9c4939784197732b45d5987878760405161043793929190610d4b565b60405180910390a281925050509392505050565b828054828255906000526020600020908101928215610493579160200282015b828111156104925782518290816104829190610f95565b509160200191906001019061046b565b5b5090506104a091906104a4565b5090565b5b808211156104c457600081816104bb91906104c8565b506001016104a5565b5090565b5080546104d490610db8565b6000825580601f106104e65750610505565b601f0160209004906000526020600020908101906105049190610508565b5b50565b5b80821115610521576000816000905550600101610509565b5090565b6000604051905090565b600080fd5b600080fd5b6000819050919050565b61054c81610539565b811461055757600080fd5b50565b60008135905061056981610543565b92915050565b6000602082840312156105855761058461052f565b5b60006105938482850161055a565b91505092915050565b600073ffffffffffffffffffffffffffffffffffffffff82169050919050565b60006105c78261059c565b9050919050565b6105d7816105bc565b82525050565b6105e681610539565b82525050565b60008115159050919050565b610601816105ec565b82525050565b600060a08201905061061c60008301886105ce565b61062960208301876105dd565b61063660408301866105dd565b61064360608301856105dd565b61065060808301846105f8565b9695505050505050565b600081519050919050565b600082825260208201905092915050565b60005b83811015610694578082015181840152602081019050610679565b60008484015250505050565b6000601f19601f8301169050919050565b60006106bc8261065a565b6106c68185610665565b93506106d6818560208601610676565b6106df816106a0565b840191505092915050565b6000602082019050818103600083015261070481846106b1565b905092915050565b600060208201905061072160008301846105dd565b92915050565b600060208201905061073c60008301846105ce565b92915050565b600080fd5b7f4e487b7100000000000000000000000000000000000000000000000000000000600052604160045260246000fd5b61077f826106a0565b810181811067ffffffffffffffff8211171561079e5761079d610747565b5b80604052505050565b60006107b1610525565b90506107bd8282610776565b919050565b600067ffffffffffffffff8211156107dd576107dc610747565b5b602082029050602081019050919050565b600080fd5b600080fd5b600067ffffffffffffffff82111561081357610812610747565b5b61081c826106a0565b9050602081019050919050565b82818337600083830152505050565b600061084b610846846107f8565b6107a7565b905082815260208101848484011115610867576108666107f3565b5b610872848285610829565b509392505050565b600082601f83011261088f5761088e610742565b5b813561089f848260208601610838565b91505092915050565b60006108bb6108b6846107c2565b6107a7565b905080838252602082019050602084028301858111156108de576108dd6107ee565b5b835b8181101561092557803567ffffffffffffffff81111561090357610902610742565b5b808601610910898261087a565b855260208501945050506020810190506108e0565b5050509392505050565b600082601f83011261094457610943610742565b5b81356109548482602086016108a8565b91505092915050565b6000806000606084860312156109765761097561052f565b5b600084013567ffffffffffffffff81111561099457610993610534565b5b6109a08682870161092f565b93505060206109b18682870161055a565b92505060406109c28682870161055a565b9150509250925092565b7f4f6e6c79206f776e65722063616e2063616c6c20746869732066756e6374696f60008201527f6e00000000000000000000000000000000000000000000000000000000000000602082015250565b6000610a28602183610665565b9150610a33826109cc565b604082019050919050565b60006020820190508181036000830152610a5781610a1b565b9050919050565b7f4174206c6561737420322063686f696365732072657175697265640000000000600082015250565b6000610a94601b83610665565b9150610a9f82610a5e565b602082019050919050565b60006020820190508181036000830152610ac381610a87565b9050919050565b7f446561646c696e65206d75737420626520696e20746865206675747572650000600082015250565b6000610b00601e83610665565b9150610b0b82610aca565b602082019050919050565b60006020820190508181036000830152610b2f81610af3565b9050919050565b7f5072697a6520616d6f756e74206d75737420626520677265617465722074686160008201527f6e20300000000000000000000000000000000000000000000000000000000000602082015250565b6000610b92602383610665565b9150610b9d82610b36565b604082019050919050565b60006020820190508181036000830152610bc181610b85565b9050919050565b7f4e487b7100000000000000000000000000000000000000000000000000000000600052601160045260246000fd5b6000610c0282610539565b91507fffffffffffffffffffffffffffffffffffffffffffffffffffffffffffffffff8203610c3457610c33610bc8565b5b600182019050919050565b600081519050919050565b600082825260208201905092915050565b6000819050602082019050919050565b600082825260208201905092915050565b6000610c878261065a565b610c918185610c6b565b9350610ca1818560208601610676565b610caa816106a0565b840191505092915050565b6000610cc18383610c7c565b905092915050565b6000602082019050919050565b6000610ce182610c3f565b610ceb8185610c4a565b935083602082028501610cfd85610c5b565b8060005b85811015610d395784840389528151610d1a8582610cb5565b9450610d2583610cc9565b925060208a01995050600181019050610d01565b50829750879550505050505092915050565b60006060820190508181036000830152610d658186610cd6565b9050610d7460208301856105dd565b610d8160408301846105dd565b949350505050565b7f4e487b7100000000000000000000000000000000000000000000000000000000600052602260045260246000fd5b60006002820490506001821680610dd057607f821691505b602082108103610de357610de2610d89565b5b50919050565b60008190508160005260206000209050919050565b60006020601f8301049050919050565b600082821b905092915050565b600060088302610e4b7fffffffffffffffffffffffffffffffffffffffffffffffffffffffffffffffff82610e0e565b610e558683610e0e565b95508019841693508086168417925050509392505050565b6000819050919050565b6000610e92610e8d610e8884610539565b610e6d565b610539565b9050919050565b6000819050919050565b610eac83610e77565b610ec0610eb882610e99565b848454610e1b565b825550505050565b600090565b610ed5610ec8565b610ee0818484610ea3565b505050565b5b81811015610f0457610ef9600082610ecd565b600181019050610ee6565b5050565b601f821115610f4957610f1a81610de9565b610f2384610dfe565b81016020851015610f32578190505b610f46610f3e85610dfe565b830182610ee5565b50505b505050565b600082821c905092915050565b6000610f6c60001984600802610f4e565b1980831691505092915050565b6000610f858383610f5b565b9150826002028217905092915050565b610f9e8261065a565b67ffffffffffffffff811115610fb757610fb6610747565b5b610fc18254610db8565b610fcc828285610f08565b600060209050601f831160018114610fff5760008415610fed578287015190505b610ff78582610f79565b86555061105f565b601f19841661100d86610de9565b60005b8281101561103557848901518255600182019150602085019450602081019050611010565b86831015611052578489015161104e601f891682610f5b565b8355505b6001600288020188555050505b50505050505056fea26469706673582212209344cff69f24e840e657ee1ccf97a8e0235e04caac9fa258460699c1664ccc8564736f6c63430008140033",
  "linkReferences": {},
  "deployedLinkReferences": {}
}