{
  "_format": "hh-sol-artifact-1",
  "contractName": "EasyBet",
  "sourceName": "contracts/EasyBet.sol",
  "abi": [
    {
      "inputs": [
        {
          "internalType": "address",
          "name": "_lotteryNFTAddress",
          "type": "address"
        },
        {
          "internalType": "address",
          "name": "_zjuTokenAddress",
          "type": "address"
        }
      ],
      "stateMutability": "nonpayable",
      "type": "constructor"
    },
    {
      "anonymous": false,
      "inputs": [
        {
          "indexed": true,
          "internalType": "uint256",
          "name": "activityId",
          "type": "uint256"
        },
        {
          "indexed": false,
          "internalType": "uint256",
          "name": "winningChoice",
          "type": "uint256"
        }
      ],
      "name": "ActivityClosed",
      "type": "event"
    },
    {
      "anonymous": false,
      "inputs": [
        {
          "indexed": true,
          "internalType": "uint256",
          "name": "activityId",
          "type": "uint256"
        },
        {
          "indexed": false,
          "internalType": "string[]",
          "name": "choices",
          "type": "string[]"
        },
        {
          "indexed": false,
          "internalType": "uint256",
          "name": "prizeAmount",
          "type": "uint256"
        },
        {
          "indexed": false,
          "internalType": "uint256",
          "name": "deadline",
          "type": "uint256"
        }
      ],
      "name": "ActivityCreated",
      "type": "event"
    },
    {
      "anonymous": false,
      "inputs": [
        {
          "indexed": false,
          "internalType": "uint256",
          "name": "tokenId",
          "type": "uint256"
        },
        {
          "indexed": false,
          "internalType": "uint256",
          "name": "price",
          "type": "uint256"
        },
        {
          "indexed": false,
          "internalType": "address",
          "name": "owner",
          "type": "address"
        },
        {
          "indexed": false,
          "internalType": "uint256",
          "name": "activityId",
          "type": "uint256"
        },
        {
          "indexed": false,
          "internalType": "uint256",
          "name": "choiceIndex",
          "type": "uint256"
        }
      ],
      "name": "BetPlaced",
      "type": "event"
    },
    {
      "anonymous": false,
      "inputs": [
        {
          "indexed": true,
          "internalType": "uint256",
          "name": "activityId",
          "type": "uint256"
        },
        {
          "indexed": false,
          "internalType": "uint256",
          "name": "tokenId",
          "type": "uint256"
        },
        {
          "indexed": false,
          "internalType": "address",
          "name": "winner",
          "type": "address"
        },
        {
          "indexed": false,
          "internalType": "uint256",
          "name": "amount",
          "type": "uint256"
        }
      ],
      "name": "PrizeClaimed",
      "type": "event"
    },
    {
      "anonymous": false,
      "inputs": [
        {
          "indexed": true,
          "internalType": "uint256",
          "name": "activityId",
          "type": "uint256"
        },
        {
          "indexed": true,
          "internalType": "uint256",
          "name": "tokenId",
          "type": "uint256"
        },
        {
          "indexed": true,
          "internalType": "address",
          "name": "owner",
          "type": "address"
        },
        {
          "indexed": false,
          "internalType": "uint256",
          "name": "amount",
          "type": "uint256"
        }
      ],
      "name": "TicketRefunded",
      "type": "event"
    },
    {
      "inputs": [
        {
          "internalType": "uint256",
          "name": "",
          "type": "uint256"
        }
      ],
      "name": "activities",
      "outputs": [
        {
          "internalType": "address",
          "name": "owner",
          "type": "address"
        },
        {
          "internalType": "uint256",
          "name": "listedTimestamp",
          "type": "uint256"
        },
        {
          "internalType": "string",
          "name": "description",
          "type": "string"
        },
        {
          "internalType": "uint256",
          "name": "prizeAmount",
          "type": "uint256"
        },
        {
          "internalType": "uint256",
          "name": "deadline",
          "type": "uint256"
        },
        {
          "internalType": "bool",
          "name": "isOpen",
          "type": "bool"
        },
        {
          "internalType": "bool",
          "name": "cancelled",
          "type": "bool"
        },
        {
          "internalType": "uint256",
          "name": "winningChoice",
          "type": "uint256"
        },
        {
          "internalType": "uint256",
          "name": "totalPool",
          "type": "uint256"
        },
        {
          "internalType": "uint256",
          "name": "remainingAmount",
          "type": "uint256"
        }
      ],
      "stateMutability": "view",
      "type": "function"
    },
    {
      "inputs": [
        {
          "internalType": "uint256",
          "name": "",
          "type": "uint256"
        },
        {
          "internalType": "uint256",
          "name": "",
          "type": "uint256"
        },
        {
          "internalType": "uint256",
          "name": "",
          "type": "uint256"
        }
      ],
      "name": "activityChoiceTickets",
      "outputs": [
        {
          "internalType": "uint256",
          "name": "",
          "type": "uint256"
        }
      ],
      "stateMutability": "view",
      "type": "function"
    },
    {
      "inputs": [],
      "name": "activityCounter",
      "outputs": [
        {
          "internalType": "uint256",
          "name": "",
          "type": "uint256"
        }
      ],
      "stateMutability": "view",
      "type": "function"
    },
    {
      "inputs": [
        {
          "internalType": "uint256",
          "name": "activityId",
          "type": "uint256"
        },
        {
          "internalType": "uint256",
          "name": "choiceIndex",
          "type": "uint256"
        },
        {
          "internalType": "uint256",
          "name": "price",
          "type": "uint256"
        }
      ],
      "name": "buyTicket",
      "outputs": [
        {
          "internalType": "uint256",
          "name": "",
          "type": "uint256"
        }
      ],
      "stateMutability": "nonpayable",
      "type": "function"
    },
    {
      "inputs": [
        {
          "internalType": "uint256",
          "name": "activityId",
          "type": "uint256"
        }
      ],
      "name": "cancelActivity",
      "outputs": [],
      "stateMutability": "nonpayable",
      "type": "function"
    },
    {
      "inputs": [
        {
          "internalType": "uint256",
          "name": "",
          "type": "uint256"
        },
        {
          "internalType": "uint256",
          "name": "",
          "type": "uint256"
        }
      ],
      "name": "choiceTotalBets",
      "outputs": [
        {
          "internalType": "uint256",
          "name": "",
          "type": "uint256"
        }
      ],
      "stateMutability": "view",
      "type": "function"
    },
    {
      "inputs": [
        {
          "internalType": "uint256",
          "name": "activityId",
          "type": "uint256"
        },
        {
          "internalType": "uint256",
          "name": "winningChoice",
          "type": "uint256"
        }
      ],
      "name": "closeActivity",
      "outputs": [],
      "stateMutability": "nonpayable",
      "type": "function"
    },
    {
      "inputs": [
        {
          "internalType": "string[]",
          "name": "choices",
          "type": "string[]"
        },
        {
          "internalType": "string",
          "name": "description",
          "type": "string"
        },
        {
          "internalType": "uint256",
          "name": "prizeAmount",
          "type": "uint256"
        },
        {
          "internalType": "uint256",
          "name": "deadline",
          "type": "uint256"
        }
      ],
      "name": "createActivity",
      "outputs": [
        {
          "internalType": "uint256",
          "name": "",
          "type": "uint256"
        }
      ],
      "stateMutability": "nonpayable",
      "type": "function"
    },
    {
      "inputs": [
        {
          "internalType": "uint256",
          "name": "activityId",
          "type": "uint256"
        }
      ],
      "name": "getActivity",
      "outputs": [
        {
          "components": [
            {
              "internalType": "address",
              "name": "owner",
              "type": "address"
            },
            {
              "internalType": "uint256",
              "name": "listedTimestamp",
              "type": "uint256"
            },
            {
              "internalType": "string[]",
              "name": "choices",
              "type": "string[]"
            },
            {
              "internalType": "string",
              "name": "description",
              "type": "string"
            },
            {
              "internalType": "uint256",
              "name": "prizeAmount",
              "type": "uint256"
            },
            {
              "internalType": "uint256",
              "name": "deadline",
              "type": "uint256"
            },
            {
              "internalType": "bool",
              "name": "isOpen",
              "type": "bool"
            },
            {
              "internalType": "bool",
              "name": "cancelled",
              "type": "bool"
            },
            {
              "internalType": "uint256",
              "name": "winningChoice",
              "type": "uint256"
            },
            {
              "internalType": "uint256",
              "name": "totalPool",
              "type": "uint256"
            },
            {
              "internalType": "uint256",
              "name": "remainingAmount",
              "type": "uint256"
            }
          ],
          "internalType": "struct EasyBet.Activity",
          "name": "",
          "type": "tuple"
        }
      ],
      "stateMutability": "view",
      "type": "function"
    },
    {
      "inputs": [
        {
          "internalType": "uint256",
          "name": "activityId",
          "type": "uint256"
        },
        {
          "internalType": "uint256",
          "name": "choiceIndex",
          "type": "uint256"
        }
      ],
      "name": "getChoiceTotalBets",
      "outputs": [
        {
          "internalType": "uint256",
          "name": "",
          "type": "uint256"
        }
      ],
      "stateMutability": "view",
      "type": "function"
    },
    {
      "inputs": [],
      "name": "helloworld",
      "outputs": [
        {
          "internalType": "string",
          "name": "",
          "type": "string"
        }
      ],
      "stateMutability": "pure",
      "type": "function"
    },
    {
      "inputs": [],
      "name": "lotteryNFT",
      "outputs": [
        {
          "internalType": "contract LotteryNFT",
          "name": "",
          "type": "address"
        }
      ],
      "stateMutability": "view",
      "type": "function"
    },
    {
      "inputs": [],
      "name": "owner",
      "outputs": [
        {
          "internalType": "address",
          "name": "",
          "type": "address"
        }
      ],
      "stateMutability": "view",
      "type": "function"
    },
    {
      "inputs": [
        {
          "internalType": "uint256",
          "name": "",
          "type": "uint256"
        },
        {
          "internalType": "uint256",
          "name": "",
          "type": "uint256"
        }
      ],
      "name": "prizeClaimed",
      "outputs": [
        {
          "internalType": "bool",
          "name": "",
          "type": "bool"
        }
      ],
      "stateMutability": "view",
      "type": "function"
    },
    {
      "inputs": [
        {
          "internalType": "uint256",
          "name": "",
          "type": "uint256"
        },
        {
          "internalType": "uint256",
          "name": "",
          "type": "uint256"
        }
      ],
      "name": "refundClaimed",
      "outputs": [
        {
          "internalType": "bool",
          "name": "",
          "type": "bool"
        }
      ],
      "stateMutability": "view",
      "type": "function"
    },
    {
      "inputs": [
        {
          "internalType": "uint256",
          "name": "activityId",
          "type": "uint256"
        },
        {
          "internalType": "uint256",
          "name": "winningChoice",
          "type": "uint256"
        }
      ],
      "name": "settleActivity",
      "outputs": [],
      "stateMutability": "nonpayable",
      "type": "function"
    },
    {
      "inputs": [
        {
          "internalType": "uint256",
          "name": "",
          "type": "uint256"
        }
      ],
      "name": "ticketActivity",
      "outputs": [
        {
          "internalType": "uint256",
          "name": "",
          "type": "uint256"
        }
      ],
      "stateMutability": "view",
      "type": "function"
    },
    {
      "inputs": [
        {
          "internalType": "uint256",
          "name": "",
          "type": "uint256"
        }
      ],
      "name": "ticketBetAmount",
      "outputs": [
        {
          "internalType": "uint256",
          "name": "",
          "type": "uint256"
        }
      ],
      "stateMutability": "view",
      "type": "function"
    },
    {
      "inputs": [
        {
          "internalType": "uint256",
          "name": "",
          "type": "uint256"
        },
        {
          "internalType": "uint256",
          "name": "",
          "type": "uint256"
        }
      ],
      "name": "winningTickets",
      "outputs": [
        {
          "internalType": "uint256",
          "name": "",
          "type": "uint256"
        }
      ],
      "stateMutability": "view",
      "type": "function"
    },
    {
      "inputs": [],
      "name": "zjuToken",
      "outputs": [
        {
          "internalType": "contract IERC20",
          "name": "",
          "type": "address"
        }
      ],
      "stateMutability": "view",
      "type": "function"
    },
    {
      "stateMutability": "payable",
      "type": "receive"
    }
  ],
  "bytecode": "0x60806040523480156200001157600080fd5b5060405162003acb38038062003acb833981810160405281019062000037919062000173565b336000806101000a81548173ffffffffffffffffffffffffffffffffffffffff021916908373ffffffffffffffffffffffffffffffffffffffff160217905550600060028190555081600360006101000a81548173ffffffffffffffffffffffffffffffffffffffff021916908373ffffffffffffffffffffffffffffffffffffffff16021790555080600460006101000a81548173ffffffffffffffffffffffffffffffffffffffff021916908373ffffffffffffffffffffffffffffffffffffffff1602179055505050620001ba565b600080fd5b600073ffffffffffffffffffffffffffffffffffffffff82169050919050565b60006200013b826200010e565b9050919050565b6200014d816200012e565b81146200015957600080fd5b50565b6000815190506200016d8162000142565b92915050565b600080604083850312156200018d576200018c62000109565b5b60006200019d858286016200015c565b9250506020620001b0858286016200015c565b9150509250929050565b61390180620001ca6000396000f3fe6080604052600436106101235760003560e01c8063871b924c116100a0578063c4c6710d11610064578063c4c6710d1461045b578063db2c0fd114610498578063e24751c9146104d5578063e8adfbc714610512578063ecc6c0f21461053d5761012a565b8063871b924c146103505780638da5cb5b14610379578063922635d8146103a4578063b1d4fcbc146103e1578063b5d39d7f1461041e5761012a565b80632f2f4859116100e75780632f2f485914610243578063365bfa411461026e5780635a611efc146102ab57806363d91d0a146102e85780637d70de01146103255761012a565b806301b6804b1461012f5780630425e3451461015a5780630d1657e8146101975780631dd3a7ad146101dd578063203746f21461021a5761012a565b3661012a57005b600080fd5b34801561013b57600080fd5b50610144610566565b6040516101519190612381565b60405180910390f35b34801561016657600080fd5b50610181600480360381019061017c91906123e6565b61058c565b60405161018e9190612435565b60405180910390f35b3480156101a357600080fd5b506101be60048036038101906101b99190612450565b6105bb565b6040516101d49a99989796959493929190612549565b60405180910390f35b3480156101e957600080fd5b5061020460048036038101906101ff91906123e6565b6106d1565b6040516102119190612435565b60405180910390f35b34801561022657600080fd5b50610241600480360381019061023c91906123e6565b610702565b005b34801561024f57600080fd5b50610258611054565b60405161026591906125ec565b60405180910390f35b34801561027a57600080fd5b506102956004803603810190610290919061260e565b611091565b6040516102a29190612435565b60405180910390f35b3480156102b757600080fd5b506102d260048036038101906102cd9190612450565b6110cf565b6040516102df9190612435565b60405180910390f35b3480156102f457600080fd5b5061030f600480360381019061030a91906123e6565b6110e7565b60405161031c9190612661565b60405180910390f35b34801561033157600080fd5b5061033a611116565b6040516103479190612435565b60405180910390f35b34801561035c57600080fd5b50610377600480360381019061037291906123e6565b61111c565b005b34801561038557600080fd5b5061038e6112be565b60405161039b919061267c565b60405180910390f35b3480156103b057600080fd5b506103cb60048036038101906103c69190612450565b6112e2565b6040516103d891906128c6565b60405180910390f35b3480156103ed57600080fd5b50610408600480360381019061040391906123e6565b611543565b6040516104159190612435565b60405180910390f35b34801561042a57600080fd5b5061044560048036038101906104409190612450565b611568565b6040516104529190612435565b60405180910390f35b34801561046757600080fd5b50610482600480360381019061047d919061260e565b611580565b60405161048f9190612435565b60405180910390f35b3480156104a457600080fd5b506104bf60048036038101906104ba91906123e6565b611985565b6040516104cc9190612661565b60405180910390f35b3480156104e157600080fd5b506104fc60048036038101906104f79190612b03565b6119b4565b6040516105099190612435565b60405180910390f35b34801561051e57600080fd5b50610527611c4b565b6040516105349190612bc3565b60405180910390f35b34801561054957600080fd5b50610564600480360381019061055f9190612450565b611c71565b005b600460009054906101000a900473ffffffffffffffffffffffffffffffffffffffff1681565b600060086000848152602001908152602001600020600083815260200190815260200160002054905092915050565b60016020528060005260406000206000915090508060000160009054906101000a900473ffffffffffffffffffffffffffffffffffffffff169080600101549080600301805461060a90612c0d565b80601f016020809104026020016040519081016040528092919081815260200182805461063690612c0d565b80156106835780601f1061065857610100808354040283529160200191610683565b820191906000526020600020905b81548152906001019060200180831161066657829003601f168201915b5050505050908060040154908060050154908060060160009054906101000a900460ff16908060060160019054906101000a900460ff1690806007015490806008015490806009015490508a565b600560205281600052604060002081815481106106ed57600080fd5b90600052602060002001600091509150505481565b60006001600084815260200190815260200160002090508060060160009054906101000a900460ff1661076a576040517f08c379a000000000000000000000000000000000000000000000000000000000815260040161076190612c8a565b60405180910390fd5b806002018054905082106107b3576040517f08c379a00000000000000000000000000000000000000000000000000000000081526004016107aa90612cf6565b60405180910390fd5b8060000160009054906101000a900473ffffffffffffffffffffffffffffffffffffffff1673ffffffffffffffffffffffffffffffffffffffff163373ffffffffffffffffffffffffffffffffffffffff16148061085c575060008054906101000a900473ffffffffffffffffffffffffffffffffffffffff1673ffffffffffffffffffffffffffffffffffffffff163373ffffffffffffffffffffffffffffffffffffffff16145b61089b576040517f08c379a000000000000000000000000000000000000000000000000000000000815260040161089290612d62565b60405180910390fd5b60008160060160006101000a81548160ff02191690831515021790555081816007018190555060008160080154905060006008600086815260200190815260200160002060008581526020019081526020016000205490506000820361093b57847f3144c3e585abdde813a6057d565b01505f1e22ae54353daaf5116feb02c23d378560405161092b9190612435565b60405180910390a2505050611050565b60008103610ce05760008360020180549050905060005b81811015610c9e576000600b60008981526020019081526020016000206000838152602001908152602001600020905060005b8180549050811015610c895760008282815481106109a6576109a5612d82565b5b90600052602060002001549050600760008b8152602001908152602001600020600082815260200190815260200160002060009054906101000a900460ff16156109f05750610c76565b60006009600083815260200190815260200160002054905060008103610a17575050610c76565b6000600360009054906101000a900473ffffffffffffffffffffffffffffffffffffffff1673ffffffffffffffffffffffffffffffffffffffff16636352211e846040518263ffffffff1660e01b8152600401610a749190612435565b602060405180830381865afa158015610a91573d6000803e3d6000fd5b505050506040513d601f19601f82011682018060405250810190610ab59190612ddd565b90506001600760008e8152602001908152602001600020600085815260200190815260200160002060006101000a81548160ff02191690831515021790555060006009600085815260200190815260200160002081905550600460009054906101000a900473ffffffffffffffffffffffffffffffffffffffff1673ffffffffffffffffffffffffffffffffffffffff1663a9059cbb82846040518363ffffffff1660e01b8152600401610b6a929190612e0a565b6020604051808303816000875af1158015610b89573d6000803e3d6000fd5b505050506040513d601f19601f82011682018060405250810190610bad9190612e5f565b610bec576040517f08c379a0000000000000000000000000000000000000000000000000000000008152600401610be390612ed8565b60405180910390fd5b818a6008015410610c1757818a6008016000828254610c0b9190612f27565b92505081905550610c22565b60008a600801819055505b8073ffffffffffffffffffffffffffffffffffffffff16838d7fc4a278eade19ee5ff400a2c18440a184fceff74394c2abf31f62d18a394697f185604051610c6a9190612435565b60405180910390a45050505b8080610c8190612f5b565b915050610985565b50508080610c9690612f5b565b915050610952565b50857f3144c3e585abdde813a6057d565b01505f1e22ae54353daaf5116feb02c23d3786604051610ccf9190612435565b60405180910390a250505050611050565b6000600b60008781526020019081526020016000206000868152602001908152602001600020905060005b8180549050811015611012576000828281548110610d2c57610d2b612d82565b5b9060005260206000200154905060066000898152602001908152602001600020600082815260200190815260200160002060009054906101000a900460ff1615610d765750610fff565b60006009600083815260200190815260200160002054905060008103610d9d575050610fff565b6000600360009054906101000a900473ffffffffffffffffffffffffffffffffffffffff1673ffffffffffffffffffffffffffffffffffffffff16636352211e846040518263ffffffff1660e01b8152600401610dfa9190612435565b602060405180830381865afa158015610e17573d6000803e3d6000fd5b505050506040513d601f19601f82011682018060405250810190610e3b9190612ddd565b90506000868884610e4c9190612fa3565b610e569190613014565b90508860080154811115610e6c57886008015490505b6001600660008d8152602001908152602001600020600086815260200190815260200160002060006101000a81548160ff021916908315150217905550600460009054906101000a900473ffffffffffffffffffffffffffffffffffffffff1673ffffffffffffffffffffffffffffffffffffffff1663a9059cbb83836040518363ffffffff1660e01b8152600401610f06929190612e0a565b6020604051808303816000875af1158015610f25573d6000803e3d6000fd5b505050506040513d601f19601f82011682018060405250810190610f499190612e5f565b610f88576040517f08c379a0000000000000000000000000000000000000000000000000000000008152600401610f7f90612ed8565b60405180910390fd5b80896008015410610fb35780896008016000828254610fa79190612f27565b92505081905550610fbe565b600089600801819055505b8a7f608c8c3c6a3d40f40b96fbee44f9b9aee57a39c2fcb8bb0f59d8892b2d5492a2858484604051610ff293929190613045565b60405180910390a2505050505b808061100a90612f5b565b915050610d0b565b50857f3144c3e585abdde813a6057d565b01505f1e22ae54353daaf5116feb02c23d37866040516110439190612435565b60405180910390a2505050505b5050565b60606040518060400160405280600b81526020017f68656c6c6f20776f726c64000000000000000000000000000000000000000000815250905090565b600b60205282600052604060002060205281600052604060002081815481106110b957600080fd5b9060005260206000200160009250925050505481565b60096020528060005260406000206000915090505481565b60076020528160005260406000206020528060005260406000206000915091509054906101000a900460ff1681565b60025481565b60008054906101000a900473ffffffffffffffffffffffffffffffffffffffff1673ffffffffffffffffffffffffffffffffffffffff163373ffffffffffffffffffffffffffffffffffffffff16146111aa576040517f08c379a00000000000000000000000000000000000000000000000000000000081526004016111a1906130ee565b60405180910390fd5b60006001600084815260200190815260200160002090508060060160009054906101000a900460ff16611212576040517f08c379a000000000000000000000000000000000000000000000000000000000815260040161120990612c8a565b60405180910390fd5b8060020180549050821061125b576040517f08c379a000000000000000000000000000000000000000000000000000000000815260040161125290612cf6565b60405180910390fd5b60008160060160006101000a81548160ff021916908315150217905550818160070181905550827f3144c3e585abdde813a6057d565b01505f1e22ae54353daaf5116feb02c23d37836040516112b19190612435565b60405180910390a2505050565b60008054906101000a900473ffffffffffffffffffffffffffffffffffffffff1681565b6112ea6121b4565b60016000838152602001908152602001600020604051806101600160405290816000820160009054906101000a900473ffffffffffffffffffffffffffffffffffffffff1673ffffffffffffffffffffffffffffffffffffffff1673ffffffffffffffffffffffffffffffffffffffff1681526020016001820154815260200160028201805480602002602001604051908101604052809291908181526020016000905b8282101561143a5783829060005260206000200180546113ad90612c0d565b80601f01602080910402602001604051908101604052809291908181526020018280546113d990612c0d565b80156114265780601f106113fb57610100808354040283529160200191611426565b820191906000526020600020905b81548152906001019060200180831161140957829003601f168201915b50505050508152602001906001019061138e565b50505050815260200160038201805461145290612c0d565b80601f016020809104026020016040519081016040528092919081815260200182805461147e90612c0d565b80156114cb5780601f106114a0576101008083540402835291602001916114cb565b820191906000526020600020905b8154815290600101906020018083116114ae57829003601f168201915b5050505050815260200160048201548152602001600582015481526020016006820160009054906101000a900460ff161515151581526020016006820160019054906101000a900460ff1615151515815260200160078201548152602001600882015481526020016009820154815250509050919050565b6008602052816000526040600020602052806000526040600020600091509150505481565b600a6020528060005260406000206000915090505481565b6000806001600086815260200190815260200160002090508060060160009054906101000a900460ff166115e9576040517f08c379a00000000000000000000000000000000000000000000000000000000081526004016115e090612c8a565b60405180910390fd5b8060050154421061162f576040517f08c379a00000000000000000000000000000000000000000000000000000000081526004016116269061315a565b60405180910390fd5b80600201805490508410611678576040517f08c379a000000000000000000000000000000000000000000000000000000000815260040161166f906131c6565b60405180910390fd5b80600901548311156116bf576040517f08c379a00000000000000000000000000000000000000000000000000000000081526004016116b690613258565b60405180910390fd5b6000600460009054906101000a900473ffffffffffffffffffffffffffffffffffffffff1673ffffffffffffffffffffffffffffffffffffffff166323b872dd3330876040518463ffffffff1660e01b815260040161172093929190613278565b6020604051808303816000875af115801561173f573d6000803e3d6000fd5b505050506040513d601f19601f820116820180604052508101906117639190612e5f565b9050806117a5576040517f08c379a000000000000000000000000000000000000000000000000000000000815260040161179c90612ed8565b60405180910390fd5b838260080160008282546117b991906132af565b92505081905550838260090160008282546117d49190612f27565b9250508190555083600860008881526020019081526020016000206000878152602001908152602001600020600082825461180f91906132af565b925050819055506000600360009054906101000a900473ffffffffffffffffffffffffffffffffffffffff1673ffffffffffffffffffffffffffffffffffffffff1663b90cc7aa338989896040518563ffffffff1660e01b815260040161187994939291906132e3565b6020604051808303816000875af1158015611898573d6000803e3d6000fd5b505050506040513d601f19601f820116820180604052508101906118bc919061333d565b905084600960008381526020019081526020016000208190555086600a600083815260200190815260200160002081905550600b600088815260200190815260200160002060008781526020019081526020016000208190806001815401808255809150506001900390600052602060002001600090919091909150557f9ab6b286d532c308925cb0664fe6228b8fe0d5137820cc28dc0ec44f7a3959e38186338a8a60405161197095949392919061336a565b60405180910390a18093505050509392505050565b60066020528160005260406000206020528060005260406000206000915091509054906101000a900460ff1681565b60008060009054906101000a900473ffffffffffffffffffffffffffffffffffffffff1673ffffffffffffffffffffffffffffffffffffffff163373ffffffffffffffffffffffffffffffffffffffff1614611a45576040517f08c379a0000000000000000000000000000000000000000000000000000000008152600401611a3c906130ee565b60405180910390fd5b600285511015611a8a576040517f08c379a0000000000000000000000000000000000000000000000000000000008152600401611a8190613409565b60405180910390fd5b428211611acc576040517f08c379a0000000000000000000000000000000000000000000000000000000008152600401611ac390613475565b60405180910390fd5b60008311611b0f576040517f08c379a0000000000000000000000000000000000000000000000000000000008152600401611b0690613507565b60405180910390fd5b6000600260008154611b2090612f5b565b91905081905590506000600160008381526020019081526020016000209050338160000160006101000a81548173ffffffffffffffffffffffffffffffffffffffff021916908373ffffffffffffffffffffffffffffffffffffffff16021790555042816001018190555086816002019080519060200190611ba3929190612228565b5085816003019081611bb591906136c9565b5084816004018190555083816005018190555060018160060160006101000a81548160ff0219169083151502179055506000816007018190555060008160080181905550848160090181905550817fc93ef60213ff34b6f125d92d1c28aec0f0ef8a649ca9c4939784197732b45d59888787604051611c3693929190613821565b60405180910390a28192505050949350505050565b600360009054906101000a900473ffffffffffffffffffffffffffffffffffffffff1681565b60006001600083815260200190815260200160002090508060060160009054906101000a900460ff16611cd9576040517f08c379a0000000000000000000000000000000000000000000000000000000008152600401611cd090612c8a565b60405180910390fd5b8060000160009054906101000a900473ffffffffffffffffffffffffffffffffffffffff1673ffffffffffffffffffffffffffffffffffffffff163373ffffffffffffffffffffffffffffffffffffffff161480611d82575060008054906101000a900473ffffffffffffffffffffffffffffffffffffffff1673ffffffffffffffffffffffffffffffffffffffff163373ffffffffffffffffffffffffffffffffffffffff16145b611dc1576040517f08c379a0000000000000000000000000000000000000000000000000000000008152600401611db8906138ab565b60405180910390fd5b60008160060160006101000a81548160ff02191690831515021790555060018160060160016101000a81548160ff02191690831515021790555060008160020180549050905060005b81811015612156576000600b60008681526020019081526020016000206000838152602001908152602001600020905060005b8180549050811015612141576000828281548110611e5e57611e5d612d82565b5b9060005260206000200154905060076000888152602001908152602001600020600082815260200190815260200160002060009054906101000a900460ff1615611ea8575061212e565b60006009600083815260200190815260200160002054905060008103611ecf57505061212e565b6000600360009054906101000a900473ffffffffffffffffffffffffffffffffffffffff1673ffffffffffffffffffffffffffffffffffffffff16636352211e846040518263ffffffff1660e01b8152600401611f2c9190612435565b602060405180830381865afa158015611f49573d6000803e3d6000fd5b505050506040513d601f19601f82011682018060405250810190611f6d9190612ddd565b90506001600760008b8152602001908152602001600020600085815260200190815260200160002060006101000a81548160ff02191690831515021790555060006009600085815260200190815260200160002081905550600460009054906101000a900473ffffffffffffffffffffffffffffffffffffffff1673ffffffffffffffffffffffffffffffffffffffff1663a9059cbb82846040518363ffffffff1660e01b8152600401612022929190612e0a565b6020604051808303816000875af1158015612041573d6000803e3d6000fd5b505050506040513d601f19601f820116820180604052508101906120659190612e5f565b6120a4576040517f08c379a000000000000000000000000000000000000000000000000000000000815260040161209b90612ed8565b60405180910390fd5b818860080154106120cf57818860080160008282546120c39190612f27565b925050819055506120da565b600088600801819055505b8073ffffffffffffffffffffffffffffffffffffffff16838a7fc4a278eade19ee5ff400a2c18440a184fceff74394c2abf31f62d18a394697f1856040516121229190612435565b60405180910390a45050505b808061213990612f5b565b915050611e3d565b5050808061214e90612f5b565b915050611e0a565b50827f3144c3e585abdde813a6057d565b01505f1e22ae54353daaf5116feb02c23d377fffffffffffffffffffffffffffffffffffffffffffffffffffffffffffffffff6040516121a79190612435565b60405180910390a2505050565b604051806101600160405280600073ffffffffffffffffffffffffffffffffffffffff16815260200160008152602001606081526020016060815260200160008152602001600081526020016000151581526020016000151581526020016000815260200160008152602001600081525090565b828054828255906000526020600020908101928215612270579160200282015b8281111561226f57825182908161225f91906136c9565b5091602001919060010190612248565b5b50905061227d9190612281565b5090565b5b808211156122a1576000818161229891906122a5565b50600101612282565b5090565b5080546122b190612c0d565b6000825580601f106122c357506122e2565b601f0160209004906000526020600020908101906122e191906122e5565b5b50565b5b808211156122fe5760008160009055506001016122e6565b5090565b600073ffffffffffffffffffffffffffffffffffffffff82169050919050565b6000819050919050565b600061234761234261233d84612302565b612322565b612302565b9050919050565b60006123598261232c565b9050919050565b600061236b8261234e565b9050919050565b61237b81612360565b82525050565b60006020820190506123966000830184612372565b92915050565b6000604051905090565b600080fd5b600080fd5b6000819050919050565b6123c3816123b0565b81146123ce57600080fd5b50565b6000813590506123e0816123ba565b92915050565b600080604083850312156123fd576123fc6123a6565b5b600061240b858286016123d1565b925050602061241c858286016123d1565b9150509250929050565b61242f816123b0565b82525050565b600060208201905061244a6000830184612426565b92915050565b600060208284031215612466576124656123a6565b5b6000612474848285016123d1565b91505092915050565b600061248882612302565b9050919050565b6124988161247d565b82525050565b600081519050919050565b600082825260208201905092915050565b60005b838110156124d85780820151818401526020810190506124bd565b60008484015250505050565b6000601f19601f8301169050919050565b60006125008261249e565b61250a81856124a9565b935061251a8185602086016124ba565b612523816124e4565b840191505092915050565b60008115159050919050565b6125438161252e565b82525050565b60006101408201905061255f600083018d61248f565b61256c602083018c612426565b818103604083015261257e818b6124f5565b905061258d606083018a612426565b61259a6080830189612426565b6125a760a083018861253a565b6125b460c083018761253a565b6125c160e0830186612426565b6125cf610100830185612426565b6125dd610120830184612426565b9b9a5050505050505050505050565b6000602082019050818103600083015261260681846124f5565b905092915050565b600080600060608486031215612627576126266123a6565b5b6000612635868287016123d1565b9350506020612646868287016123d1565b9250506040612657868287016123d1565b9150509250925092565b6000602082019050612676600083018461253a565b92915050565b6000602082019050612691600083018461248f565b92915050565b6126a08161247d565b82525050565b6126af816123b0565b82525050565b600081519050919050565b600082825260208201905092915050565b6000819050602082019050919050565b600082825260208201905092915050565b60006126fd8261249e565b61270781856126e1565b93506127178185602086016124ba565b612720816124e4565b840191505092915050565b600061273783836126f2565b905092915050565b6000602082019050919050565b6000612757826126b5565b61276181856126c0565b935083602082028501612773856126d1565b8060005b858110156127af5784840389528151612790858261272b565b945061279b8361273f565b925060208a01995050600181019050612777565b50829750879550505050505092915050565b6127ca8161252e565b82525050565b6000610160830160008301516127e96000860182612697565b5060208301516127fc60208601826126a6565b5060408301518482036040860152612814828261274c565b9150506060830151848203606086015261282e82826126f2565b915050608083015161284360808601826126a6565b5060a083015161285660a08601826126a6565b5060c083015161286960c08601826127c1565b5060e083015161287c60e08601826127c1565b506101008301516128916101008601826126a6565b506101208301516128a66101208601826126a6565b506101408301516128bb6101408601826126a6565b508091505092915050565b600060208201905081810360008301526128e081846127d0565b905092915050565b600080fd5b7f4e487b7100000000000000000000000000000000000000000000000000000000600052604160045260246000fd5b612925826124e4565b810181811067ffffffffffffffff82111715612944576129436128ed565b5b80604052505050565b600061295761239c565b9050612963828261291c565b919050565b600067ffffffffffffffff821115612983576129826128ed565b5b602082029050602081019050919050565b600080fd5b600080fd5b600067ffffffffffffffff8211156129b9576129b86128ed565b5b6129c2826124e4565b9050602081019050919050565b82818337600083830152505050565b60006129f16129ec8461299e565b61294d565b905082815260208101848484011115612a0d57612a0c612999565b5b612a188482856129cf565b509392505050565b600082601f830112612a3557612a346128e8565b5b8135612a458482602086016129de565b91505092915050565b6000612a61612a5c84612968565b61294d565b90508083825260208201905060208402830185811115612a8457612a83612994565b5b835b81811015612acb57803567ffffffffffffffff811115612aa957612aa86128e8565b5b808601612ab68982612a20565b85526020850194505050602081019050612a86565b5050509392505050565b600082601f830112612aea57612ae96128e8565b5b8135612afa848260208601612a4e565b91505092915050565b60008060008060808587031215612b1d57612b1c6123a6565b5b600085013567ffffffffffffffff811115612b3b57612b3a6123ab565b5b612b4787828801612ad5565b945050602085013567ffffffffffffffff811115612b6857612b676123ab565b5b612b7487828801612a20565b9350506040612b85878288016123d1565b9250506060612b96878288016123d1565b91505092959194509250565b6000612bad8261234e565b9050919050565b612bbd81612ba2565b82525050565b6000602082019050612bd86000830184612bb4565b92915050565b7f4e487b7100000000000000000000000000000000000000000000000000000000600052602260045260246000fd5b60006002820490506001821680612c2557607f821691505b602082108103612c3857612c37612bde565b5b50919050565b7f4163746976697479206973206e6f74206f70656e000000000000000000000000600082015250565b6000612c746014836124a9565b9150612c7f82612c3e565b602082019050919050565b60006020820190508181036000830152612ca381612c67565b9050919050565b7f496e76616c69642077696e6e696e672063686f69636500000000000000000000600082015250565b6000612ce06016836124a9565b9150612ceb82612caa565b602082019050919050565b60006020820190508181036000830152612d0f81612cd3565b9050919050565b7f4e6f7420617574686f72697a656420746f20736574746c650000000000000000600082015250565b6000612d4c6018836124a9565b9150612d5782612d16565b602082019050919050565b60006020820190508181036000830152612d7b81612d3f565b9050919050565b7f4e487b7100000000000000000000000000000000000000000000000000000000600052603260045260246000fd5b612dba8161247d565b8114612dc557600080fd5b50565b600081519050612dd781612db1565b92915050565b600060208284031215612df357612df26123a6565b5b6000612e0184828501612dc8565b91505092915050565b6000604082019050612e1f600083018561248f565b612e2c6020830184612426565b9392505050565b612e3c8161252e565b8114612e4757600080fd5b50565b600081519050612e5981612e33565b92915050565b600060208284031215612e7557612e746123a6565b5b6000612e8384828501612e4a565b91505092915050565b7f5a4a55207472616e73666572206661696c656400000000000000000000000000600082015250565b6000612ec26013836124a9565b9150612ecd82612e8c565b602082019050919050565b60006020820190508181036000830152612ef181612eb5565b9050919050565b7f4e487b7100000000000000000000000000000000000000000000000000000000600052601160045260246000fd5b6000612f32826123b0565b9150612f3d836123b0565b9250828203905081811115612f5557612f54612ef8565b5b92915050565b6000612f66826123b0565b91507fffffffffffffffffffffffffffffffffffffffffffffffffffffffffffffffff8203612f9857612f97612ef8565b5b600182019050919050565b6000612fae826123b0565b9150612fb9836123b0565b9250828202612fc7816123b0565b91508282048414831517612fde57612fdd612ef8565b5b5092915050565b7f4e487b7100000000000000000000000000000000000000000000000000000000600052601260045260246000fd5b600061301f826123b0565b915061302a836123b0565b92508261303a57613039612fe5565b5b828204905092915050565b600060608201905061305a6000830186612426565b613067602083018561248f565b6130746040830184612426565b949350505050565b7f4f6e6c79206f776e65722063616e2063616c6c20746869732066756e6374696f60008201527f6e00000000000000000000000000000000000000000000000000000000000000602082015250565b60006130d86021836124a9565b91506130e38261307c565b604082019050919050565b60006020820190508181036000830152613107816130cb565b9050919050565b7f41637469766974792068617320656e6465640000000000000000000000000000600082015250565b60006131446012836124a9565b915061314f8261310e565b602082019050919050565b6000602082019050818103600083015261317381613137565b9050919050565b7f496e76616c69642063686f69636520696e646578000000000000000000000000600082015250565b60006131b06014836124a9565b91506131bb8261317a565b602082019050919050565b600060208201905081810360008301526131df816131a3565b9050919050565b7f4e6f7420656e6f7567682072656d61696e696e6720616d6f756e7420696e207460008201527f686520706f6f6c00000000000000000000000000000000000000000000000000602082015250565b60006132426027836124a9565b915061324d826131e6565b604082019050919050565b6000602082019050818103600083015261327181613235565b9050919050565b600060608201905061328d600083018661248f565b61329a602083018561248f565b6132a76040830184612426565b949350505050565b60006132ba826123b0565b91506132c5836123b0565b92508282019050808211156132dd576132dc612ef8565b5b92915050565b60006080820190506132f8600083018761248f565b6133056020830186612426565b6133126040830185612426565b61331f6060830184612426565b95945050505050565b600081519050613337816123ba565b92915050565b600060208284031215613353576133526123a6565b5b600061336184828501613328565b91505092915050565b600060a08201905061337f6000830188612426565b61338c6020830187612426565b613399604083018661248f565b6133a66060830185612426565b6133b36080830184612426565b9695505050505050565b7f4174206c6561737420322063686f696365732072657175697265640000000000600082015250565b60006133f3601b836124a9565b91506133fe826133bd565b602082019050919050565b60006020820190508181036000830152613422816133e6565b9050919050565b7f446561646c696e65206d75737420626520696e20746865206675747572650000600082015250565b600061345f601e836124a9565b915061346a82613429565b602082019050919050565b6000602082019050818103600083015261348e81613452565b9050919050565b7f5072697a6520616d6f756e74206d75737420626520677265617465722074686160008201527f6e20300000000000000000000000000000000000000000000000000000000000602082015250565b60006134f16023836124a9565b91506134fc82613495565b604082019050919050565b60006020820190508181036000830152613520816134e4565b9050919050565b60008190508160005260206000209050919050565b60006020601f8301049050919050565b600082821b905092915050565b6000600883026135897fffffffffffffffffffffffffffffffffffffffffffffffffffffffffffffffff8261354c565b613593868361354c565b95508019841693508086168417925050509392505050565b60006135c66135c16135bc846123b0565b612322565b6123b0565b9050919050565b6000819050919050565b6135e0836135ab565b6135f46135ec826135cd565b848454613559565b825550505050565b600090565b6136096135fc565b6136148184846135d7565b505050565b5b818110156136385761362d600082613601565b60018101905061361a565b5050565b601f82111561367d5761364e81613527565b6136578461353c565b81016020851015613666578190505b61367a6136728561353c565b830182613619565b50505b505050565b600082821c905092915050565b60006136a060001984600802613682565b1980831691505092915050565b60006136b9838361368f565b9150826002028217905092915050565b6136d28261249e565b67ffffffffffffffff8111156136eb576136ea6128ed565b5b6136f58254612c0d565b61370082828561363c565b600060209050601f8311600181146137335760008415613721578287015190505b61372b85826136ad565b865550613793565b601f19841661374186613527565b60005b8281101561376957848901518255600182019150602085019450602081019050613744565b868310156137865784890151613782601f89168261368f565b8355505b6001600288020188555050505b505050505050565b600082825260208201905092915050565b60006137b7826126b5565b6137c1818561379b565b9350836020820285016137d3856126d1565b8060005b8581101561380f57848403895281516137f0858261272b565b94506137fb8361273f565b925060208a019950506001810190506137d7565b50829750879550505050505092915050565b6000606082019050818103600083015261383b81866137ac565b905061384a6020830185612426565b6138576040830184612426565b949350505050565b7f4e6f7420617574686f72697a656420746f2063616e63656c0000000000000000600082015250565b60006138956018836124a9565b91506138a08261385f565b602082019050919050565b600060208201905081810360008301526138c481613888565b905091905056fea2646970667358221220c66ef6413bbba3aef921fd353ba89c8d7846ea8ec5290c94b1b93a46a115553864736f6c63430008140033",
  "linkReferences": {},
  "deployedLinkReferences": {}
}