{
  "_format": "hh-sol-artifact-1",
  "contractName": "EasyBet",
  "sourceName": "contracts/EasyBet.sol",
  "abi": [
    {
      "inputs": [
        {
          "internalType": "address",
          "name": "_lotteryNFTAddress",
          "type": "address"
        },
        {
          "internalType": "address",
          "name": "_zjuTokenAddress",
          "type": "address"
        }
      ],
      "stateMutability": "nonpayable",
      "type": "constructor"
    },
    {
      "anonymous": false,
      "inputs": [
        {
          "indexed": true,
          "internalType": "uint256",
          "name": "activityId",
          "type": "uint256"
        },
        {
          "indexed": false,
          "internalType": "uint256",
          "name": "winningChoice",
          "type": "uint256"
        }
      ],
      "name": "ActivityClosed",
      "type": "event"
    },
    {
      "anonymous": false,
      "inputs": [
        {
          "indexed": true,
          "internalType": "uint256",
          "name": "activityId",
          "type": "uint256"
        },
        {
          "indexed": false,
          "internalType": "string[]",
          "name": "choices",
          "type": "string[]"
        },
        {
          "indexed": false,
          "internalType": "uint256",
          "name": "prizeAmount",
          "type": "uint256"
        },
        {
          "indexed": false,
          "internalType": "uint256",
          "name": "deadline",
          "type": "uint256"
        }
      ],
      "name": "ActivityCreated",
      "type": "event"
    },
    {
      "anonymous": false,
      "inputs": [
        {
          "indexed": false,
          "internalType": "uint256",
          "name": "tokenId",
          "type": "uint256"
        },
        {
          "indexed": false,
          "internalType": "uint256",
          "name": "price",
          "type": "uint256"
        },
        {
          "indexed": false,
          "internalType": "address",
          "name": "owner",
          "type": "address"
        },
        {
          "indexed": false,
          "internalType": "uint256",
          "name": "activityId",
          "type": "uint256"
        },
        {
          "indexed": false,
          "internalType": "uint256",
          "name": "choiceIndex",
          "type": "uint256"
        }
      ],
      "name": "BetPlaced",
      "type": "event"
    },
    {
      "anonymous": false,
      "inputs": [
        {
          "indexed": true,
          "internalType": "uint256",
          "name": "activityId",
          "type": "uint256"
        },
        {
          "indexed": false,
          "internalType": "uint256",
          "name": "tokenId",
          "type": "uint256"
        },
        {
          "indexed": false,
          "internalType": "address",
          "name": "winner",
          "type": "address"
        },
        {
          "indexed": false,
          "internalType": "uint256",
          "name": "amount",
          "type": "uint256"
        }
      ],
      "name": "PrizeClaimed",
      "type": "event"
    },
    {
      "inputs": [
        {
          "internalType": "uint256",
          "name": "",
          "type": "uint256"
        }
      ],
      "name": "activities",
      "outputs": [
        {
          "internalType": "address",
          "name": "owner",
          "type": "address"
        },
        {
          "internalType": "uint256",
          "name": "listedTimestamp",
          "type": "uint256"
        },
        {
          "internalType": "string",
          "name": "description",
          "type": "string"
        },
        {
          "internalType": "uint256",
          "name": "prizeAmount",
          "type": "uint256"
        },
        {
          "internalType": "uint256",
          "name": "deadline",
          "type": "uint256"
        },
        {
          "internalType": "bool",
          "name": "isOpen",
          "type": "bool"
        },
        {
          "internalType": "uint256",
          "name": "winningChoice",
          "type": "uint256"
        },
        {
          "internalType": "uint256",
          "name": "totalPool",
          "type": "uint256"
        },
        {
          "internalType": "uint256",
          "name": "remainingAmount",
          "type": "uint256"
        }
      ],
      "stateMutability": "view",
      "type": "function"
    },
    {
      "inputs": [],
      "name": "activityCounter",
      "outputs": [
        {
          "internalType": "uint256",
          "name": "",
          "type": "uint256"
        }
      ],
      "stateMutability": "view",
      "type": "function"
    },
    {
      "inputs": [
        {
          "internalType": "uint256",
          "name": "activityId",
          "type": "uint256"
        },
        {
          "internalType": "uint256",
          "name": "choiceIndex",
          "type": "uint256"
        },
        {
          "internalType": "uint256",
          "name": "price",
          "type": "uint256"
        }
      ],
      "name": "buyTicket",
      "outputs": [
        {
          "internalType": "uint256",
          "name": "",
          "type": "uint256"
        }
      ],
      "stateMutability": "nonpayable",
      "type": "function"
    },
    {
      "inputs": [
        {
          "internalType": "uint256",
          "name": "",
          "type": "uint256"
        },
        {
          "internalType": "uint256",
          "name": "",
          "type": "uint256"
        }
      ],
      "name": "choiceTotalBets",
      "outputs": [
        {
          "internalType": "uint256",
          "name": "",
          "type": "uint256"
        }
      ],
      "stateMutability": "view",
      "type": "function"
    },
    {
      "inputs": [
        {
          "internalType": "uint256",
          "name": "activityId",
          "type": "uint256"
        },
        {
          "internalType": "uint256",
          "name": "tokenId",
          "type": "uint256"
        },
        {
          "internalType": "uint256",
          "name": "betAmount",
          "type": "uint256"
        }
      ],
      "name": "claimPrize",
      "outputs": [],
      "stateMutability": "nonpayable",
      "type": "function"
    },
    {
      "inputs": [
        {
          "internalType": "uint256",
          "name": "activityId",
          "type": "uint256"
        },
        {
          "internalType": "uint256",
          "name": "winningChoice",
          "type": "uint256"
        }
      ],
      "name": "closeActivity",
      "outputs": [],
      "stateMutability": "nonpayable",
      "type": "function"
    },
    {
      "inputs": [
        {
          "internalType": "string[]",
          "name": "choices",
          "type": "string[]"
        },
        {
          "internalType": "string",
          "name": "description",
          "type": "string"
        },
        {
          "internalType": "uint256",
          "name": "prizeAmount",
          "type": "uint256"
        },
        {
          "internalType": "uint256",
          "name": "deadline",
          "type": "uint256"
        }
      ],
      "name": "createActivity",
      "outputs": [
        {
          "internalType": "uint256",
          "name": "",
          "type": "uint256"
        }
      ],
      "stateMutability": "nonpayable",
      "type": "function"
    },
    {
      "inputs": [
        {
          "internalType": "uint256",
          "name": "activityId",
          "type": "uint256"
        }
      ],
      "name": "getActivity",
      "outputs": [
        {
          "components": [
            {
              "internalType": "address",
              "name": "owner",
              "type": "address"
            },
            {
              "internalType": "uint256",
              "name": "listedTimestamp",
              "type": "uint256"
            },
            {
              "internalType": "string[]",
              "name": "choices",
              "type": "string[]"
            },
            {
              "internalType": "string",
              "name": "description",
              "type": "string"
            },
            {
              "internalType": "uint256",
              "name": "prizeAmount",
              "type": "uint256"
            },
            {
              "internalType": "uint256",
              "name": "deadline",
              "type": "uint256"
            },
            {
              "internalType": "bool",
              "name": "isOpen",
              "type": "bool"
            },
            {
              "internalType": "uint256",
              "name": "winningChoice",
              "type": "uint256"
            },
            {
              "internalType": "uint256",
              "name": "totalPool",
              "type": "uint256"
            },
            {
              "internalType": "uint256",
              "name": "remainingAmount",
              "type": "uint256"
            }
          ],
          "internalType": "struct EasyBet.Activity",
          "name": "",
          "type": "tuple"
        }
      ],
      "stateMutability": "view",
      "type": "function"
    },
    {
      "inputs": [
        {
          "internalType": "uint256",
          "name": "activityId",
          "type": "uint256"
        },
        {
          "internalType": "uint256",
          "name": "choiceIndex",
          "type": "uint256"
        }
      ],
      "name": "getChoiceTotalBets",
      "outputs": [
        {
          "internalType": "uint256",
          "name": "",
          "type": "uint256"
        }
      ],
      "stateMutability": "view",
      "type": "function"
    },
    {
      "inputs": [],
      "name": "helloworld",
      "outputs": [
        {
          "internalType": "string",
          "name": "",
          "type": "string"
        }
      ],
      "stateMutability": "pure",
      "type": "function"
    },
    {
      "inputs": [],
      "name": "lotteryNFT",
      "outputs": [
        {
          "internalType": "contract ERC721",
          "name": "",
          "type": "address"
        }
      ],
      "stateMutability": "view",
      "type": "function"
    },
    {
      "inputs": [],
      "name": "owner",
      "outputs": [
        {
          "internalType": "address",
          "name": "",
          "type": "address"
        }
      ],
      "stateMutability": "view",
      "type": "function"
    },
    {
      "inputs": [
        {
          "internalType": "uint256",
          "name": "",
          "type": "uint256"
        },
        {
          "internalType": "uint256",
          "name": "",
          "type": "uint256"
        }
      ],
      "name": "prizeClaimed",
      "outputs": [
        {
          "internalType": "bool",
          "name": "",
          "type": "bool"
        }
      ],
      "stateMutability": "view",
      "type": "function"
    },
    {
      "inputs": [
        {
          "internalType": "uint256",
          "name": "",
          "type": "uint256"
        },
        {
          "internalType": "uint256",
          "name": "",
          "type": "uint256"
        }
      ],
      "name": "winningTickets",
      "outputs": [
        {
          "internalType": "uint256",
          "name": "",
          "type": "uint256"
        }
      ],
      "stateMutability": "view",
      "type": "function"
    },
    {
      "inputs": [],
      "name": "zjuToken",
      "outputs": [
        {
          "internalType": "contract IERC20",
          "name": "",
          "type": "address"
        }
      ],
      "stateMutability": "view",
      "type": "function"
    },
    {
      "stateMutability": "payable",
      "type": "receive"
    }
  ],
  "bytecode": "0x60806040523480156200001157600080fd5b5060405162002cfe38038062002cfe833981810160405281019062000037919062000173565b336000806101000a81548173ffffffffffffffffffffffffffffffffffffffff021916908373ffffffffffffffffffffffffffffffffffffffff160217905550600060028190555081600360006101000a81548173ffffffffffffffffffffffffffffffffffffffff021916908373ffffffffffffffffffffffffffffffffffffffff16021790555080600460006101000a81548173ffffffffffffffffffffffffffffffffffffffff021916908373ffffffffffffffffffffffffffffffffffffffff1602179055505050620001ba565b600080fd5b600073ffffffffffffffffffffffffffffffffffffffff82169050919050565b60006200013b826200010e565b9050919050565b6200014d816200012e565b81146200015957600080fd5b50565b6000815190506200016d8162000142565b92915050565b600080604083850312156200018d576200018c62000109565b5b60006200019d858286016200015c565b9250506020620001b0858286016200015c565b9150509250929050565b612b3480620001ca6000396000f3fe6080604052600436106100ec5760003560e01c80638da5cb5b1161008a578063db2c0fd111610059578063db2c0fd114610343578063e24751c914610380578063e8adfbc7146103bd578063f6c94230146103e8576100f3565b80638da5cb5b14610261578063922635d81461028c578063b1d4fcbc146102c9578063c4c6710d14610306576100f3565b80631dd3a7ad116100c65780631dd3a7ad146101a55780632f2f4859146101e25780637d70de011461020d578063871b924c14610238576100f3565b806301b6804b146100f85780630425e345146101235780630d1657e814610160576100f3565b366100f357005b600080fd5b34801561010457600080fd5b5061010d610411565b60405161011a9190611532565b60405180910390f35b34801561012f57600080fd5b5061014a60048036038101906101459190611597565b610437565b60405161015791906115e6565b60405180910390f35b34801561016c57600080fd5b5061018760048036038101906101829190611601565b610466565b60405161019c999897969594939291906116fa565b60405180910390f35b3480156101b157600080fd5b506101cc60048036038101906101c79190611597565b610569565b6040516101d991906115e6565b60405180910390f35b3480156101ee57600080fd5b506101f761059a565b604051610204919061178e565b60405180910390f35b34801561021957600080fd5b506102226105d7565b60405161022f91906115e6565b60405180910390f35b34801561024457600080fd5b5061025f600480360381019061025a9190611597565b6105dd565b005b34801561026d57600080fd5b5061027661077f565b60405161028391906117b0565b60405180910390f35b34801561029857600080fd5b506102b360048036038101906102ae9190611601565b6107a3565b6040516102c091906119e5565b60405180910390f35b3480156102d557600080fd5b506102f060048036038101906102eb9190611597565b6109e9565b6040516102fd91906115e6565b60405180910390f35b34801561031257600080fd5b5061032d60048036038101906103289190611a07565b610a0e565b60405161033a91906115e6565b60405180910390f35b34801561034f57600080fd5b5061036a60048036038101906103659190611597565b610d24565b6040516103779190611a5a565b60405180910390f35b34801561038c57600080fd5b506103a760048036038101906103a29190611c90565b610d53565b6040516103b491906115e6565b60405180910390f35b3480156103c957600080fd5b506103d2610fea565b6040516103df9190611d50565b60405180910390f35b3480156103f457600080fd5b5061040f600480360381019061040a9190611a07565b611010565b005b600460009054906101000a900473ffffffffffffffffffffffffffffffffffffffff1681565b600060076000848152602001908152602001600020600083815260200190815260200160002054905092915050565b60016020528060005260406000206000915090508060000160009054906101000a900473ffffffffffffffffffffffffffffffffffffffff16908060010154908060030180546104b590611d9a565b80601f01602080910402602001604051908101604052809291908181526020018280546104e190611d9a565b801561052e5780601f106105035761010080835404028352916020019161052e565b820191906000526020600020905b81548152906001019060200180831161051157829003601f168201915b5050505050908060040154908060050154908060060160009054906101000a900460ff16908060070154908060080154908060090154905089565b6005602052816000526040600020818154811061058557600080fd5b90600052602060002001600091509150505481565b60606040518060400160405280600b81526020017f68656c6c6f20776f726c64000000000000000000000000000000000000000000815250905090565b60025481565b60008054906101000a900473ffffffffffffffffffffffffffffffffffffffff1673ffffffffffffffffffffffffffffffffffffffff163373ffffffffffffffffffffffffffffffffffffffff161461066b576040517f08c379a000000000000000000000000000000000000000000000000000000000815260040161066290611e3d565b60405180910390fd5b60006001600084815260200190815260200160002090508060060160009054906101000a900460ff166106d3576040517f08c379a00000000000000000000000000000000000000000000000000000000081526004016106ca90611ea9565b60405180910390fd5b8060020180549050821061071c576040517f08c379a000000000000000000000000000000000000000000000000000000000815260040161071390611f15565b60405180910390fd5b60008160060160006101000a81548160ff021916908315150217905550818160070181905550827f3144c3e585abdde813a6057d565b01505f1e22ae54353daaf5116feb02c23d378360405161077291906115e6565b60405180910390a2505050565b60008054906101000a900473ffffffffffffffffffffffffffffffffffffffff1681565b6107ab61136e565b60016000838152602001908152602001600020604051806101400160405290816000820160009054906101000a900473ffffffffffffffffffffffffffffffffffffffff1673ffffffffffffffffffffffffffffffffffffffff1673ffffffffffffffffffffffffffffffffffffffff1681526020016001820154815260200160028201805480602002602001604051908101604052809291908181526020016000905b828210156108fb57838290600052602060002001805461086e90611d9a565b80601f016020809104026020016040519081016040528092919081815260200182805461089a90611d9a565b80156108e75780601f106108bc576101008083540402835291602001916108e7565b820191906000526020600020905b8154815290600101906020018083116108ca57829003601f168201915b50505050508152602001906001019061084f565b50505050815260200160038201805461091390611d9a565b80601f016020809104026020016040519081016040528092919081815260200182805461093f90611d9a565b801561098c5780601f106109615761010080835404028352916020019161098c565b820191906000526020600020905b81548152906001019060200180831161096f57829003601f168201915b5050505050815260200160048201548152602001600582015481526020016006820160009054906101000a900460ff1615151515815260200160078201548152602001600882015481526020016009820154815250509050919050565b6007602052816000526040600020602052806000526040600020600091509150505481565b6000806001600086815260200190815260200160002090508060060160009054906101000a900460ff16610a77576040517f08c379a0000000000000000000000000000000000000000000000000000000008152600401610a6e90611ea9565b60405180910390fd5b80600501544210610abd576040517f08c379a0000000000000000000000000000000000000000000000000000000008152600401610ab490611f81565b60405180910390fd5b80600201805490508410610b06576040517f08c379a0000000000000000000000000000000000000000000000000000000008152600401610afd90611fed565b60405180910390fd5b8060090154831115610b4d576040517f08c379a0000000000000000000000000000000000000000000000000000000008152600401610b449061207f565b60405180910390fd5b6000600460009054906101000a900473ffffffffffffffffffffffffffffffffffffffff1673ffffffffffffffffffffffffffffffffffffffff166323b872dd3330876040518463ffffffff1660e01b8152600401610bae9392919061209f565b6020604051808303816000875af1158015610bcd573d6000803e3d6000fd5b505050506040513d601f19601f82011682018060405250810190610bf19190612102565b905080610c33576040517f08c379a0000000000000000000000000000000000000000000000000000000008152600401610c2a9061217b565b60405180910390fd5b83826008016000828254610c4791906121ca565b9250508190555083826009016000828254610c6291906121fe565b92505081905550836007600088815260200190815260200160002060008781526020019081526020016000206000828254610c9d91906121ca565b92505081905550600086863342604051602001610cbd949392919061229b565b6040516020818303038152906040528051906020012060001c90507f9ab6b286d532c308925cb0664fe6228b8fe0d5137820cc28dc0ec44f7a3959e38186338a8a604051610d0f9594939291906122e9565b60405180910390a18093505050509392505050565b60066020528160005260406000206020528060005260406000206000915091509054906101000a900460ff1681565b60008060009054906101000a900473ffffffffffffffffffffffffffffffffffffffff1673ffffffffffffffffffffffffffffffffffffffff163373ffffffffffffffffffffffffffffffffffffffff1614610de4576040517f08c379a0000000000000000000000000000000000000000000000000000000008152600401610ddb90611e3d565b60405180910390fd5b600285511015610e29576040517f08c379a0000000000000000000000000000000000000000000000000000000008152600401610e2090612388565b60405180910390fd5b428211610e6b576040517f08c379a0000000000000000000000000000000000000000000000000000000008152600401610e62906123f4565b60405180910390fd5b60008311610eae576040517f08c379a0000000000000000000000000000000000000000000000000000000008152600401610ea590612486565b60405180910390fd5b6000600260008154610ebf906124a6565b91905081905590506000600160008381526020019081526020016000209050338160000160006101000a81548173ffffffffffffffffffffffffffffffffffffffff021916908373ffffffffffffffffffffffffffffffffffffffff16021790555042816001018190555086816002019080519060200190610f429291906113d9565b5085816003019081610f549190612690565b5084816004018190555083816005018190555060018160060160006101000a81548160ff0219169083151502179055506000816007018190555060008160080181905550848160090181905550817fc93ef60213ff34b6f125d92d1c28aec0f0ef8a649ca9c4939784197732b45d59888787604051610fd5939291906127e8565b60405180910390a28192505050949350505050565b600360009054906101000a900473ffffffffffffffffffffffffffffffffffffffff1681565b60006001600085815260200190815260200160002090508060060160009054906101000a900460ff1615611079576040517f08c379a000000000000000000000000000000000000000000000000000000000815260040161107090612872565b60405180910390fd5b60066000858152602001908152602001600020600084815260200190815260200160002060009054906101000a900460ff16156110eb576040517f08c379a00000000000000000000000000000000000000000000000000000000081526004016110e2906128de565b60405180910390fd5b6000821161112e576040517f08c379a00000000000000000000000000000000000000000000000000000000081526004016111259061294a565b60405180910390fd5b6007600085815260200190815260200160002060008260070154815260200190815260200160002054821115611199576040517f08c379a0000000000000000000000000000000000000000000000000000000008152600401611190906129dc565b60405180910390fd5b600160066000868152602001908152602001600020600085815260200190815260200160002060006101000a81548160ff0219169083151502179055506000600760008681526020019081526020016000206000836007015481526020019081526020016000205482600801548461121191906129fc565b61121b9190612a6d565b9050816008015481111561123157816008015490505b600460009054906101000a900473ffffffffffffffffffffffffffffffffffffffff1673ffffffffffffffffffffffffffffffffffffffff1663a9059cbb33836040518363ffffffff1660e01b815260040161128e929190612a9e565b6020604051808303816000875af11580156112ad573d6000803e3d6000fd5b505050506040513d601f19601f820116820180604052508101906112d19190612102565b611310576040517f08c379a00000000000000000000000000000000000000000000000000000000081526004016113079061217b565b60405180910390fd5b8082600801600082825461132491906121fe565b92505081905550847f608c8c3c6a3d40f40b96fbee44f9b9aee57a39c2fcb8bb0f59d8892b2d5492a285338460405161135f93929190612ac7565b60405180910390a25050505050565b604051806101400160405280600073ffffffffffffffffffffffffffffffffffffffff16815260200160008152602001606081526020016060815260200160008152602001600081526020016000151581526020016000815260200160008152602001600081525090565b828054828255906000526020600020908101928215611421579160200282015b828111156114205782518290816114109190612690565b50916020019190600101906113f9565b5b50905061142e9190611432565b5090565b5b8082111561145257600081816114499190611456565b50600101611433565b5090565b50805461146290611d9a565b6000825580601f106114745750611493565b601f0160209004906000526020600020908101906114929190611496565b5b50565b5b808211156114af576000816000905550600101611497565b5090565b600073ffffffffffffffffffffffffffffffffffffffff82169050919050565b6000819050919050565b60006114f86114f36114ee846114b3565b6114d3565b6114b3565b9050919050565b600061150a826114dd565b9050919050565b600061151c826114ff565b9050919050565b61152c81611511565b82525050565b60006020820190506115476000830184611523565b92915050565b6000604051905090565b600080fd5b600080fd5b6000819050919050565b61157481611561565b811461157f57600080fd5b50565b6000813590506115918161156b565b92915050565b600080604083850312156115ae576115ad611557565b5b60006115bc85828601611582565b92505060206115cd85828601611582565b9150509250929050565b6115e081611561565b82525050565b60006020820190506115fb60008301846115d7565b92915050565b60006020828403121561161757611616611557565b5b600061162584828501611582565b91505092915050565b6000611639826114b3565b9050919050565b6116498161162e565b82525050565b600081519050919050565b600082825260208201905092915050565b60005b8381101561168957808201518184015260208101905061166e565b60008484015250505050565b6000601f19601f8301169050919050565b60006116b18261164f565b6116bb818561165a565b93506116cb81856020860161166b565b6116d481611695565b840191505092915050565b60008115159050919050565b6116f4816116df565b82525050565b600061012082019050611710600083018c611640565b61171d602083018b6115d7565b818103604083015261172f818a6116a6565b905061173e60608301896115d7565b61174b60808301886115d7565b61175860a08301876116eb565b61176560c08301866115d7565b61177260e08301856115d7565b6117806101008301846115d7565b9a9950505050505050505050565b600060208201905081810360008301526117a881846116a6565b905092915050565b60006020820190506117c56000830184611640565b92915050565b6117d48161162e565b82525050565b6117e381611561565b82525050565b600081519050919050565b600082825260208201905092915050565b6000819050602082019050919050565b600082825260208201905092915050565b60006118318261164f565b61183b8185611815565b935061184b81856020860161166b565b61185481611695565b840191505092915050565b600061186b8383611826565b905092915050565b6000602082019050919050565b600061188b826117e9565b61189581856117f4565b9350836020820285016118a785611805565b8060005b858110156118e357848403895281516118c4858261185f565b94506118cf83611873565b925060208a019950506001810190506118ab565b50829750879550505050505092915050565b6118fe816116df565b82525050565b60006101408301600083015161191d60008601826117cb565b50602083015161193060208601826117da565b50604083015184820360408601526119488282611880565b915050606083015184820360608601526119628282611826565b915050608083015161197760808601826117da565b5060a083015161198a60a08601826117da565b5060c083015161199d60c08601826118f5565b5060e08301516119b060e08601826117da565b506101008301516119c56101008601826117da565b506101208301516119da6101208601826117da565b508091505092915050565b600060208201905081810360008301526119ff8184611904565b905092915050565b600080600060608486031215611a2057611a1f611557565b5b6000611a2e86828701611582565b9350506020611a3f86828701611582565b9250506040611a5086828701611582565b9150509250925092565b6000602082019050611a6f60008301846116eb565b92915050565b600080fd5b7f4e487b7100000000000000000000000000000000000000000000000000000000600052604160045260246000fd5b611ab282611695565b810181811067ffffffffffffffff82111715611ad157611ad0611a7a565b5b80604052505050565b6000611ae461154d565b9050611af08282611aa9565b919050565b600067ffffffffffffffff821115611b1057611b0f611a7a565b5b602082029050602081019050919050565b600080fd5b600080fd5b600067ffffffffffffffff821115611b4657611b45611a7a565b5b611b4f82611695565b9050602081019050919050565b82818337600083830152505050565b6000611b7e611b7984611b2b565b611ada565b905082815260208101848484011115611b9a57611b99611b26565b5b611ba5848285611b5c565b509392505050565b600082601f830112611bc257611bc1611a75565b5b8135611bd2848260208601611b6b565b91505092915050565b6000611bee611be984611af5565b611ada565b90508083825260208201905060208402830185811115611c1157611c10611b21565b5b835b81811015611c5857803567ffffffffffffffff811115611c3657611c35611a75565b5b808601611c438982611bad565b85526020850194505050602081019050611c13565b5050509392505050565b600082601f830112611c7757611c76611a75565b5b8135611c87848260208601611bdb565b91505092915050565b60008060008060808587031215611caa57611ca9611557565b5b600085013567ffffffffffffffff811115611cc857611cc761155c565b5b611cd487828801611c62565b945050602085013567ffffffffffffffff811115611cf557611cf461155c565b5b611d0187828801611bad565b9350506040611d1287828801611582565b9250506060611d2387828801611582565b91505092959194509250565b6000611d3a826114ff565b9050919050565b611d4a81611d2f565b82525050565b6000602082019050611d656000830184611d41565b92915050565b7f4e487b7100000000000000000000000000000000000000000000000000000000600052602260045260246000fd5b60006002820490506001821680611db257607f821691505b602082108103611dc557611dc4611d6b565b5b50919050565b7f4f6e6c79206f776e65722063616e2063616c6c20746869732066756e6374696f60008201527f6e00000000000000000000000000000000000000000000000000000000000000602082015250565b6000611e2760218361165a565b9150611e3282611dcb565b604082019050919050565b60006020820190508181036000830152611e5681611e1a565b9050919050565b7f4163746976697479206973206e6f74206f70656e000000000000000000000000600082015250565b6000611e9360148361165a565b9150611e9e82611e5d565b602082019050919050565b60006020820190508181036000830152611ec281611e86565b9050919050565b7f496e76616c69642077696e6e696e672063686f69636500000000000000000000600082015250565b6000611eff60168361165a565b9150611f0a82611ec9565b602082019050919050565b60006020820190508181036000830152611f2e81611ef2565b9050919050565b7f41637469766974792068617320656e6465640000000000000000000000000000600082015250565b6000611f6b60128361165a565b9150611f7682611f35565b602082019050919050565b60006020820190508181036000830152611f9a81611f5e565b9050919050565b7f496e76616c69642063686f69636520696e646578000000000000000000000000600082015250565b6000611fd760148361165a565b9150611fe282611fa1565b602082019050919050565b6000602082019050818103600083015261200681611fca565b9050919050565b7f4e6f7420656e6f7567682072656d61696e696e6720616d6f756e7420696e207460008201527f686520706f6f6c00000000000000000000000000000000000000000000000000602082015250565b600061206960278361165a565b91506120748261200d565b604082019050919050565b600060208201905081810360008301526120988161205c565b9050919050565b60006060820190506120b46000830186611640565b6120c16020830185611640565b6120ce60408301846115d7565b949350505050565b6120df816116df565b81146120ea57600080fd5b50565b6000815190506120fc816120d6565b92915050565b60006020828403121561211857612117611557565b5b6000612126848285016120ed565b91505092915050565b7f5a4a55207472616e73666572206661696c656400000000000000000000000000600082015250565b600061216560138361165a565b91506121708261212f565b602082019050919050565b6000602082019050818103600083015261219481612158565b9050919050565b7f4e487b7100000000000000000000000000000000000000000000000000000000600052601160045260246000fd5b60006121d582611561565b91506121e083611561565b92508282019050808211156121f8576121f761219b565b5b92915050565b600061220982611561565b915061221483611561565b925082820390508181111561222c5761222b61219b565b5b92915050565b6000819050919050565b61224d61224882611561565b612232565b82525050565b60008160601b9050919050565b600061226b82612253565b9050919050565b600061227d82612260565b9050919050565b6122956122908261162e565b612272565b82525050565b60006122a7828761223c565b6020820191506122b7828661223c565b6020820191506122c78285612284565b6014820191506122d7828461223c565b60208201915081905095945050505050565b600060a0820190506122fe60008301886115d7565b61230b60208301876115d7565b6123186040830186611640565b61232560608301856115d7565b61233260808301846115d7565b9695505050505050565b7f4174206c6561737420322063686f696365732072657175697265640000000000600082015250565b6000612372601b8361165a565b915061237d8261233c565b602082019050919050565b600060208201905081810360008301526123a181612365565b9050919050565b7f446561646c696e65206d75737420626520696e20746865206675747572650000600082015250565b60006123de601e8361165a565b91506123e9826123a8565b602082019050919050565b6000602082019050818103600083015261240d816123d1565b9050919050565b7f5072697a6520616d6f756e74206d75737420626520677265617465722074686160008201527f6e20300000000000000000000000000000000000000000000000000000000000602082015250565b600061247060238361165a565b915061247b82612414565b604082019050919050565b6000602082019050818103600083015261249f81612463565b9050919050565b60006124b182611561565b91507fffffffffffffffffffffffffffffffffffffffffffffffffffffffffffffffff82036124e3576124e261219b565b5b600182019050919050565b60008190508160005260206000209050919050565b60006020601f8301049050919050565b600082821b905092915050565b6000600883026125507fffffffffffffffffffffffffffffffffffffffffffffffffffffffffffffffff82612513565b61255a8683612513565b95508019841693508086168417925050509392505050565b600061258d61258861258384611561565b6114d3565b611561565b9050919050565b6000819050919050565b6125a783612572565b6125bb6125b382612594565b848454612520565b825550505050565b600090565b6125d06125c3565b6125db81848461259e565b505050565b5b818110156125ff576125f46000826125c8565b6001810190506125e1565b5050565b601f82111561264457612615816124ee565b61261e84612503565b8101602085101561262d578190505b61264161263985612503565b8301826125e0565b50505b505050565b600082821c905092915050565b600061266760001984600802612649565b1980831691505092915050565b60006126808383612656565b9150826002028217905092915050565b6126998261164f565b67ffffffffffffffff8111156126b2576126b1611a7a565b5b6126bc8254611d9a565b6126c7828285612603565b600060209050601f8311600181146126fa57600084156126e8578287015190505b6126f28582612674565b86555061275a565b601f198416612708866124ee565b60005b828110156127305784890151825560018201915060208501945060208101905061270b565b8683101561274d5784890151612749601f891682612656565b8355505b6001600288020188555050505b505050505050565b600082825260208201905092915050565b600061277e826117e9565b6127888185612762565b93508360208202850161279a85611805565b8060005b858110156127d657848403895281516127b7858261185f565b94506127c283611873565b925060208a0199505060018101905061279e565b50829750879550505050505092915050565b600060608201905081810360008301526128028186612773565b905061281160208301856115d7565b61281e60408301846115d7565b949350505050565b7f4163746976697479206973207374696c6c206f70656e00000000000000000000600082015250565b600061285c60168361165a565b915061286782612826565b602082019050919050565b6000602082019050818103600083015261288b8161284f565b9050919050565b7f5072697a6520616c726561647920636c61696d65640000000000000000000000600082015250565b60006128c860158361165a565b91506128d382612892565b602082019050919050565b600060208201905081810360008301526128f7816128bb565b9050919050565b7f496e76616c69642062657420616d6f756e740000000000000000000000000000600082015250565b600061293460128361165a565b915061293f826128fe565b602082019050919050565b6000602082019050818103600083015261296381612927565b9050919050565b7f496e76616c69642062657420616d6f756e7420666f722077696e6e696e67206360008201527f686f696365000000000000000000000000000000000000000000000000000000602082015250565b60006129c660258361165a565b91506129d18261296a565b604082019050919050565b600060208201905081810360008301526129f5816129b9565b9050919050565b6000612a0782611561565b9150612a1283611561565b9250828202612a2081611561565b91508282048414831517612a3757612a3661219b565b5b5092915050565b7f4e487b7100000000000000000000000000000000000000000000000000000000600052601260045260246000fd5b6000612a7882611561565b9150612a8383611561565b925082612a9357612a92612a3e565b5b828204905092915050565b6000604082019050612ab36000830185611640565b612ac060208301846115d7565b9392505050565b6000606082019050612adc60008301866115d7565b612ae96020830185611640565b612af660408301846115d7565b94935050505056fea264697066735822122067e8385ca98300f7c4084ad0f7e0932fd8d00c8e4999df334c626083d295742864736f6c63430008140033",
  "linkReferences": {},
  "deployedLinkReferences": {}
}