{
  "_format": "hh-sol-artifact-1",
  "contractName": "EasyBet",
  "sourceName": "contracts/EasyBet.sol",
  "abi": [
    {
      "inputs": [
        {
          "internalType": "address",
          "name": "_lotteryNFTAddress",
          "type": "address"
        },
        {
          "internalType": "address",
          "name": "_zjuTokenAddress",
          "type": "address"
        }
      ],
      "stateMutability": "nonpayable",
      "type": "constructor"
    },
    {
      "anonymous": false,
      "inputs": [
        {
          "indexed": true,
          "internalType": "uint256",
          "name": "activityId",
          "type": "uint256"
        },
        {
          "indexed": false,
          "internalType": "uint256",
          "name": "winningChoice",
          "type": "uint256"
        }
      ],
      "name": "ActivityClosed",
      "type": "event"
    },
    {
      "anonymous": false,
      "inputs": [
        {
          "indexed": true,
          "internalType": "uint256",
          "name": "activityId",
          "type": "uint256"
        },
        {
          "indexed": false,
          "internalType": "string[]",
          "name": "choices",
          "type": "string[]"
        },
        {
          "indexed": false,
          "internalType": "uint256",
          "name": "prizeAmount",
          "type": "uint256"
        },
        {
          "indexed": false,
          "internalType": "uint256",
          "name": "deadline",
          "type": "uint256"
        }
      ],
      "name": "ActivityCreated",
      "type": "event"
    },
    {
      "anonymous": false,
      "inputs": [
        {
          "indexed": false,
          "internalType": "uint256",
          "name": "tokenId",
          "type": "uint256"
        },
        {
          "indexed": false,
          "internalType": "uint256",
          "name": "price",
          "type": "uint256"
        },
        {
          "indexed": false,
          "internalType": "address",
          "name": "owner",
          "type": "address"
        },
        {
          "indexed": false,
          "internalType": "uint256",
          "name": "activityId",
          "type": "uint256"
        },
        {
          "indexed": false,
          "internalType": "uint256",
          "name": "choiceIndex",
          "type": "uint256"
        }
      ],
      "name": "BetPlaced",
      "type": "event"
    },
    {
      "anonymous": false,
      "inputs": [
        {
          "indexed": true,
          "internalType": "uint256",
          "name": "activityId",
          "type": "uint256"
        },
        {
          "indexed": false,
          "internalType": "uint256",
          "name": "tokenId",
          "type": "uint256"
        },
        {
          "indexed": false,
          "internalType": "address",
          "name": "winner",
          "type": "address"
        },
        {
          "indexed": false,
          "internalType": "uint256",
          "name": "amount",
          "type": "uint256"
        }
      ],
      "name": "PrizeClaimed",
      "type": "event"
    },
    {
      "inputs": [
        {
          "internalType": "uint256",
          "name": "",
          "type": "uint256"
        }
      ],
      "name": "activities",
      "outputs": [
        {
          "internalType": "address",
          "name": "owner",
          "type": "address"
        },
        {
          "internalType": "uint256",
          "name": "listedTimestamp",
          "type": "uint256"
        },
        {
          "internalType": "string",
          "name": "description",
          "type": "string"
        },
        {
          "internalType": "uint256",
          "name": "prizeAmount",
          "type": "uint256"
        },
        {
          "internalType": "uint256",
          "name": "deadline",
          "type": "uint256"
        },
        {
          "internalType": "bool",
          "name": "isOpen",
          "type": "bool"
        },
        {
          "internalType": "uint256",
          "name": "winningChoice",
          "type": "uint256"
        },
        {
          "internalType": "uint256",
          "name": "totalPool",
          "type": "uint256"
        },
        {
          "internalType": "uint256",
          "name": "remainingAmount",
          "type": "uint256"
        }
      ],
      "stateMutability": "view",
      "type": "function"
    },
    {
      "inputs": [
        {
          "internalType": "uint256",
          "name": "",
          "type": "uint256"
        },
        {
          "internalType": "uint256",
          "name": "",
          "type": "uint256"
        },
        {
          "internalType": "uint256",
          "name": "",
          "type": "uint256"
        }
      ],
      "name": "activityChoiceTickets",
      "outputs": [
        {
          "internalType": "uint256",
          "name": "",
          "type": "uint256"
        }
      ],
      "stateMutability": "view",
      "type": "function"
    },
    {
      "inputs": [],
      "name": "activityCounter",
      "outputs": [
        {
          "internalType": "uint256",
          "name": "",
          "type": "uint256"
        }
      ],
      "stateMutability": "view",
      "type": "function"
    },
    {
      "inputs": [
        {
          "internalType": "uint256",
          "name": "activityId",
          "type": "uint256"
        },
        {
          "internalType": "uint256",
          "name": "choiceIndex",
          "type": "uint256"
        },
        {
          "internalType": "uint256",
          "name": "price",
          "type": "uint256"
        }
      ],
      "name": "buyTicket",
      "outputs": [
        {
          "internalType": "uint256",
          "name": "",
          "type": "uint256"
        }
      ],
      "stateMutability": "nonpayable",
      "type": "function"
    },
    {
      "inputs": [
        {
          "internalType": "uint256",
          "name": "",
          "type": "uint256"
        },
        {
          "internalType": "uint256",
          "name": "",
          "type": "uint256"
        }
      ],
      "name": "choiceTotalBets",
      "outputs": [
        {
          "internalType": "uint256",
          "name": "",
          "type": "uint256"
        }
      ],
      "stateMutability": "view",
      "type": "function"
    },
    {
      "inputs": [
        {
          "internalType": "uint256",
          "name": "tokenId",
          "type": "uint256"
        }
      ],
      "name": "claimPrize",
      "outputs": [],
      "stateMutability": "nonpayable",
      "type": "function"
    },
    {
      "inputs": [
        {
          "internalType": "uint256",
          "name": "activityId",
          "type": "uint256"
        },
        {
          "internalType": "uint256",
          "name": "winningChoice",
          "type": "uint256"
        }
      ],
      "name": "closeActivity",
      "outputs": [],
      "stateMutability": "nonpayable",
      "type": "function"
    },
    {
      "inputs": [
        {
          "internalType": "string[]",
          "name": "choices",
          "type": "string[]"
        },
        {
          "internalType": "string",
          "name": "description",
          "type": "string"
        },
        {
          "internalType": "uint256",
          "name": "prizeAmount",
          "type": "uint256"
        },
        {
          "internalType": "uint256",
          "name": "deadline",
          "type": "uint256"
        }
      ],
      "name": "createActivity",
      "outputs": [
        {
          "internalType": "uint256",
          "name": "",
          "type": "uint256"
        }
      ],
      "stateMutability": "nonpayable",
      "type": "function"
    },
    {
      "inputs": [
        {
          "internalType": "uint256",
          "name": "activityId",
          "type": "uint256"
        }
      ],
      "name": "getActivity",
      "outputs": [
        {
          "components": [
            {
              "internalType": "address",
              "name": "owner",
              "type": "address"
            },
            {
              "internalType": "uint256",
              "name": "listedTimestamp",
              "type": "uint256"
            },
            {
              "internalType": "string[]",
              "name": "choices",
              "type": "string[]"
            },
            {
              "internalType": "string",
              "name": "description",
              "type": "string"
            },
            {
              "internalType": "uint256",
              "name": "prizeAmount",
              "type": "uint256"
            },
            {
              "internalType": "uint256",
              "name": "deadline",
              "type": "uint256"
            },
            {
              "internalType": "bool",
              "name": "isOpen",
              "type": "bool"
            },
            {
              "internalType": "uint256",
              "name": "winningChoice",
              "type": "uint256"
            },
            {
              "internalType": "uint256",
              "name": "totalPool",
              "type": "uint256"
            },
            {
              "internalType": "uint256",
              "name": "remainingAmount",
              "type": "uint256"
            }
          ],
          "internalType": "struct EasyBet.Activity",
          "name": "",
          "type": "tuple"
        }
      ],
      "stateMutability": "view",
      "type": "function"
    },
    {
      "inputs": [
        {
          "internalType": "uint256",
          "name": "activityId",
          "type": "uint256"
        },
        {
          "internalType": "uint256",
          "name": "choiceIndex",
          "type": "uint256"
        }
      ],
      "name": "getChoiceTotalBets",
      "outputs": [
        {
          "internalType": "uint256",
          "name": "",
          "type": "uint256"
        }
      ],
      "stateMutability": "view",
      "type": "function"
    },
    {
      "inputs": [],
      "name": "helloworld",
      "outputs": [
        {
          "internalType": "string",
          "name": "",
          "type": "string"
        }
      ],
      "stateMutability": "pure",
      "type": "function"
    },
    {
      "inputs": [],
      "name": "lotteryNFT",
      "outputs": [
        {
          "internalType": "contract LotteryNFT",
          "name": "",
          "type": "address"
        }
      ],
      "stateMutability": "view",
      "type": "function"
    },
    {
      "inputs": [],
      "name": "owner",
      "outputs": [
        {
          "internalType": "address",
          "name": "",
          "type": "address"
        }
      ],
      "stateMutability": "view",
      "type": "function"
    },
    {
      "inputs": [
        {
          "internalType": "uint256",
          "name": "",
          "type": "uint256"
        },
        {
          "internalType": "uint256",
          "name": "",
          "type": "uint256"
        }
      ],
      "name": "prizeClaimed",
      "outputs": [
        {
          "internalType": "bool",
          "name": "",
          "type": "bool"
        }
      ],
      "stateMutability": "view",
      "type": "function"
    },
    {
      "inputs": [
        {
          "internalType": "uint256",
          "name": "",
          "type": "uint256"
        }
      ],
      "name": "ticketActivity",
      "outputs": [
        {
          "internalType": "uint256",
          "name": "",
          "type": "uint256"
        }
      ],
      "stateMutability": "view",
      "type": "function"
    },
    {
      "inputs": [
        {
          "internalType": "uint256",
          "name": "",
          "type": "uint256"
        }
      ],
      "name": "ticketBetAmount",
      "outputs": [
        {
          "internalType": "uint256",
          "name": "",
          "type": "uint256"
        }
      ],
      "stateMutability": "view",
      "type": "function"
    },
    {
      "inputs": [
        {
          "internalType": "uint256",
          "name": "",
          "type": "uint256"
        },
        {
          "internalType": "uint256",
          "name": "",
          "type": "uint256"
        }
      ],
      "name": "winningTickets",
      "outputs": [
        {
          "internalType": "uint256",
          "name": "",
          "type": "uint256"
        }
      ],
      "stateMutability": "view",
      "type": "function"
    },
    {
      "inputs": [],
      "name": "zjuToken",
      "outputs": [
        {
          "internalType": "contract IERC20",
          "name": "",
          "type": "address"
        }
      ],
      "stateMutability": "view",
      "type": "function"
    },
    {
      "stateMutability": "payable",
      "type": "receive"
    }
  ],
  "bytecode": "0x60806040523480156200001157600080fd5b506040516200324738038062003247833981810160405281019062000037919062000173565b336000806101000a81548173ffffffffffffffffffffffffffffffffffffffff021916908373ffffffffffffffffffffffffffffffffffffffff160217905550600060028190555081600360006101000a81548173ffffffffffffffffffffffffffffffffffffffff021916908373ffffffffffffffffffffffffffffffffffffffff16021790555080600460006101000a81548173ffffffffffffffffffffffffffffffffffffffff021916908373ffffffffffffffffffffffffffffffffffffffff1602179055505050620001ba565b600080fd5b600073ffffffffffffffffffffffffffffffffffffffff82169050919050565b60006200013b826200010e565b9050919050565b6200014d816200012e565b81146200015957600080fd5b50565b6000815190506200016d8162000142565b92915050565b600080604083850312156200018d576200018c62000109565b5b60006200019d858286016200015c565b9250506020620001b0858286016200015c565b9150509250929050565b61307d80620001ca6000396000f3fe60806040526004361061010d5760003560e01c80638da5cb5b11610095578063c4c6710d11610064578063c4c6710d146103de578063d70981541461041b578063db2c0fd114610444578063e24751c914610481578063e8adfbc7146104be57610114565b80638da5cb5b146102fc578063922635d814610327578063b1d4fcbc14610364578063b5d39d7f146103a157610114565b80632f2f4859116100dc5780632f2f485914610203578063365bfa411461022e5780635a611efc1461026b5780637d70de01146102a8578063871b924c146102d357610114565b806301b6804b146101195780630425e345146101445780630d1657e8146101815780631dd3a7ad146101c657610114565b3661011457005b600080fd5b34801561012557600080fd5b5061012e6104e9565b60405161013b919061194d565b60405180910390f35b34801561015057600080fd5b5061016b600480360381019061016691906119b2565b61050f565b6040516101789190611a01565b60405180910390f35b34801561018d57600080fd5b506101a860048036038101906101a39190611a1c565b61053e565b6040516101bd99989796959493929190611b15565b60405180910390f35b3480156101d257600080fd5b506101ed60048036038101906101e891906119b2565b610641565b6040516101fa9190611a01565b60405180910390f35b34801561020f57600080fd5b50610218610672565b6040516102259190611ba9565b60405180910390f35b34801561023a57600080fd5b5061025560048036038101906102509190611bcb565b6106af565b6040516102629190611a01565b60405180910390f35b34801561027757600080fd5b50610292600480360381019061028d9190611a1c565b6106ed565b60405161029f9190611a01565b60405180910390f35b3480156102b457600080fd5b506102bd610705565b6040516102ca9190611a01565b60405180910390f35b3480156102df57600080fd5b506102fa60048036038101906102f591906119b2565b61070b565b005b34801561030857600080fd5b506103116108ad565b60405161031e9190611c1e565b60405180910390f35b34801561033357600080fd5b5061034e60048036038101906103499190611a1c565b6108d1565b60405161035b9190611e53565b60405180910390f35b34801561037057600080fd5b5061038b600480360381019061038691906119b2565b610b17565b6040516103989190611a01565b60405180910390f35b3480156103ad57600080fd5b506103c860048036038101906103c39190611a1c565b610b3c565b6040516103d59190611a01565b60405180910390f35b3480156103ea57600080fd5b5061040560048036038101906104009190611bcb565b610b54565b6040516104129190611a01565b60405180910390f35b34801561042757600080fd5b50610442600480360381019061043d9190611a1c565b610f59565b005b34801561045057600080fd5b5061046b600480360381019061046691906119b2565b61149d565b6040516104789190611e75565b60405180910390f35b34801561048d57600080fd5b506104a860048036038101906104a391906120ab565b6114cc565b6040516104b59190611a01565b60405180910390f35b3480156104ca57600080fd5b506104d3611763565b6040516104e0919061216b565b60405180910390f35b600460009054906101000a900473ffffffffffffffffffffffffffffffffffffffff1681565b600060076000848152602001908152602001600020600083815260200190815260200160002054905092915050565b60016020528060005260406000206000915090508060000160009054906101000a900473ffffffffffffffffffffffffffffffffffffffff169080600101549080600301805461058d906121b5565b80601f01602080910402602001604051908101604052809291908181526020018280546105b9906121b5565b80156106065780601f106105db57610100808354040283529160200191610606565b820191906000526020600020905b8154815290600101906020018083116105e957829003601f168201915b5050505050908060040154908060050154908060060160009054906101000a900460ff16908060070154908060080154908060090154905089565b6005602052816000526040600020818154811061065d57600080fd5b90600052602060002001600091509150505481565b60606040518060400160405280600b81526020017f68656c6c6f20776f726c64000000000000000000000000000000000000000000815250905090565b600a60205282600052604060002060205281600052604060002081815481106106d757600080fd5b9060005260206000200160009250925050505481565b60086020528060005260406000206000915090505481565b60025481565b60008054906101000a900473ffffffffffffffffffffffffffffffffffffffff1673ffffffffffffffffffffffffffffffffffffffff163373ffffffffffffffffffffffffffffffffffffffff1614610799576040517f08c379a000000000000000000000000000000000000000000000000000000000815260040161079090612258565b60405180910390fd5b60006001600084815260200190815260200160002090508060060160009054906101000a900460ff16610801576040517f08c379a00000000000000000000000000000000000000000000000000000000081526004016107f8906122c4565b60405180910390fd5b8060020180549050821061084a576040517f08c379a000000000000000000000000000000000000000000000000000000000815260040161084190612330565b60405180910390fd5b60008160060160006101000a81548160ff021916908315150217905550818160070181905550827f3144c3e585abdde813a6057d565b01505f1e22ae54353daaf5116feb02c23d37836040516108a09190611a01565b60405180910390a2505050565b60008054906101000a900473ffffffffffffffffffffffffffffffffffffffff1681565b6108d9611789565b60016000838152602001908152602001600020604051806101400160405290816000820160009054906101000a900473ffffffffffffffffffffffffffffffffffffffff1673ffffffffffffffffffffffffffffffffffffffff1673ffffffffffffffffffffffffffffffffffffffff1681526020016001820154815260200160028201805480602002602001604051908101604052809291908181526020016000905b82821015610a2957838290600052602060002001805461099c906121b5565b80601f01602080910402602001604051908101604052809291908181526020018280546109c8906121b5565b8015610a155780601f106109ea57610100808354040283529160200191610a15565b820191906000526020600020905b8154815290600101906020018083116109f857829003601f168201915b50505050508152602001906001019061097d565b505050508152602001600382018054610a41906121b5565b80601f0160208091040260200160405190810160405280929190818152602001828054610a6d906121b5565b8015610aba5780601f10610a8f57610100808354040283529160200191610aba565b820191906000526020600020905b815481529060010190602001808311610a9d57829003601f168201915b5050505050815260200160048201548152602001600582015481526020016006820160009054906101000a900460ff1615151515815260200160078201548152602001600882015481526020016009820154815250509050919050565b6007602052816000526040600020602052806000526040600020600091509150505481565b60096020528060005260406000206000915090505481565b6000806001600086815260200190815260200160002090508060060160009054906101000a900460ff16610bbd576040517f08c379a0000000000000000000000000000000000000000000000000000000008152600401610bb4906122c4565b60405180910390fd5b80600501544210610c03576040517f08c379a0000000000000000000000000000000000000000000000000000000008152600401610bfa9061239c565b60405180910390fd5b80600201805490508410610c4c576040517f08c379a0000000000000000000000000000000000000000000000000000000008152600401610c4390612408565b60405180910390fd5b8060090154831115610c93576040517f08c379a0000000000000000000000000000000000000000000000000000000008152600401610c8a9061249a565b60405180910390fd5b6000600460009054906101000a900473ffffffffffffffffffffffffffffffffffffffff1673ffffffffffffffffffffffffffffffffffffffff166323b872dd3330876040518463ffffffff1660e01b8152600401610cf4939291906124ba565b6020604051808303816000875af1158015610d13573d6000803e3d6000fd5b505050506040513d601f19601f82011682018060405250810190610d37919061251d565b905080610d79576040517f08c379a0000000000000000000000000000000000000000000000000000000008152600401610d7090612596565b60405180910390fd5b83826008016000828254610d8d91906125e5565b9250508190555083826009016000828254610da89190612619565b92505081905550836007600088815260200190815260200160002060008781526020019081526020016000206000828254610de391906125e5565b925050819055506000600360009054906101000a900473ffffffffffffffffffffffffffffffffffffffff1673ffffffffffffffffffffffffffffffffffffffff1663b90cc7aa338989896040518563ffffffff1660e01b8152600401610e4d949392919061264d565b6020604051808303816000875af1158015610e6c573d6000803e3d6000fd5b505050506040513d601f19601f82011682018060405250810190610e9091906126a7565b9050846008600083815260200190815260200160002081905550866009600083815260200190815260200160002081905550600a600088815260200190815260200160002060008781526020019081526020016000208190806001815401808255809150506001900390600052602060002001600090919091909150557f9ab6b286d532c308925cb0664fe6228b8fe0d5137820cc28dc0ec44f7a3959e38186338a8a604051610f449594939291906126d4565b60405180910390a18093505050509392505050565b600080600360009054906101000a900473ffffffffffffffffffffffffffffffffffffffff1673ffffffffffffffffffffffffffffffffffffffff1663ff99a063846040518263ffffffff1660e01b8152600401610fb79190611a01565b606060405180830381865afa158015610fd4573d6000803e3d6000fd5b505050506040513d601f19601f82011682018060405250810190610ff89190612727565b509150915060006001600084815260200190815260200160002090508060060160009054906101000a900460ff1615611066576040517f08c379a000000000000000000000000000000000000000000000000000000000815260040161105d906127c6565b60405180910390fd5b818160070154146110ac576040517f08c379a00000000000000000000000000000000000000000000000000000000081526004016110a390612832565b60405180910390fd5b60066000848152602001908152602001600020600085815260200190815260200160002060009054906101000a900460ff161561111e576040517f08c379a00000000000000000000000000000000000000000000000000000000081526004016111159061289e565b60405180910390fd5b3373ffffffffffffffffffffffffffffffffffffffff16600360009054906101000a900473ffffffffffffffffffffffffffffffffffffffff1673ffffffffffffffffffffffffffffffffffffffff16636352211e866040518263ffffffff1660e01b81526004016111909190611a01565b602060405180830381865afa1580156111ad573d6000803e3d6000fd5b505050506040513d601f19601f820116820180604052508101906111d191906128ea565b73ffffffffffffffffffffffffffffffffffffffff1614611227576040517f08c379a000000000000000000000000000000000000000000000000000000000815260040161121e90612963565b60405180910390fd5b60006008600086815260200190815260200160002054905060008111611282576040517f08c379a0000000000000000000000000000000000000000000000000000000008152600401611279906129cf565b60405180910390fd5b600160066000868152602001908152602001600020600087815260200190815260200160002060006101000a81548160ff02191690831515021790555060006007600086815260200190815260200160002060008581526020019081526020016000205490506000811161132b576040517f08c379a000000000000000000000000000000000000000000000000000000000815260040161132290612a3b565b60405180910390fd5b60008184600801548461133e9190612a5b565b6113489190612acc565b9050836008015481111561135e57836008015490505b600460009054906101000a900473ffffffffffffffffffffffffffffffffffffffff1673ffffffffffffffffffffffffffffffffffffffff1663a9059cbb33836040518363ffffffff1660e01b81526004016113bb929190612afd565b6020604051808303816000875af11580156113da573d6000803e3d6000fd5b505050506040513d601f19601f820116820180604052508101906113fe919061251d565b61143d576040517f08c379a000000000000000000000000000000000000000000000000000000000815260040161143490612596565b60405180910390fd5b808460080160008282546114519190612619565b92505081905550857f608c8c3c6a3d40f40b96fbee44f9b9aee57a39c2fcb8bb0f59d8892b2d5492a288338460405161148c93929190612b26565b60405180910390a250505050505050565b60066020528160005260406000206020528060005260406000206000915091509054906101000a900460ff1681565b60008060009054906101000a900473ffffffffffffffffffffffffffffffffffffffff1673ffffffffffffffffffffffffffffffffffffffff163373ffffffffffffffffffffffffffffffffffffffff161461155d576040517f08c379a000000000000000000000000000000000000000000000000000000000815260040161155490612258565b60405180910390fd5b6002855110156115a2576040517f08c379a000000000000000000000000000000000000000000000000000000000815260040161159990612ba9565b60405180910390fd5b4282116115e4576040517f08c379a00000000000000000000000000000000000000000000000000000000081526004016115db90612c15565b60405180910390fd5b60008311611627576040517f08c379a000000000000000000000000000000000000000000000000000000000815260040161161e90612ca7565b60405180910390fd5b600060026000815461163890612cc7565b91905081905590506000600160008381526020019081526020016000209050338160000160006101000a81548173ffffffffffffffffffffffffffffffffffffffff021916908373ffffffffffffffffffffffffffffffffffffffff160217905550428160010181905550868160020190805190602001906116bb9291906117f4565b50858160030190816116cd9190612eb1565b5084816004018190555083816005018190555060018160060160006101000a81548160ff0219169083151502179055506000816007018190555060008160080181905550848160090181905550817fc93ef60213ff34b6f125d92d1c28aec0f0ef8a649ca9c4939784197732b45d5988878760405161174e93929190613009565b60405180910390a28192505050949350505050565b600360009054906101000a900473ffffffffffffffffffffffffffffffffffffffff1681565b604051806101400160405280600073ffffffffffffffffffffffffffffffffffffffff16815260200160008152602001606081526020016060815260200160008152602001600081526020016000151581526020016000815260200160008152602001600081525090565b82805482825590600052602060002090810192821561183c579160200282015b8281111561183b57825182908161182b9190612eb1565b5091602001919060010190611814565b5b509050611849919061184d565b5090565b5b8082111561186d57600081816118649190611871565b5060010161184e565b5090565b50805461187d906121b5565b6000825580601f1061188f57506118ae565b601f0160209004906000526020600020908101906118ad91906118b1565b5b50565b5b808211156118ca5760008160009055506001016118b2565b5090565b600073ffffffffffffffffffffffffffffffffffffffff82169050919050565b6000819050919050565b600061191361190e611909846118ce565b6118ee565b6118ce565b9050919050565b6000611925826118f8565b9050919050565b60006119378261191a565b9050919050565b6119478161192c565b82525050565b6000602082019050611962600083018461193e565b92915050565b6000604051905090565b600080fd5b600080fd5b6000819050919050565b61198f8161197c565b811461199a57600080fd5b50565b6000813590506119ac81611986565b92915050565b600080604083850312156119c9576119c8611972565b5b60006119d78582860161199d565b92505060206119e88582860161199d565b9150509250929050565b6119fb8161197c565b82525050565b6000602082019050611a1660008301846119f2565b92915050565b600060208284031215611a3257611a31611972565b5b6000611a408482850161199d565b91505092915050565b6000611a54826118ce565b9050919050565b611a6481611a49565b82525050565b600081519050919050565b600082825260208201905092915050565b60005b83811015611aa4578082015181840152602081019050611a89565b60008484015250505050565b6000601f19601f8301169050919050565b6000611acc82611a6a565b611ad68185611a75565b9350611ae6818560208601611a86565b611aef81611ab0565b840191505092915050565b60008115159050919050565b611b0f81611afa565b82525050565b600061012082019050611b2b600083018c611a5b565b611b38602083018b6119f2565b8181036040830152611b4a818a611ac1565b9050611b5960608301896119f2565b611b6660808301886119f2565b611b7360a0830187611b06565b611b8060c08301866119f2565b611b8d60e08301856119f2565b611b9b6101008301846119f2565b9a9950505050505050505050565b60006020820190508181036000830152611bc38184611ac1565b905092915050565b600080600060608486031215611be457611be3611972565b5b6000611bf28682870161199d565b9350506020611c038682870161199d565b9250506040611c148682870161199d565b9150509250925092565b6000602082019050611c336000830184611a5b565b92915050565b611c4281611a49565b82525050565b611c518161197c565b82525050565b600081519050919050565b600082825260208201905092915050565b6000819050602082019050919050565b600082825260208201905092915050565b6000611c9f82611a6a565b611ca98185611c83565b9350611cb9818560208601611a86565b611cc281611ab0565b840191505092915050565b6000611cd98383611c94565b905092915050565b6000602082019050919050565b6000611cf982611c57565b611d038185611c62565b935083602082028501611d1585611c73565b8060005b85811015611d515784840389528151611d328582611ccd565b9450611d3d83611ce1565b925060208a01995050600181019050611d19565b50829750879550505050505092915050565b611d6c81611afa565b82525050565b600061014083016000830151611d8b6000860182611c39565b506020830151611d9e6020860182611c48565b5060408301518482036040860152611db68282611cee565b91505060608301518482036060860152611dd08282611c94565b9150506080830151611de56080860182611c48565b5060a0830151611df860a0860182611c48565b5060c0830151611e0b60c0860182611d63565b5060e0830151611e1e60e0860182611c48565b50610100830151611e33610100860182611c48565b50610120830151611e48610120860182611c48565b508091505092915050565b60006020820190508181036000830152611e6d8184611d72565b905092915050565b6000602082019050611e8a6000830184611b06565b92915050565b600080fd5b7f4e487b7100000000000000000000000000000000000000000000000000000000600052604160045260246000fd5b611ecd82611ab0565b810181811067ffffffffffffffff82111715611eec57611eeb611e95565b5b80604052505050565b6000611eff611968565b9050611f0b8282611ec4565b919050565b600067ffffffffffffffff821115611f2b57611f2a611e95565b5b602082029050602081019050919050565b600080fd5b600080fd5b600067ffffffffffffffff821115611f6157611f60611e95565b5b611f6a82611ab0565b9050602081019050919050565b82818337600083830152505050565b6000611f99611f9484611f46565b611ef5565b905082815260208101848484011115611fb557611fb4611f41565b5b611fc0848285611f77565b509392505050565b600082601f830112611fdd57611fdc611e90565b5b8135611fed848260208601611f86565b91505092915050565b600061200961200484611f10565b611ef5565b9050808382526020820190506020840283018581111561202c5761202b611f3c565b5b835b8181101561207357803567ffffffffffffffff81111561205157612050611e90565b5b80860161205e8982611fc8565b8552602085019450505060208101905061202e565b5050509392505050565b600082601f83011261209257612091611e90565b5b81356120a2848260208601611ff6565b91505092915050565b600080600080608085870312156120c5576120c4611972565b5b600085013567ffffffffffffffff8111156120e3576120e2611977565b5b6120ef8782880161207d565b945050602085013567ffffffffffffffff8111156121105761210f611977565b5b61211c87828801611fc8565b935050604061212d8782880161199d565b925050606061213e8782880161199d565b91505092959194509250565b60006121558261191a565b9050919050565b6121658161214a565b82525050565b6000602082019050612180600083018461215c565b92915050565b7f4e487b7100000000000000000000000000000000000000000000000000000000600052602260045260246000fd5b600060028204905060018216806121cd57607f821691505b6020821081036121e0576121df612186565b5b50919050565b7f4f6e6c79206f776e65722063616e2063616c6c20746869732066756e6374696f60008201527f6e00000000000000000000000000000000000000000000000000000000000000602082015250565b6000612242602183611a75565b915061224d826121e6565b604082019050919050565b6000602082019050818103600083015261227181612235565b9050919050565b7f4163746976697479206973206e6f74206f70656e000000000000000000000000600082015250565b60006122ae601483611a75565b91506122b982612278565b602082019050919050565b600060208201905081810360008301526122dd816122a1565b9050919050565b7f496e76616c69642077696e6e696e672063686f69636500000000000000000000600082015250565b600061231a601683611a75565b9150612325826122e4565b602082019050919050565b600060208201905081810360008301526123498161230d565b9050919050565b7f41637469766974792068617320656e6465640000000000000000000000000000600082015250565b6000612386601283611a75565b915061239182612350565b602082019050919050565b600060208201905081810360008301526123b581612379565b9050919050565b7f496e76616c69642063686f69636520696e646578000000000000000000000000600082015250565b60006123f2601483611a75565b91506123fd826123bc565b602082019050919050565b60006020820190508181036000830152612421816123e5565b9050919050565b7f4e6f7420656e6f7567682072656d61696e696e6720616d6f756e7420696e207460008201527f686520706f6f6c00000000000000000000000000000000000000000000000000602082015250565b6000612484602783611a75565b915061248f82612428565b604082019050919050565b600060208201905081810360008301526124b381612477565b9050919050565b60006060820190506124cf6000830186611a5b565b6124dc6020830185611a5b565b6124e960408301846119f2565b949350505050565b6124fa81611afa565b811461250557600080fd5b50565b600081519050612517816124f1565b92915050565b60006020828403121561253357612532611972565b5b600061254184828501612508565b91505092915050565b7f5a4a55207472616e73666572206661696c656400000000000000000000000000600082015250565b6000612580601383611a75565b915061258b8261254a565b602082019050919050565b600060208201905081810360008301526125af81612573565b9050919050565b7f4e487b7100000000000000000000000000000000000000000000000000000000600052601160045260246000fd5b60006125f08261197c565b91506125fb8361197c565b9250828201905080821115612613576126126125b6565b5b92915050565b60006126248261197c565b915061262f8361197c565b9250828203905081811115612647576126466125b6565b5b92915050565b60006080820190506126626000830187611a5b565b61266f60208301866119f2565b61267c60408301856119f2565b61268960608301846119f2565b95945050505050565b6000815190506126a181611986565b92915050565b6000602082840312156126bd576126bc611972565b5b60006126cb84828501612692565b91505092915050565b600060a0820190506126e960008301886119f2565b6126f660208301876119f2565b6127036040830186611a5b565b61271060608301856119f2565b61271d60808301846119f2565b9695505050505050565b6000806000606084860312156127405761273f611972565b5b600061274e86828701612692565b935050602061275f86828701612692565b925050604061277086828701612692565b9150509250925092565b7f4163746976697479206973207374696c6c206f70656e00000000000000000000600082015250565b60006127b0601683611a75565b91506127bb8261277a565b602082019050919050565b600060208201905081810360008301526127df816127a3565b9050919050565b7f54686973207469636b657420646964206e6f742077696e000000000000000000600082015250565b600061281c601783611a75565b9150612827826127e6565b602082019050919050565b6000602082019050818103600083015261284b8161280f565b9050919050565b7f5072697a6520616c726561647920636c61696d65640000000000000000000000600082015250565b6000612888601583611a75565b915061289382612852565b602082019050919050565b600060208201905081810360008301526128b78161287b565b9050919050565b6128c781611a49565b81146128d257600080fd5b50565b6000815190506128e4816128be565b92915050565b600060208284031215612900576128ff611972565b5b600061290e848285016128d5565b91505092915050565b7f4e6f7420746865206f776e6572206f6620746865207469636b65740000000000600082015250565b600061294d601b83611a75565b915061295882612917565b602082019050919050565b6000602082019050818103600083015261297c81612940565b9050919050565b7f496e76616c69642062657420616d6f756e740000000000000000000000000000600082015250565b60006129b9601283611a75565b91506129c482612983565b602082019050919050565b600060208201905081810360008301526129e8816129ac565b9050919050565b7f4e6f2062657473206f6e2077696e6e696e672063686f69636500000000000000600082015250565b6000612a25601983611a75565b9150612a30826129ef565b602082019050919050565b60006020820190508181036000830152612a5481612a18565b9050919050565b6000612a668261197c565b9150612a718361197c565b9250828202612a7f8161197c565b91508282048414831517612a9657612a956125b6565b5b5092915050565b7f4e487b7100000000000000000000000000000000000000000000000000000000600052601260045260246000fd5b6000612ad78261197c565b9150612ae28361197c565b925082612af257612af1612a9d565b5b828204905092915050565b6000604082019050612b126000830185611a5b565b612b1f60208301846119f2565b9392505050565b6000606082019050612b3b60008301866119f2565b612b486020830185611a5b565b612b5560408301846119f2565b949350505050565b7f4174206c6561737420322063686f696365732072657175697265640000000000600082015250565b6000612b93601b83611a75565b9150612b9e82612b5d565b602082019050919050565b60006020820190508181036000830152612bc281612b86565b9050919050565b7f446561646c696e65206d75737420626520696e20746865206675747572650000600082015250565b6000612bff601e83611a75565b9150612c0a82612bc9565b602082019050919050565b60006020820190508181036000830152612c2e81612bf2565b9050919050565b7f5072697a6520616d6f756e74206d75737420626520677265617465722074686160008201527f6e20300000000000000000000000000000000000000000000000000000000000602082015250565b6000612c91602383611a75565b9150612c9c82612c35565b604082019050919050565b60006020820190508181036000830152612cc081612c84565b9050919050565b6000612cd28261197c565b91507fffffffffffffffffffffffffffffffffffffffffffffffffffffffffffffffff8203612d0457612d036125b6565b5b600182019050919050565b60008190508160005260206000209050919050565b60006020601f8301049050919050565b600082821b905092915050565b600060088302612d717fffffffffffffffffffffffffffffffffffffffffffffffffffffffffffffffff82612d34565b612d7b8683612d34565b95508019841693508086168417925050509392505050565b6000612dae612da9612da48461197c565b6118ee565b61197c565b9050919050565b6000819050919050565b612dc883612d93565b612ddc612dd482612db5565b848454612d41565b825550505050565b600090565b612df1612de4565b612dfc818484612dbf565b505050565b5b81811015612e2057612e15600082612de9565b600181019050612e02565b5050565b601f821115612e6557612e3681612d0f565b612e3f84612d24565b81016020851015612e4e578190505b612e62612e5a85612d24565b830182612e01565b50505b505050565b600082821c905092915050565b6000612e8860001984600802612e6a565b1980831691505092915050565b6000612ea18383612e77565b9150826002028217905092915050565b612eba82611a6a565b67ffffffffffffffff811115612ed357612ed2611e95565b5b612edd82546121b5565b612ee8828285612e24565b600060209050601f831160018114612f1b5760008415612f09578287015190505b612f138582612e95565b865550612f7b565b601f198416612f2986612d0f565b60005b82811015612f5157848901518255600182019150602085019450602081019050612f2c565b86831015612f6e5784890151612f6a601f891682612e77565b8355505b6001600288020188555050505b505050505050565b600082825260208201905092915050565b6000612f9f82611c57565b612fa98185612f83565b935083602082028501612fbb85611c73565b8060005b85811015612ff75784840389528151612fd88582611ccd565b9450612fe383611ce1565b925060208a01995050600181019050612fbf565b50829750879550505050505092915050565b600060608201905081810360008301526130238186612f94565b905061303260208301856119f2565b61303f60408301846119f2565b94935050505056fea2646970667358221220fe9a4fc1ac6bb461d491d99a0aebcce38bcea5b373a610371c0048a905a80fca64736f6c63430008140033",
  "linkReferences": {},
  "deployedLinkReferences": {}
}