{
  "_format": "hh-sol-artifact-1",
  "contractName": "EasyBet",
  "sourceName": "contracts/EasyBet.sol",
  "abi": [
    {
      "inputs": [
        {
          "internalType": "address",
          "name": "_lotteryNFTAddress",
          "type": "address"
        }
      ],
      "stateMutability": "nonpayable",
      "type": "constructor"
    },
    {
      "anonymous": false,
      "inputs": [
        {
          "indexed": true,
          "internalType": "uint256",
          "name": "activityId",
          "type": "uint256"
        },
        {
          "indexed": false,
          "internalType": "uint256",
          "name": "winningChoice",
          "type": "uint256"
        }
      ],
      "name": "ActivityClosed",
      "type": "event"
    },
    {
      "anonymous": false,
      "inputs": [
        {
          "indexed": true,
          "internalType": "uint256",
          "name": "activityId",
          "type": "uint256"
        },
        {
          "indexed": false,
          "internalType": "string[]",
          "name": "choices",
          "type": "string[]"
        },
        {
          "indexed": false,
          "internalType": "uint256",
          "name": "prizeAmount",
          "type": "uint256"
        },
        {
          "indexed": false,
          "internalType": "uint256",
          "name": "deadline",
          "type": "uint256"
        }
      ],
      "name": "ActivityCreated",
      "type": "event"
    },
    {
      "anonymous": false,
      "inputs": [
        {
          "indexed": false,
          "internalType": "uint256",
          "name": "tokenId",
          "type": "uint256"
        },
        {
          "indexed": false,
          "internalType": "uint256",
          "name": "price",
          "type": "uint256"
        },
        {
          "indexed": false,
          "internalType": "address",
          "name": "owner",
          "type": "address"
        },
        {
          "indexed": false,
          "internalType": "uint256",
          "name": "activityId",
          "type": "uint256"
        },
        {
          "indexed": false,
          "internalType": "uint256",
          "name": "choiceIndex",
          "type": "uint256"
        }
      ],
      "name": "BetPlaced",
      "type": "event"
    },
    {
      "anonymous": false,
      "inputs": [
        {
          "indexed": true,
          "internalType": "uint256",
          "name": "activityId",
          "type": "uint256"
        },
        {
          "indexed": false,
          "internalType": "uint256",
          "name": "tokenId",
          "type": "uint256"
        },
        {
          "indexed": false,
          "internalType": "address",
          "name": "winner",
          "type": "address"
        },
        {
          "indexed": false,
          "internalType": "uint256",
          "name": "amount",
          "type": "uint256"
        }
      ],
      "name": "PrizeClaimed",
      "type": "event"
    },
    {
      "inputs": [
        {
          "internalType": "uint256",
          "name": "",
          "type": "uint256"
        }
      ],
      "name": "activities",
      "outputs": [
        {
          "internalType": "address",
          "name": "owner",
          "type": "address"
        },
        {
          "internalType": "uint256",
          "name": "listedTimestamp",
          "type": "uint256"
        },
        {
          "internalType": "uint256",
          "name": "prizeAmount",
          "type": "uint256"
        },
        {
          "internalType": "uint256",
          "name": "deadline",
          "type": "uint256"
        },
        {
          "internalType": "bool",
          "name": "isOpen",
          "type": "bool"
        },
        {
          "internalType": "uint256",
          "name": "winningChoice",
          "type": "uint256"
        },
        {
          "internalType": "uint256",
          "name": "totalPool",
          "type": "uint256"
        },
        {
          "internalType": "uint256",
          "name": "remainingAmount",
          "type": "uint256"
        }
      ],
      "stateMutability": "view",
      "type": "function"
    },
    {
      "inputs": [],
      "name": "activityCounter",
      "outputs": [
        {
          "internalType": "uint256",
          "name": "",
          "type": "uint256"
        }
      ],
      "stateMutability": "view",
      "type": "function"
    },
    {
      "inputs": [
        {
          "internalType": "uint256",
          "name": "activityId",
          "type": "uint256"
        },
        {
          "internalType": "uint256",
          "name": "choiceIndex",
          "type": "uint256"
        },
        {
          "internalType": "uint256",
          "name": "price",
          "type": "uint256"
        }
      ],
      "name": "buyTicket",
      "outputs": [
        {
          "internalType": "uint256",
          "name": "",
          "type": "uint256"
        }
      ],
      "stateMutability": "payable",
      "type": "function"
    },
    {
      "inputs": [
        {
          "internalType": "uint256",
          "name": "",
          "type": "uint256"
        },
        {
          "internalType": "uint256",
          "name": "",
          "type": "uint256"
        }
      ],
      "name": "choiceTotalBets",
      "outputs": [
        {
          "internalType": "uint256",
          "name": "",
          "type": "uint256"
        }
      ],
      "stateMutability": "view",
      "type": "function"
    },
    {
      "inputs": [
        {
          "internalType": "uint256",
          "name": "activityId",
          "type": "uint256"
        },
        {
          "internalType": "uint256",
          "name": "tokenId",
          "type": "uint256"
        },
        {
          "internalType": "uint256",
          "name": "betAmount",
          "type": "uint256"
        }
      ],
      "name": "claimPrize",
      "outputs": [],
      "stateMutability": "nonpayable",
      "type": "function"
    },
    {
      "inputs": [
        {
          "internalType": "uint256",
          "name": "activityId",
          "type": "uint256"
        },
        {
          "internalType": "uint256",
          "name": "winningChoice",
          "type": "uint256"
        }
      ],
      "name": "closeActivity",
      "outputs": [],
      "stateMutability": "nonpayable",
      "type": "function"
    },
    {
      "inputs": [
        {
          "internalType": "string[]",
          "name": "choices",
          "type": "string[]"
        },
        {
          "internalType": "uint256",
          "name": "prizeAmount",
          "type": "uint256"
        },
        {
          "internalType": "uint256",
          "name": "deadline",
          "type": "uint256"
        }
      ],
      "name": "createActivity",
      "outputs": [
        {
          "internalType": "uint256",
          "name": "",
          "type": "uint256"
        }
      ],
      "stateMutability": "nonpayable",
      "type": "function"
    },
    {
      "inputs": [
        {
          "internalType": "uint256",
          "name": "activityId",
          "type": "uint256"
        }
      ],
      "name": "getActivity",
      "outputs": [
        {
          "components": [
            {
              "internalType": "address",
              "name": "owner",
              "type": "address"
            },
            {
              "internalType": "uint256",
              "name": "listedTimestamp",
              "type": "uint256"
            },
            {
              "internalType": "string[]",
              "name": "choices",
              "type": "string[]"
            },
            {
              "internalType": "uint256",
              "name": "prizeAmount",
              "type": "uint256"
            },
            {
              "internalType": "uint256",
              "name": "deadline",
              "type": "uint256"
            },
            {
              "internalType": "bool",
              "name": "isOpen",
              "type": "bool"
            },
            {
              "internalType": "uint256",
              "name": "winningChoice",
              "type": "uint256"
            },
            {
              "internalType": "uint256",
              "name": "totalPool",
              "type": "uint256"
            },
            {
              "internalType": "uint256",
              "name": "remainingAmount",
              "type": "uint256"
            }
          ],
          "internalType": "struct EasyBet.Activity",
          "name": "",
          "type": "tuple"
        }
      ],
      "stateMutability": "view",
      "type": "function"
    },
    {
      "inputs": [
        {
          "internalType": "uint256",
          "name": "activityId",
          "type": "uint256"
        },
        {
          "internalType": "uint256",
          "name": "choiceIndex",
          "type": "uint256"
        }
      ],
      "name": "getChoiceTotalBets",
      "outputs": [
        {
          "internalType": "uint256",
          "name": "",
          "type": "uint256"
        }
      ],
      "stateMutability": "view",
      "type": "function"
    },
    {
      "inputs": [],
      "name": "helloworld",
      "outputs": [
        {
          "internalType": "string",
          "name": "",
          "type": "string"
        }
      ],
      "stateMutability": "pure",
      "type": "function"
    },
    {
      "inputs": [],
      "name": "lotteryNFT",
      "outputs": [
        {
          "internalType": "contract ERC721",
          "name": "",
          "type": "address"
        }
      ],
      "stateMutability": "view",
      "type": "function"
    },
    {
      "inputs": [],
      "name": "owner",
      "outputs": [
        {
          "internalType": "address",
          "name": "",
          "type": "address"
        }
      ],
      "stateMutability": "view",
      "type": "function"
    },
    {
      "inputs": [
        {
          "internalType": "uint256",
          "name": "",
          "type": "uint256"
        },
        {
          "internalType": "uint256",
          "name": "",
          "type": "uint256"
        }
      ],
      "name": "prizeClaimed",
      "outputs": [
        {
          "internalType": "bool",
          "name": "",
          "type": "bool"
        }
      ],
      "stateMutability": "view",
      "type": "function"
    },
    {
      "inputs": [
        {
          "internalType": "uint256",
          "name": "",
          "type": "uint256"
        },
        {
          "internalType": "uint256",
          "name": "",
          "type": "uint256"
        }
      ],
      "name": "winningTickets",
      "outputs": [
        {
          "internalType": "uint256",
          "name": "",
          "type": "uint256"
        }
      ],
      "stateMutability": "view",
      "type": "function"
    },
    {
      "stateMutability": "payable",
      "type": "receive"
    }
  ],
  "bytecode": "0x60806040523480156200001157600080fd5b506040516200286f3803806200286f833981810160405281019062000037919062000131565b336000806101000a81548173ffffffffffffffffffffffffffffffffffffffff021916908373ffffffffffffffffffffffffffffffffffffffff160217905550600060028190555080600360006101000a81548173ffffffffffffffffffffffffffffffffffffffff021916908373ffffffffffffffffffffffffffffffffffffffff1602179055505062000163565b600080fd5b600073ffffffffffffffffffffffffffffffffffffffff82169050919050565b6000620000f982620000cc565b9050919050565b6200010b81620000ec565b81146200011757600080fd5b50565b6000815190506200012b8162000100565b92915050565b6000602082840312156200014a5762000149620000c7565b5b60006200015a848285016200011a565b91505092915050565b6126fc80620001736000396000f3fe6080604052600436106100e15760003560e01c8063922635d81161007f578063c4c6710d11610059578063c4c6710d1461030c578063db2c0fd11461033c578063e8adfbc714610379578063f6c94230146103a4576100e8565b8063922635d814610255578063b1d4fcbc14610292578063b39af364146102cf576100e8565b80632f2f4859116100bb5780632f2f4859146101ab5780637d70de01146101d6578063871b924c146102015780638da5cb5b1461022a576100e8565b80630425e345146100ed5780630d1657e81461012a5780631dd3a7ad1461016e576100e8565b366100e857005b600080fd5b3480156100f957600080fd5b50610114600480360381019061010f919061121c565b6103cd565b604051610121919061126b565b60405180910390f35b34801561013657600080fd5b50610151600480360381019061014c9190611286565b6103fc565b60405161016598979695949392919061130f565b60405180910390f35b34801561017a57600080fd5b506101956004803603810190610190919061121c565b610471565b6040516101a2919061126b565b60405180910390f35b3480156101b757600080fd5b506101c06104a2565b6040516101cd919061141d565b60405180910390f35b3480156101e257600080fd5b506101eb6104df565b6040516101f8919061126b565b60405180910390f35b34801561020d57600080fd5b506102286004803603810190610223919061121c565b6104e5565b005b34801561023657600080fd5b5061023f610687565b60405161024c919061143f565b60405180910390f35b34801561026157600080fd5b5061027c60048036038101906102779190611286565b6106ab565b6040516102899190611658565b60405180910390f35b34801561029e57600080fd5b506102b960048036038101906102b4919061121c565b61085f565b6040516102c6919061126b565b60405180910390f35b3480156102db57600080fd5b506102f660048036038101906102f19190611895565b610884565b604051610303919061126b565b60405180910390f35b61032660048036038101906103219190611904565b610b08565b604051610333919061126b565b60405180910390f35b34801561034857600080fd5b50610363600480360381019061035e919061121c565b610d79565b6040516103709190611957565b60405180910390f35b34801561038557600080fd5b5061038e610da8565b60405161039b91906119d1565b60405180910390f35b3480156103b057600080fd5b506103cb60048036038101906103c69190611904565b610dce565b005b600060066000848152602001908152602001600020600083815260200190815260200160002054905092915050565b60016020528060005260406000206000915090508060000160009054906101000a900473ffffffffffffffffffffffffffffffffffffffff16908060010154908060030154908060040154908060050160009054906101000a900460ff16908060060154908060070154908060080154905088565b6004602052816000526040600020818154811061048d57600080fd5b90600052602060002001600091509150505481565b60606040518060400160405280600b81526020017f68656c6c6f20776f726c64000000000000000000000000000000000000000000815250905090565b60025481565b60008054906101000a900473ffffffffffffffffffffffffffffffffffffffff1673ffffffffffffffffffffffffffffffffffffffff163373ffffffffffffffffffffffffffffffffffffffff1614610573576040517f08c379a000000000000000000000000000000000000000000000000000000000815260040161056a90611a5e565b60405180910390fd5b60006001600084815260200190815260200160002090508060050160009054906101000a900460ff166105db576040517f08c379a00000000000000000000000000000000000000000000000000000000081526004016105d290611aca565b60405180910390fd5b80600201805490508210610624576040517f08c379a000000000000000000000000000000000000000000000000000000000815260040161061b90611b36565b60405180910390fd5b60008160050160006101000a81548160ff021916908315150217905550818160060181905550827f3144c3e585abdde813a6057d565b01505f1e22ae54353daaf5116feb02c23d378360405161067a919061126b565b60405180910390a2505050565b60008054906101000a900473ffffffffffffffffffffffffffffffffffffffff1681565b6106b3611094565b60016000838152602001908152602001600020604051806101200160405290816000820160009054906101000a900473ffffffffffffffffffffffffffffffffffffffff1673ffffffffffffffffffffffffffffffffffffffff1673ffffffffffffffffffffffffffffffffffffffff1681526020016001820154815260200160028201805480602002602001604051908101604052809291908181526020016000905b8282101561080357838290600052602060002001805461077690611b85565b80601f01602080910402602001604051908101604052809291908181526020018280546107a290611b85565b80156107ef5780601f106107c4576101008083540402835291602001916107ef565b820191906000526020600020905b8154815290600101906020018083116107d257829003601f168201915b505050505081526020019060010190610757565b50505050815260200160038201548152602001600482015481526020016005820160009054906101000a900460ff1615151515815260200160068201548152602001600782015481526020016008820154815250509050919050565b6006602052816000526040600020602052806000526040600020600091509150505481565b60008060009054906101000a900473ffffffffffffffffffffffffffffffffffffffff1673ffffffffffffffffffffffffffffffffffffffff163373ffffffffffffffffffffffffffffffffffffffff1614610915576040517f08c379a000000000000000000000000000000000000000000000000000000000815260040161090c90611a5e565b60405180910390fd5b60028451101561095a576040517f08c379a000000000000000000000000000000000000000000000000000000000815260040161095190611c02565b60405180910390fd5b42821161099c576040517f08c379a000000000000000000000000000000000000000000000000000000000815260040161099390611c6e565b60405180910390fd5b600083116109df576040517f08c379a00000000000000000000000000000000000000000000000000000000081526004016109d690611d00565b60405180910390fd5b60006002600081546109f090611d4f565b91905081905590506000600160008381526020019081526020016000209050338160000160006101000a81548173ffffffffffffffffffffffffffffffffffffffff021916908373ffffffffffffffffffffffffffffffffffffffff16021790555042816001018190555085816002019080519060200190610a739291906110f8565b5084816003018190555083816004018190555060018160050160006101000a81548160ff0219169083151502179055506000816006018190555060008160070181905550848160080181905550817fc93ef60213ff34b6f125d92d1c28aec0f0ef8a649ca9c4939784197732b45d59878787604051610af493929190611e1d565b60405180910390a281925050509392505050565b6000806001600086815260200190815260200160002090508060050160009054906101000a900460ff16610b71576040517f08c379a0000000000000000000000000000000000000000000000000000000008152600401610b6890611aca565b60405180910390fd5b80600401544210610bb7576040517f08c379a0000000000000000000000000000000000000000000000000000000008152600401610bae90611ea7565b60405180910390fd5b80600201805490508410610c00576040517f08c379a0000000000000000000000000000000000000000000000000000000008152600401610bf790611f13565b60405180910390fd5b823414610c42576040517f08c379a0000000000000000000000000000000000000000000000000000000008152600401610c3990611f7f565b60405180910390fd5b8060080154831115610c89576040517f08c379a0000000000000000000000000000000000000000000000000000000008152600401610c8090612011565b60405180910390fd5b82816007016000828254610c9d9190612031565b9250508190555082816008016000828254610cb89190612065565b92505081905550826006600087815260200190815260200160002060008681526020019081526020016000206000828254610cf39190612031565b92505081905550600085853342604051602001610d139493929190612102565b6040516020818303038152906040528051906020012060001c90507f9ab6b286d532c308925cb0664fe6228b8fe0d5137820cc28dc0ec44f7a3959e38185338989604051610d65959493929190612150565b60405180910390a180925050509392505050565b60056020528160005260406000206020528060005260406000206000915091509054906101000a900460ff1681565b600360009054906101000a900473ffffffffffffffffffffffffffffffffffffffff1681565b60006001600085815260200190815260200160002090508060050160009054906101000a900460ff1615610e37576040517f08c379a0000000000000000000000000000000000000000000000000000000008152600401610e2e906121ef565b60405180910390fd5b60056000858152602001908152602001600020600084815260200190815260200160002060009054906101000a900460ff1615610ea9576040517f08c379a0000000000000000000000000000000000000000000000000000000008152600401610ea09061225b565b60405180910390fd5b60008211610eec576040517f08c379a0000000000000000000000000000000000000000000000000000000008152600401610ee3906122c7565b60405180910390fd5b6006600085815260200190815260200160002060008260060154815260200190815260200160002054821115610f57576040517f08c379a0000000000000000000000000000000000000000000000000000000008152600401610f4e90612359565b60405180910390fd5b600160056000868152602001908152602001600020600085815260200190815260200160002060006101000a81548160ff02191690831515021790555060006006600086815260200190815260200160002060008360060154815260200190815260200160002054826007015484610fcf9190612379565b610fd991906123ea565b90508160070154811115610fef57816007015490505b3373ffffffffffffffffffffffffffffffffffffffff166108fc829081150290604051600060405180830381858888f19350505050158015611035573d6000803e3d6000fd5b508082600701600082825461104a9190612065565b92505081905550847f608c8c3c6a3d40f40b96fbee44f9b9aee57a39c2fcb8bb0f59d8892b2d5492a28533846040516110859392919061241b565b60405180910390a25050505050565b604051806101200160405280600073ffffffffffffffffffffffffffffffffffffffff168152602001600081526020016060815260200160008152602001600081526020016000151581526020016000815260200160008152602001600081525090565b828054828255906000526020600020908101928215611140579160200282015b8281111561113f57825182908161112f91906125f4565b5091602001919060010190611118565b5b50905061114d9190611151565b5090565b5b8082111561117157600081816111689190611175565b50600101611152565b5090565b50805461118190611b85565b6000825580601f1061119357506111b2565b601f0160209004906000526020600020908101906111b191906111b5565b5b50565b5b808211156111ce5760008160009055506001016111b6565b5090565b6000604051905090565b600080fd5b600080fd5b6000819050919050565b6111f9816111e6565b811461120457600080fd5b50565b600081359050611216816111f0565b92915050565b60008060408385031215611233576112326111dc565b5b600061124185828601611207565b925050602061125285828601611207565b9150509250929050565b611265816111e6565b82525050565b6000602082019050611280600083018461125c565b92915050565b60006020828403121561129c5761129b6111dc565b5b60006112aa84828501611207565b91505092915050565b600073ffffffffffffffffffffffffffffffffffffffff82169050919050565b60006112de826112b3565b9050919050565b6112ee816112d3565b82525050565b60008115159050919050565b611309816112f4565b82525050565b600061010082019050611325600083018b6112e5565b611332602083018a61125c565b61133f604083018961125c565b61134c606083018861125c565b6113596080830187611300565b61136660a083018661125c565b61137360c083018561125c565b61138060e083018461125c565b9998505050505050505050565b600081519050919050565b600082825260208201905092915050565b60005b838110156113c75780820151818401526020810190506113ac565b60008484015250505050565b6000601f19601f8301169050919050565b60006113ef8261138d565b6113f98185611398565b93506114098185602086016113a9565b611412816113d3565b840191505092915050565b6000602082019050818103600083015261143781846113e4565b905092915050565b600060208201905061145460008301846112e5565b92915050565b611463816112d3565b82525050565b611472816111e6565b82525050565b600081519050919050565b600082825260208201905092915050565b6000819050602082019050919050565b600082825260208201905092915050565b60006114c08261138d565b6114ca81856114a4565b93506114da8185602086016113a9565b6114e3816113d3565b840191505092915050565b60006114fa83836114b5565b905092915050565b6000602082019050919050565b600061151a82611478565b6115248185611483565b93508360208202850161153685611494565b8060005b85811015611572578484038952815161155385826114ee565b945061155e83611502565b925060208a0199505060018101905061153a565b50829750879550505050505092915050565b61158d816112f4565b82525050565b6000610120830160008301516115ac600086018261145a565b5060208301516115bf6020860182611469565b50604083015184820360408601526115d7828261150f565b91505060608301516115ec6060860182611469565b5060808301516115ff6080860182611469565b5060a083015161161260a0860182611584565b5060c083015161162560c0860182611469565b5060e083015161163860e0860182611469565b5061010083015161164d610100860182611469565b508091505092915050565b600060208201905081810360008301526116728184611593565b905092915050565b600080fd5b7f4e487b7100000000000000000000000000000000000000000000000000000000600052604160045260246000fd5b6116b7826113d3565b810181811067ffffffffffffffff821117156116d6576116d561167f565b5b80604052505050565b60006116e96111d2565b90506116f582826116ae565b919050565b600067ffffffffffffffff8211156117155761171461167f565b5b602082029050602081019050919050565b600080fd5b600080fd5b600067ffffffffffffffff82111561174b5761174a61167f565b5b611754826113d3565b9050602081019050919050565b82818337600083830152505050565b600061178361177e84611730565b6116df565b90508281526020810184848401111561179f5761179e61172b565b5b6117aa848285611761565b509392505050565b600082601f8301126117c7576117c661167a565b5b81356117d7848260208601611770565b91505092915050565b60006117f36117ee846116fa565b6116df565b9050808382526020820190506020840283018581111561181657611815611726565b5b835b8181101561185d57803567ffffffffffffffff81111561183b5761183a61167a565b5b80860161184889826117b2565b85526020850194505050602081019050611818565b5050509392505050565b600082601f83011261187c5761187b61167a565b5b813561188c8482602086016117e0565b91505092915050565b6000806000606084860312156118ae576118ad6111dc565b5b600084013567ffffffffffffffff8111156118cc576118cb6111e1565b5b6118d886828701611867565b93505060206118e986828701611207565b92505060406118fa86828701611207565b9150509250925092565b60008060006060848603121561191d5761191c6111dc565b5b600061192b86828701611207565b935050602061193c86828701611207565b925050604061194d86828701611207565b9150509250925092565b600060208201905061196c6000830184611300565b92915050565b6000819050919050565b600061199761199261198d846112b3565b611972565b6112b3565b9050919050565b60006119a98261197c565b9050919050565b60006119bb8261199e565b9050919050565b6119cb816119b0565b82525050565b60006020820190506119e660008301846119c2565b92915050565b7f4f6e6c79206f776e65722063616e2063616c6c20746869732066756e6374696f60008201527f6e00000000000000000000000000000000000000000000000000000000000000602082015250565b6000611a48602183611398565b9150611a53826119ec565b604082019050919050565b60006020820190508181036000830152611a7781611a3b565b9050919050565b7f4163746976697479206973206e6f74206f70656e000000000000000000000000600082015250565b6000611ab4601483611398565b9150611abf82611a7e565b602082019050919050565b60006020820190508181036000830152611ae381611aa7565b9050919050565b7f496e76616c69642077696e6e696e672063686f69636500000000000000000000600082015250565b6000611b20601683611398565b9150611b2b82611aea565b602082019050919050565b60006020820190508181036000830152611b4f81611b13565b9050919050565b7f4e487b7100000000000000000000000000000000000000000000000000000000600052602260045260246000fd5b60006002820490506001821680611b9d57607f821691505b602082108103611bb057611baf611b56565b5b50919050565b7f4174206c6561737420322063686f696365732072657175697265640000000000600082015250565b6000611bec601b83611398565b9150611bf782611bb6565b602082019050919050565b60006020820190508181036000830152611c1b81611bdf565b9050919050565b7f446561646c696e65206d75737420626520696e20746865206675747572650000600082015250565b6000611c58601e83611398565b9150611c6382611c22565b602082019050919050565b60006020820190508181036000830152611c8781611c4b565b9050919050565b7f5072697a6520616d6f756e74206d75737420626520677265617465722074686160008201527f6e20300000000000000000000000000000000000000000000000000000000000602082015250565b6000611cea602383611398565b9150611cf582611c8e565b604082019050919050565b60006020820190508181036000830152611d1981611cdd565b9050919050565b7f4e487b7100000000000000000000000000000000000000000000000000000000600052601160045260246000fd5b6000611d5a826111e6565b91507fffffffffffffffffffffffffffffffffffffffffffffffffffffffffffffffff8203611d8c57611d8b611d20565b5b600182019050919050565b600082825260208201905092915050565b6000611db382611478565b611dbd8185611d97565b935083602082028501611dcf85611494565b8060005b85811015611e0b5784840389528151611dec85826114ee565b9450611df783611502565b925060208a01995050600181019050611dd3565b50829750879550505050505092915050565b60006060820190508181036000830152611e378186611da8565b9050611e46602083018561125c565b611e53604083018461125c565b949350505050565b7f41637469766974792068617320656e6465640000000000000000000000000000600082015250565b6000611e91601283611398565b9150611e9c82611e5b565b602082019050919050565b60006020820190508181036000830152611ec081611e84565b9050919050565b7f496e76616c69642063686f69636520696e646578000000000000000000000000600082015250565b6000611efd601483611398565b9150611f0882611ec7565b602082019050919050565b60006020820190508181036000830152611f2c81611ef0565b9050919050565b7f496e636f7272656374207061796d656e7420616d6f756e740000000000000000600082015250565b6000611f69601883611398565b9150611f7482611f33565b602082019050919050565b60006020820190508181036000830152611f9881611f5c565b9050919050565b7f4e6f7420656e6f7567682072656d61696e696e6720616d6f756e7420696e207460008201527f686520706f6f6c00000000000000000000000000000000000000000000000000602082015250565b6000611ffb602783611398565b915061200682611f9f565b604082019050919050565b6000602082019050818103600083015261202a81611fee565b9050919050565b600061203c826111e6565b9150612047836111e6565b925082820190508082111561205f5761205e611d20565b5b92915050565b6000612070826111e6565b915061207b836111e6565b925082820390508181111561209357612092611d20565b5b92915050565b6000819050919050565b6120b46120af826111e6565b612099565b82525050565b60008160601b9050919050565b60006120d2826120ba565b9050919050565b60006120e4826120c7565b9050919050565b6120fc6120f7826112d3565b6120d9565b82525050565b600061210e82876120a3565b60208201915061211e82866120a3565b60208201915061212e82856120eb565b60148201915061213e82846120a3565b60208201915081905095945050505050565b600060a082019050612165600083018861125c565b612172602083018761125c565b61217f60408301866112e5565b61218c606083018561125c565b612199608083018461125c565b9695505050505050565b7f4163746976697479206973207374696c6c206f70656e00000000000000000000600082015250565b60006121d9601683611398565b91506121e4826121a3565b602082019050919050565b60006020820190508181036000830152612208816121cc565b9050919050565b7f5072697a6520616c726561647920636c61696d65640000000000000000000000600082015250565b6000612245601583611398565b91506122508261220f565b602082019050919050565b6000602082019050818103600083015261227481612238565b9050919050565b7f496e76616c69642062657420616d6f756e740000000000000000000000000000600082015250565b60006122b1601283611398565b91506122bc8261227b565b602082019050919050565b600060208201905081810360008301526122e0816122a4565b9050919050565b7f496e76616c69642062657420616d6f756e7420666f722077696e6e696e67206360008201527f686f696365000000000000000000000000000000000000000000000000000000602082015250565b6000612343602583611398565b915061234e826122e7565b604082019050919050565b6000602082019050818103600083015261237281612336565b9050919050565b6000612384826111e6565b915061238f836111e6565b925082820261239d816111e6565b915082820484148315176123b4576123b3611d20565b5b5092915050565b7f4e487b7100000000000000000000000000000000000000000000000000000000600052601260045260246000fd5b60006123f5826111e6565b9150612400836111e6565b9250826124105761240f6123bb565b5b828204905092915050565b6000606082019050612430600083018661125c565b61243d60208301856112e5565b61244a604083018461125c565b949350505050565b60008190508160005260206000209050919050565b60006020601f8301049050919050565b600082821b905092915050565b6000600883026124b47fffffffffffffffffffffffffffffffffffffffffffffffffffffffffffffffff82612477565b6124be8683612477565b95508019841693508086168417925050509392505050565b60006124f16124ec6124e7846111e6565b611972565b6111e6565b9050919050565b6000819050919050565b61250b836124d6565b61251f612517826124f8565b848454612484565b825550505050565b600090565b612534612527565b61253f818484612502565b505050565b5b818110156125635761255860008261252c565b600181019050612545565b5050565b601f8211156125a85761257981612452565b61258284612467565b81016020851015612591578190505b6125a561259d85612467565b830182612544565b50505b505050565b600082821c905092915050565b60006125cb600019846008026125ad565b1980831691505092915050565b60006125e483836125ba565b9150826002028217905092915050565b6125fd8261138d565b67ffffffffffffffff8111156126165761261561167f565b5b6126208254611b85565b61262b828285612567565b600060209050601f83116001811461265e576000841561264c578287015190505b61265685826125d8565b8655506126be565b601f19841661266c86612452565b60005b828110156126945784890151825560018201915060208501945060208101905061266f565b868310156126b157848901516126ad601f8916826125ba565b8355505b6001600288020188555050505b50505050505056fea26469706673582212201651ae09737f7844e61ffb7caeaa91fe5f26a6e7e9a12fb7348a71d32c2f86b464736f6c63430008140033",
  "linkReferences": {},
  "deployedLinkReferences": {}
}