{
  "_format": "hh-sol-artifact-1",
  "contractName": "EasyBet",
  "sourceName": "contracts/EasyBet.sol",
  "abi": [
    {
      "inputs": [
        {
          "internalType": "address",
          "name": "_lotteryNFTAddress",
          "type": "address"
        },
        {
          "internalType": "address",
          "name": "_zjuTokenAddress",
          "type": "address"
        }
      ],
      "stateMutability": "nonpayable",
      "type": "constructor"
    },
    {
      "anonymous": false,
      "inputs": [
        {
          "indexed": true,
          "internalType": "uint256",
          "name": "activityId",
          "type": "uint256"
        },
        {
          "indexed": false,
          "internalType": "uint256",
          "name": "winningChoice",
          "type": "uint256"
        }
      ],
      "name": "ActivityClosed",
      "type": "event"
    },
    {
      "anonymous": false,
      "inputs": [
        {
          "indexed": true,
          "internalType": "uint256",
          "name": "activityId",
          "type": "uint256"
        },
        {
          "indexed": false,
          "internalType": "string[]",
          "name": "choices",
          "type": "string[]"
        },
        {
          "indexed": false,
          "internalType": "uint256",
          "name": "prizeAmount",
          "type": "uint256"
        },
        {
          "indexed": false,
          "internalType": "uint256",
          "name": "deadline",
          "type": "uint256"
        }
      ],
      "name": "ActivityCreated",
      "type": "event"
    },
    {
      "anonymous": false,
      "inputs": [
        {
          "indexed": false,
          "internalType": "uint256",
          "name": "tokenId",
          "type": "uint256"
        },
        {
          "indexed": false,
          "internalType": "uint256",
          "name": "price",
          "type": "uint256"
        },
        {
          "indexed": false,
          "internalType": "address",
          "name": "owner",
          "type": "address"
        },
        {
          "indexed": false,
          "internalType": "uint256",
          "name": "activityId",
          "type": "uint256"
        },
        {
          "indexed": false,
          "internalType": "uint256",
          "name": "choiceIndex",
          "type": "uint256"
        }
      ],
      "name": "BetPlaced",
      "type": "event"
    },
    {
      "anonymous": false,
      "inputs": [
        {
          "indexed": true,
          "internalType": "uint256",
          "name": "activityId",
          "type": "uint256"
        },
        {
          "indexed": false,
          "internalType": "uint256",
          "name": "tokenId",
          "type": "uint256"
        },
        {
          "indexed": false,
          "internalType": "address",
          "name": "winner",
          "type": "address"
        },
        {
          "indexed": false,
          "internalType": "uint256",
          "name": "amount",
          "type": "uint256"
        }
      ],
      "name": "PrizeClaimed",
      "type": "event"
    },
    {
      "anonymous": false,
      "inputs": [
        {
          "indexed": true,
          "internalType": "uint256",
          "name": "activityId",
          "type": "uint256"
        },
        {
          "indexed": true,
          "internalType": "uint256",
          "name": "tokenId",
          "type": "uint256"
        },
        {
          "indexed": true,
          "internalType": "address",
          "name": "owner",
          "type": "address"
        },
        {
          "indexed": false,
          "internalType": "uint256",
          "name": "amount",
          "type": "uint256"
        }
      ],
      "name": "TicketRefunded",
      "type": "event"
    },
    {
      "inputs": [
        {
          "internalType": "uint256",
          "name": "",
          "type": "uint256"
        }
      ],
      "name": "activities",
      "outputs": [
        {
          "internalType": "address",
          "name": "owner",
          "type": "address"
        },
        {
          "internalType": "uint256",
          "name": "listedTimestamp",
          "type": "uint256"
        },
        {
          "internalType": "string",
          "name": "description",
          "type": "string"
        },
        {
          "internalType": "uint256",
          "name": "prizeAmount",
          "type": "uint256"
        },
        {
          "internalType": "uint256",
          "name": "deadline",
          "type": "uint256"
        },
        {
          "internalType": "bool",
          "name": "isOpen",
          "type": "bool"
        },
        {
          "internalType": "bool",
          "name": "cancelled",
          "type": "bool"
        },
        {
          "internalType": "uint256",
          "name": "winningChoice",
          "type": "uint256"
        },
        {
          "internalType": "uint256",
          "name": "totalPool",
          "type": "uint256"
        },
        {
          "internalType": "uint256",
          "name": "remainingAmount",
          "type": "uint256"
        }
      ],
      "stateMutability": "view",
      "type": "function"
    },
    {
      "inputs": [
        {
          "internalType": "uint256",
          "name": "",
          "type": "uint256"
        },
        {
          "internalType": "uint256",
          "name": "",
          "type": "uint256"
        },
        {
          "internalType": "uint256",
          "name": "",
          "type": "uint256"
        }
      ],
      "name": "activityChoiceTickets",
      "outputs": [
        {
          "internalType": "uint256",
          "name": "",
          "type": "uint256"
        }
      ],
      "stateMutability": "view",
      "type": "function"
    },
    {
      "inputs": [],
      "name": "activityCounter",
      "outputs": [
        {
          "internalType": "uint256",
          "name": "",
          "type": "uint256"
        }
      ],
      "stateMutability": "view",
      "type": "function"
    },
    {
      "inputs": [
        {
          "internalType": "uint256",
          "name": "activityId",
          "type": "uint256"
        },
        {
          "internalType": "uint256",
          "name": "choiceIndex",
          "type": "uint256"
        },
        {
          "internalType": "uint256",
          "name": "price",
          "type": "uint256"
        }
      ],
      "name": "buyTicket",
      "outputs": [
        {
          "internalType": "uint256",
          "name": "",
          "type": "uint256"
        }
      ],
      "stateMutability": "nonpayable",
      "type": "function"
    },
    {
      "inputs": [
        {
          "internalType": "uint256",
          "name": "activityId",
          "type": "uint256"
        }
      ],
      "name": "cancelActivity",
      "outputs": [],
      "stateMutability": "nonpayable",
      "type": "function"
    },
    {
      "inputs": [
        {
          "internalType": "uint256",
          "name": "",
          "type": "uint256"
        },
        {
          "internalType": "uint256",
          "name": "",
          "type": "uint256"
        }
      ],
      "name": "choiceTotalBets",
      "outputs": [
        {
          "internalType": "uint256",
          "name": "",
          "type": "uint256"
        }
      ],
      "stateMutability": "view",
      "type": "function"
    },
    {
      "inputs": [
        {
          "internalType": "uint256",
          "name": "activityId",
          "type": "uint256"
        },
        {
          "internalType": "uint256",
          "name": "winningChoice",
          "type": "uint256"
        }
      ],
      "name": "closeActivity",
      "outputs": [],
      "stateMutability": "nonpayable",
      "type": "function"
    },
    {
      "inputs": [
        {
          "internalType": "string[]",
          "name": "choices",
          "type": "string[]"
        },
        {
          "internalType": "string",
          "name": "description",
          "type": "string"
        },
        {
          "internalType": "uint256",
          "name": "prizeAmount",
          "type": "uint256"
        },
        {
          "internalType": "uint256",
          "name": "deadline",
          "type": "uint256"
        }
      ],
      "name": "createActivity",
      "outputs": [
        {
          "internalType": "uint256",
          "name": "",
          "type": "uint256"
        }
      ],
      "stateMutability": "nonpayable",
      "type": "function"
    },
    {
      "inputs": [
        {
          "internalType": "uint256",
          "name": "activityId",
          "type": "uint256"
        }
      ],
      "name": "getActivity",
      "outputs": [
        {
          "components": [
            {
              "internalType": "address",
              "name": "owner",
              "type": "address"
            },
            {
              "internalType": "uint256",
              "name": "listedTimestamp",
              "type": "uint256"
            },
            {
              "internalType": "string[]",
              "name": "choices",
              "type": "string[]"
            },
            {
              "internalType": "string",
              "name": "description",
              "type": "string"
            },
            {
              "internalType": "uint256",
              "name": "prizeAmount",
              "type": "uint256"
            },
            {
              "internalType": "uint256",
              "name": "deadline",
              "type": "uint256"
            },
            {
              "internalType": "bool",
              "name": "isOpen",
              "type": "bool"
            },
            {
              "internalType": "bool",
              "name": "cancelled",
              "type": "bool"
            },
            {
              "internalType": "uint256",
              "name": "winningChoice",
              "type": "uint256"
            },
            {
              "internalType": "uint256",
              "name": "totalPool",
              "type": "uint256"
            },
            {
              "internalType": "uint256",
              "name": "remainingAmount",
              "type": "uint256"
            }
          ],
          "internalType": "struct EasyBet.Activity",
          "name": "",
          "type": "tuple"
        }
      ],
      "stateMutability": "view",
      "type": "function"
    },
    {
      "inputs": [
        {
          "internalType": "uint256",
          "name": "activityId",
          "type": "uint256"
        },
        {
          "internalType": "uint256",
          "name": "choiceIndex",
          "type": "uint256"
        }
      ],
      "name": "getChoiceTotalBets",
      "outputs": [
        {
          "internalType": "uint256",
          "name": "",
          "type": "uint256"
        }
      ],
      "stateMutability": "view",
      "type": "function"
    },
    {
      "inputs": [],
      "name": "helloworld",
      "outputs": [
        {
          "internalType": "string",
          "name": "",
          "type": "string"
        }
      ],
      "stateMutability": "pure",
      "type": "function"
    },
    {
      "inputs": [],
      "name": "lotteryNFT",
      "outputs": [
        {
          "internalType": "contract LotteryNFT",
          "name": "",
          "type": "address"
        }
      ],
      "stateMutability": "view",
      "type": "function"
    },
    {
      "inputs": [],
      "name": "owner",
      "outputs": [
        {
          "internalType": "address",
          "name": "",
          "type": "address"
        }
      ],
      "stateMutability": "view",
      "type": "function"
    },
    {
      "inputs": [
        {
          "internalType": "uint256",
          "name": "",
          "type": "uint256"
        },
        {
          "internalType": "uint256",
          "name": "",
          "type": "uint256"
        }
      ],
      "name": "prizeClaimed",
      "outputs": [
        {
          "internalType": "bool",
          "name": "",
          "type": "bool"
        }
      ],
      "stateMutability": "view",
      "type": "function"
    },
    {
      "inputs": [
        {
          "internalType": "uint256",
          "name": "",
          "type": "uint256"
        },
        {
          "internalType": "uint256",
          "name": "",
          "type": "uint256"
        }
      ],
      "name": "refundClaimed",
      "outputs": [
        {
          "internalType": "bool",
          "name": "",
          "type": "bool"
        }
      ],
      "stateMutability": "view",
      "type": "function"
    },
    {
      "inputs": [
        {
          "internalType": "uint256",
          "name": "activityId",
          "type": "uint256"
        },
        {
          "internalType": "uint256",
          "name": "winningChoice",
          "type": "uint256"
        }
      ],
      "name": "settleActivity",
      "outputs": [],
      "stateMutability": "nonpayable",
      "type": "function"
    },
    {
      "inputs": [
        {
          "internalType": "uint256",
          "name": "",
          "type": "uint256"
        }
      ],
      "name": "ticketActivity",
      "outputs": [
        {
          "internalType": "uint256",
          "name": "",
          "type": "uint256"
        }
      ],
      "stateMutability": "view",
      "type": "function"
    },
    {
      "inputs": [
        {
          "internalType": "uint256",
          "name": "",
          "type": "uint256"
        }
      ],
      "name": "ticketBetAmount",
      "outputs": [
        {
          "internalType": "uint256",
          "name": "",
          "type": "uint256"
        }
      ],
      "stateMutability": "view",
      "type": "function"
    },
    {
      "inputs": [
        {
          "internalType": "uint256",
          "name": "",
          "type": "uint256"
        },
        {
          "internalType": "uint256",
          "name": "",
          "type": "uint256"
        }
      ],
      "name": "winningTickets",
      "outputs": [
        {
          "internalType": "uint256",
          "name": "",
          "type": "uint256"
        }
      ],
      "stateMutability": "view",
      "type": "function"
    },
    {
      "inputs": [],
      "name": "zjuToken",
      "outputs": [
        {
          "internalType": "contract IERC20",
          "name": "",
          "type": "address"
        }
      ],
      "stateMutability": "view",
      "type": "function"
    },
    {
      "stateMutability": "payable",
      "type": "receive"
    }
  ],
  "bytecode": "0x60806040523480156200001157600080fd5b5060405162003c1438038062003c14833981810160405281019062000037919062000173565b336000806101000a81548173ffffffffffffffffffffffffffffffffffffffff021916908373ffffffffffffffffffffffffffffffffffffffff160217905550600060028190555081600360006101000a81548173ffffffffffffffffffffffffffffffffffffffff021916908373ffffffffffffffffffffffffffffffffffffffff16021790555080600460006101000a81548173ffffffffffffffffffffffffffffffffffffffff021916908373ffffffffffffffffffffffffffffffffffffffff1602179055505050620001ba565b600080fd5b600073ffffffffffffffffffffffffffffffffffffffff82169050919050565b60006200013b826200010e565b9050919050565b6200014d816200012e565b81146200015957600080fd5b50565b6000815190506200016d8162000142565b92915050565b600080604083850312156200018d576200018c62000109565b5b60006200019d858286016200015c565b9250506020620001b0858286016200015c565b9150509250929050565b613a4a80620001ca6000396000f3fe6080604052600436106101235760003560e01c8063871b924c116100a0578063c4c6710d11610064578063c4c6710d1461045b578063db2c0fd114610498578063e24751c9146104d5578063e8adfbc714610512578063ecc6c0f21461053d5761012a565b8063871b924c146103505780638da5cb5b14610379578063922635d8146103a4578063b1d4fcbc146103e1578063b5d39d7f1461041e5761012a565b80632f2f4859116100e75780632f2f485914610243578063365bfa411461026e5780635a611efc146102ab57806363d91d0a146102e85780637d70de01146103255761012a565b806301b6804b1461012f5780630425e3451461015a5780630d1657e8146101975780631dd3a7ad146101dd578063203746f21461021a5761012a565b3661012a57005b600080fd5b34801561013b57600080fd5b50610144610566565b60405161015191906124ca565b60405180910390f35b34801561016657600080fd5b50610181600480360381019061017c919061252f565b61058c565b60405161018e919061257e565b60405180910390f35b3480156101a357600080fd5b506101be60048036038101906101b99190612599565b6105bb565b6040516101d49a99989796959493929190612692565b60405180910390f35b3480156101e957600080fd5b5061020460048036038101906101ff919061252f565b6106d1565b604051610211919061257e565b60405180910390f35b34801561022657600080fd5b50610241600480360381019061023c919061252f565b610702565b005b34801561024f57600080fd5b5061025861105d565b6040516102659190612735565b60405180910390f35b34801561027a57600080fd5b5061029560048036038101906102909190612757565b61109a565b6040516102a2919061257e565b60405180910390f35b3480156102b757600080fd5b506102d260048036038101906102cd9190612599565b6110d8565b6040516102df919061257e565b60405180910390f35b3480156102f457600080fd5b5061030f600480360381019061030a919061252f565b6110f0565b60405161031c91906127aa565b60405180910390f35b34801561033157600080fd5b5061033a61111f565b604051610347919061257e565b60405180910390f35b34801561035c57600080fd5b506103776004803603810190610372919061252f565b611125565b005b34801561038557600080fd5b5061038e6112c7565b60405161039b91906127c5565b60405180910390f35b3480156103b057600080fd5b506103cb60048036038101906103c69190612599565b6112eb565b6040516103d89190612a0f565b60405180910390f35b3480156103ed57600080fd5b506104086004803603810190610403919061252f565b61154c565b604051610415919061257e565b60405180910390f35b34801561042a57600080fd5b5061044560048036038101906104409190612599565b611571565b604051610452919061257e565b60405180910390f35b34801561046757600080fd5b50610482600480360381019061047d9190612757565b611589565b60405161048f919061257e565b60405180910390f35b3480156104a457600080fd5b506104bf60048036038101906104ba919061252f565b61198e565b6040516104cc91906127aa565b60405180910390f35b3480156104e157600080fd5b506104fc60048036038101906104f79190612c4c565b6119bd565b604051610509919061257e565b60405180910390f35b34801561051e57600080fd5b50610527611c54565b6040516105349190612d0c565b60405180910390f35b34801561054957600080fd5b50610564600480360381019061055f9190612599565b611c7a565b005b600460009054906101000a900473ffffffffffffffffffffffffffffffffffffffff1681565b600060086000848152602001908152602001600020600083815260200190815260200160002054905092915050565b60016020528060005260406000206000915090508060000160009054906101000a900473ffffffffffffffffffffffffffffffffffffffff169080600101549080600301805461060a90612d56565b80601f016020809104026020016040519081016040528092919081815260200182805461063690612d56565b80156106835780601f1061065857610100808354040283529160200191610683565b820191906000526020600020905b81548152906001019060200180831161066657829003601f168201915b5050505050908060040154908060050154908060060160009054906101000a900460ff16908060060160019054906101000a900460ff1690806007015490806008015490806009015490508a565b600560205281600052604060002081815481106106ed57600080fd5b90600052602060002001600091509150505481565b60006001600084815260200190815260200160002090508060060160009054906101000a900460ff1661076a576040517f08c379a000000000000000000000000000000000000000000000000000000000815260040161076190612dd3565b60405180910390fd5b806002018054905082106107b3576040517f08c379a00000000000000000000000000000000000000000000000000000000081526004016107aa90612e3f565b60405180910390fd5b8060000160009054906101000a900473ffffffffffffffffffffffffffffffffffffffff1673ffffffffffffffffffffffffffffffffffffffff163373ffffffffffffffffffffffffffffffffffffffff16148061085c575060008054906101000a900473ffffffffffffffffffffffffffffffffffffffff1673ffffffffffffffffffffffffffffffffffffffff163373ffffffffffffffffffffffffffffffffffffffff16145b61089b576040517f08c379a000000000000000000000000000000000000000000000000000000000815260040161089290612eab565b60405180910390fd5b60008160060160006101000a81548160ff0219169083151502179055508181600701819055506108ca836121c6565b60008160080154905060006008600086815260200190815260200160002060008581526020019081526020016000205490506000820361094457847f3144c3e585abdde813a6057d565b01505f1e22ae54353daaf5116feb02c23d3785604051610934919061257e565b60405180910390a2505050611059565b60008103610ce95760008360020180549050905060005b81811015610ca7576000600b60008981526020019081526020016000206000838152602001908152602001600020905060005b8180549050811015610c925760008282815481106109af576109ae612ecb565b5b90600052602060002001549050600760008b8152602001908152602001600020600082815260200190815260200160002060009054906101000a900460ff16156109f95750610c7f565b60006009600083815260200190815260200160002054905060008103610a20575050610c7f565b6000600360009054906101000a900473ffffffffffffffffffffffffffffffffffffffff1673ffffffffffffffffffffffffffffffffffffffff16636352211e846040518263ffffffff1660e01b8152600401610a7d919061257e565b602060405180830381865afa158015610a9a573d6000803e3d6000fd5b505050506040513d601f19601f82011682018060405250810190610abe9190612f26565b90506001600760008e8152602001908152602001600020600085815260200190815260200160002060006101000a81548160ff02191690831515021790555060006009600085815260200190815260200160002081905550600460009054906101000a900473ffffffffffffffffffffffffffffffffffffffff1673ffffffffffffffffffffffffffffffffffffffff1663a9059cbb82846040518363ffffffff1660e01b8152600401610b73929190612f53565b6020604051808303816000875af1158015610b92573d6000803e3d6000fd5b505050506040513d601f19601f82011682018060405250810190610bb69190612fa8565b610bf5576040517f08c379a0000000000000000000000000000000000000000000000000000000008152600401610bec90613021565b60405180910390fd5b818a6008015410610c2057818a6008016000828254610c149190613070565b92505081905550610c2b565b60008a600801819055505b8073ffffffffffffffffffffffffffffffffffffffff16838d7fc4a278eade19ee5ff400a2c18440a184fceff74394c2abf31f62d18a394697f185604051610c73919061257e565b60405180910390a45050505b8080610c8a906130a4565b91505061098e565b50508080610c9f906130a4565b91505061095b565b50857f3144c3e585abdde813a6057d565b01505f1e22ae54353daaf5116feb02c23d3786604051610cd8919061257e565b60405180910390a250505050611059565b6000600b60008781526020019081526020016000206000868152602001908152602001600020905060005b818054905081101561101b576000828281548110610d3557610d34612ecb565b5b9060005260206000200154905060066000898152602001908152602001600020600082815260200190815260200160002060009054906101000a900460ff1615610d7f5750611008565b60006009600083815260200190815260200160002054905060008103610da6575050611008565b6000600360009054906101000a900473ffffffffffffffffffffffffffffffffffffffff1673ffffffffffffffffffffffffffffffffffffffff16636352211e846040518263ffffffff1660e01b8152600401610e03919061257e565b602060405180830381865afa158015610e20573d6000803e3d6000fd5b505050506040513d601f19601f82011682018060405250810190610e449190612f26565b90506000868884610e5591906130ec565b610e5f919061315d565b90508860080154811115610e7557886008015490505b6001600660008d8152602001908152602001600020600086815260200190815260200160002060006101000a81548160ff021916908315150217905550600460009054906101000a900473ffffffffffffffffffffffffffffffffffffffff1673ffffffffffffffffffffffffffffffffffffffff1663a9059cbb83836040518363ffffffff1660e01b8152600401610f0f929190612f53565b6020604051808303816000875af1158015610f2e573d6000803e3d6000fd5b505050506040513d601f19601f82011682018060405250810190610f529190612fa8565b610f91576040517f08c379a0000000000000000000000000000000000000000000000000000000008152600401610f8890613021565b60405180910390fd5b80896008015410610fbc5780896008016000828254610fb09190613070565b92505081905550610fc7565b600089600801819055505b8a7f608c8c3c6a3d40f40b96fbee44f9b9aee57a39c2fcb8bb0f59d8892b2d5492a2858484604051610ffb9392919061318e565b60405180910390a2505050505b8080611013906130a4565b915050610d14565b50857f3144c3e585abdde813a6057d565b01505f1e22ae54353daaf5116feb02c23d378660405161104c919061257e565b60405180910390a2505050505b5050565b60606040518060400160405280600b81526020017f68656c6c6f20776f726c64000000000000000000000000000000000000000000815250905090565b600b60205282600052604060002060205281600052604060002081815481106110c257600080fd5b9060005260206000200160009250925050505481565b60096020528060005260406000206000915090505481565b60076020528160005260406000206020528060005260406000206000915091509054906101000a900460ff1681565b60025481565b60008054906101000a900473ffffffffffffffffffffffffffffffffffffffff1673ffffffffffffffffffffffffffffffffffffffff163373ffffffffffffffffffffffffffffffffffffffff16146111b3576040517f08c379a00000000000000000000000000000000000000000000000000000000081526004016111aa90613237565b60405180910390fd5b60006001600084815260200190815260200160002090508060060160009054906101000a900460ff1661121b576040517f08c379a000000000000000000000000000000000000000000000000000000000815260040161121290612dd3565b60405180910390fd5b80600201805490508210611264576040517f08c379a000000000000000000000000000000000000000000000000000000000815260040161125b90612e3f565b60405180910390fd5b60008160060160006101000a81548160ff021916908315150217905550818160070181905550827f3144c3e585abdde813a6057d565b01505f1e22ae54353daaf5116feb02c23d37836040516112ba919061257e565b60405180910390a2505050565b60008054906101000a900473ffffffffffffffffffffffffffffffffffffffff1681565b6112f36122fd565b60016000838152602001908152602001600020604051806101600160405290816000820160009054906101000a900473ffffffffffffffffffffffffffffffffffffffff1673ffffffffffffffffffffffffffffffffffffffff1673ffffffffffffffffffffffffffffffffffffffff1681526020016001820154815260200160028201805480602002602001604051908101604052809291908181526020016000905b828210156114435783829060005260206000200180546113b690612d56565b80601f01602080910402602001604051908101604052809291908181526020018280546113e290612d56565b801561142f5780601f106114045761010080835404028352916020019161142f565b820191906000526020600020905b81548152906001019060200180831161141257829003601f168201915b505050505081526020019060010190611397565b50505050815260200160038201805461145b90612d56565b80601f016020809104026020016040519081016040528092919081815260200182805461148790612d56565b80156114d45780601f106114a9576101008083540402835291602001916114d4565b820191906000526020600020905b8154815290600101906020018083116114b757829003601f168201915b5050505050815260200160048201548152602001600582015481526020016006820160009054906101000a900460ff161515151581526020016006820160019054906101000a900460ff1615151515815260200160078201548152602001600882015481526020016009820154815250509050919050565b6008602052816000526040600020602052806000526040600020600091509150505481565b600a6020528060005260406000206000915090505481565b6000806001600086815260200190815260200160002090508060060160009054906101000a900460ff166115f2576040517f08c379a00000000000000000000000000000000000000000000000000000000081526004016115e990612dd3565b60405180910390fd5b80600501544210611638576040517f08c379a000000000000000000000000000000000000000000000000000000000815260040161162f906132a3565b60405180910390fd5b80600201805490508410611681576040517f08c379a00000000000000000000000000000000000000000000000000000000081526004016116789061330f565b60405180910390fd5b80600901548311156116c8576040517f08c379a00000000000000000000000000000000000000000000000000000000081526004016116bf906133a1565b60405180910390fd5b6000600460009054906101000a900473ffffffffffffffffffffffffffffffffffffffff1673ffffffffffffffffffffffffffffffffffffffff166323b872dd3330876040518463ffffffff1660e01b8152600401611729939291906133c1565b6020604051808303816000875af1158015611748573d6000803e3d6000fd5b505050506040513d601f19601f8201168201806040525081019061176c9190612fa8565b9050806117ae576040517f08c379a00000000000000000000000000000000000000000000000000000000081526004016117a590613021565b60405180910390fd5b838260080160008282546117c291906133f8565b92505081905550838260090160008282546117dd9190613070565b9250508190555083600860008881526020019081526020016000206000878152602001908152602001600020600082825461181891906133f8565b925050819055506000600360009054906101000a900473ffffffffffffffffffffffffffffffffffffffff1673ffffffffffffffffffffffffffffffffffffffff1663b90cc7aa338989896040518563ffffffff1660e01b8152600401611882949392919061342c565b6020604051808303816000875af11580156118a1573d6000803e3d6000fd5b505050506040513d601f19601f820116820180604052508101906118c59190613486565b905084600960008381526020019081526020016000208190555086600a600083815260200190815260200160002081905550600b600088815260200190815260200160002060008781526020019081526020016000208190806001815401808255809150506001900390600052602060002001600090919091909150557f9ab6b286d532c308925cb0664fe6228b8fe0d5137820cc28dc0ec44f7a3959e38186338a8a6040516119799594939291906134b3565b60405180910390a18093505050509392505050565b60066020528160005260406000206020528060005260406000206000915091509054906101000a900460ff1681565b60008060009054906101000a900473ffffffffffffffffffffffffffffffffffffffff1673ffffffffffffffffffffffffffffffffffffffff163373ffffffffffffffffffffffffffffffffffffffff1614611a4e576040517f08c379a0000000000000000000000000000000000000000000000000000000008152600401611a4590613237565b60405180910390fd5b600285511015611a93576040517f08c379a0000000000000000000000000000000000000000000000000000000008152600401611a8a90613552565b60405180910390fd5b428211611ad5576040517f08c379a0000000000000000000000000000000000000000000000000000000008152600401611acc906135be565b60405180910390fd5b60008311611b18576040517f08c379a0000000000000000000000000000000000000000000000000000000008152600401611b0f90613650565b60405180910390fd5b6000600260008154611b29906130a4565b91905081905590506000600160008381526020019081526020016000209050338160000160006101000a81548173ffffffffffffffffffffffffffffffffffffffff021916908373ffffffffffffffffffffffffffffffffffffffff16021790555042816001018190555086816002019080519060200190611bac929190612371565b5085816003019081611bbe9190613812565b5084816004018190555083816005018190555060018160060160006101000a81548160ff0219169083151502179055506000816007018190555060008160080181905550848160090181905550817fc93ef60213ff34b6f125d92d1c28aec0f0ef8a649ca9c4939784197732b45d59888787604051611c3f9392919061396a565b60405180910390a28192505050949350505050565b600360009054906101000a900473ffffffffffffffffffffffffffffffffffffffff1681565b60006001600083815260200190815260200160002090508060060160009054906101000a900460ff16611ce2576040517f08c379a0000000000000000000000000000000000000000000000000000000008152600401611cd990612dd3565b60405180910390fd5b8060000160009054906101000a900473ffffffffffffffffffffffffffffffffffffffff1673ffffffffffffffffffffffffffffffffffffffff163373ffffffffffffffffffffffffffffffffffffffff161480611d8b575060008054906101000a900473ffffffffffffffffffffffffffffffffffffffff1673ffffffffffffffffffffffffffffffffffffffff163373ffffffffffffffffffffffffffffffffffffffff16145b611dca576040517f08c379a0000000000000000000000000000000000000000000000000000000008152600401611dc1906139f4565b60405180910390fd5b60008160060160006101000a81548160ff02191690831515021790555060018160060160016101000a81548160ff021916908315150217905550611e0d826121c6565b60008160020180549050905060005b81811015612168576000600b60008681526020019081526020016000206000838152602001908152602001600020905060005b8180549050811015612153576000828281548110611e7057611e6f612ecb565b5b9060005260206000200154905060076000888152602001908152602001600020600082815260200190815260200160002060009054906101000a900460ff1615611eba5750612140565b60006009600083815260200190815260200160002054905060008103611ee1575050612140565b6000600360009054906101000a900473ffffffffffffffffffffffffffffffffffffffff1673ffffffffffffffffffffffffffffffffffffffff16636352211e846040518263ffffffff1660e01b8152600401611f3e919061257e565b602060405180830381865afa158015611f5b573d6000803e3d6000fd5b505050506040513d601f19601f82011682018060405250810190611f7f9190612f26565b90506001600760008b8152602001908152602001600020600085815260200190815260200160002060006101000a81548160ff02191690831515021790555060006009600085815260200190815260200160002081905550600460009054906101000a900473ffffffffffffffffffffffffffffffffffffffff1673ffffffffffffffffffffffffffffffffffffffff1663a9059cbb82846040518363ffffffff1660e01b8152600401612034929190612f53565b6020604051808303816000875af1158015612053573d6000803e3d6000fd5b505050506040513d601f19601f820116820180604052508101906120779190612fa8565b6120b6576040517f08c379a00000000000000000000000000000000000000000000000000000000081526004016120ad90613021565b60405180910390fd5b818860080154106120e157818860080160008282546120d59190613070565b925050819055506120ec565b600088600801819055505b8073ffffffffffffffffffffffffffffffffffffffff16838a7fc4a278eade19ee5ff400a2c18440a184fceff74394c2abf31f62d18a394697f185604051612134919061257e565b60405180910390a45050505b808061214b906130a4565b915050611e4f565b50508080612160906130a4565b915050611e1c565b50827f3144c3e585abdde813a6057d565b01505f1e22ae54353daaf5116feb02c23d377fffffffffffffffffffffffffffffffffffffffffffffffffffffffffffffffff6040516121b9919061257e565b60405180910390a2505050565b60006001600083815260200190815260200160002060020180549050905060005b818110156122f8576000600b60008581526020019081526020016000206000838152602001908152602001600020905060005b81805490508110156122e357600360009054906101000a900473ffffffffffffffffffffffffffffffffffffffff1673ffffffffffffffffffffffffffffffffffffffff1663aec5de1d83838154811061227757612276612ecb565b5b90600052602060002001546040518263ffffffff1660e01b815260040161229e919061257e565b600060405180830381600087803b1580156122b857600080fd5b505af11580156122cc573d6000803e3d6000fd5b5050505080806122db906130a4565b91505061221a565b505080806122f0906130a4565b9150506121e7565b505050565b604051806101600160405280600073ffffffffffffffffffffffffffffffffffffffff16815260200160008152602001606081526020016060815260200160008152602001600081526020016000151581526020016000151581526020016000815260200160008152602001600081525090565b8280548282559060005260206000209081019282156123b9579160200282015b828111156123b85782518290816123a89190613812565b5091602001919060010190612391565b5b5090506123c691906123ca565b5090565b5b808211156123ea57600081816123e191906123ee565b506001016123cb565b5090565b5080546123fa90612d56565b6000825580601f1061240c575061242b565b601f01602090049060005260206000209081019061242a919061242e565b5b50565b5b8082111561244757600081600090555060010161242f565b5090565b600073ffffffffffffffffffffffffffffffffffffffff82169050919050565b6000819050919050565b600061249061248b6124868461244b565b61246b565b61244b565b9050919050565b60006124a282612475565b9050919050565b60006124b482612497565b9050919050565b6124c4816124a9565b82525050565b60006020820190506124df60008301846124bb565b92915050565b6000604051905090565b600080fd5b600080fd5b6000819050919050565b61250c816124f9565b811461251757600080fd5b50565b60008135905061252981612503565b92915050565b60008060408385031215612546576125456124ef565b5b60006125548582860161251a565b92505060206125658582860161251a565b9150509250929050565b612578816124f9565b82525050565b6000602082019050612593600083018461256f565b92915050565b6000602082840312156125af576125ae6124ef565b5b60006125bd8482850161251a565b91505092915050565b60006125d18261244b565b9050919050565b6125e1816125c6565b82525050565b600081519050919050565b600082825260208201905092915050565b60005b83811015612621578082015181840152602081019050612606565b60008484015250505050565b6000601f19601f8301169050919050565b6000612649826125e7565b61265381856125f2565b9350612663818560208601612603565b61266c8161262d565b840191505092915050565b60008115159050919050565b61268c81612677565b82525050565b6000610140820190506126a8600083018d6125d8565b6126b5602083018c61256f565b81810360408301526126c7818b61263e565b90506126d6606083018a61256f565b6126e3608083018961256f565b6126f060a0830188612683565b6126fd60c0830187612683565b61270a60e083018661256f565b61271861010083018561256f565b61272661012083018461256f565b9b9a5050505050505050505050565b6000602082019050818103600083015261274f818461263e565b905092915050565b6000806000606084860312156127705761276f6124ef565b5b600061277e8682870161251a565b935050602061278f8682870161251a565b92505060406127a08682870161251a565b9150509250925092565b60006020820190506127bf6000830184612683565b92915050565b60006020820190506127da60008301846125d8565b92915050565b6127e9816125c6565b82525050565b6127f8816124f9565b82525050565b600081519050919050565b600082825260208201905092915050565b6000819050602082019050919050565b600082825260208201905092915050565b6000612846826125e7565b612850818561282a565b9350612860818560208601612603565b6128698161262d565b840191505092915050565b6000612880838361283b565b905092915050565b6000602082019050919050565b60006128a0826127fe565b6128aa8185612809565b9350836020820285016128bc8561281a565b8060005b858110156128f857848403895281516128d98582612874565b94506128e483612888565b925060208a019950506001810190506128c0565b50829750879550505050505092915050565b61291381612677565b82525050565b60006101608301600083015161293260008601826127e0565b50602083015161294560208601826127ef565b506040830151848203604086015261295d8282612895565b91505060608301518482036060860152612977828261283b565b915050608083015161298c60808601826127ef565b5060a083015161299f60a08601826127ef565b5060c08301516129b260c086018261290a565b5060e08301516129c560e086018261290a565b506101008301516129da6101008601826127ef565b506101208301516129ef6101208601826127ef565b50610140830151612a046101408601826127ef565b508091505092915050565b60006020820190508181036000830152612a298184612919565b905092915050565b600080fd5b7f4e487b7100000000000000000000000000000000000000000000000000000000600052604160045260246000fd5b612a6e8261262d565b810181811067ffffffffffffffff82111715612a8d57612a8c612a36565b5b80604052505050565b6000612aa06124e5565b9050612aac8282612a65565b919050565b600067ffffffffffffffff821115612acc57612acb612a36565b5b602082029050602081019050919050565b600080fd5b600080fd5b600067ffffffffffffffff821115612b0257612b01612a36565b5b612b0b8261262d565b9050602081019050919050565b82818337600083830152505050565b6000612b3a612b3584612ae7565b612a96565b905082815260208101848484011115612b5657612b55612ae2565b5b612b61848285612b18565b509392505050565b600082601f830112612b7e57612b7d612a31565b5b8135612b8e848260208601612b27565b91505092915050565b6000612baa612ba584612ab1565b612a96565b90508083825260208201905060208402830185811115612bcd57612bcc612add565b5b835b81811015612c1457803567ffffffffffffffff811115612bf257612bf1612a31565b5b808601612bff8982612b69565b85526020850194505050602081019050612bcf565b5050509392505050565b600082601f830112612c3357612c32612a31565b5b8135612c43848260208601612b97565b91505092915050565b60008060008060808587031215612c6657612c656124ef565b5b600085013567ffffffffffffffff811115612c8457612c836124f4565b5b612c9087828801612c1e565b945050602085013567ffffffffffffffff811115612cb157612cb06124f4565b5b612cbd87828801612b69565b9350506040612cce8782880161251a565b9250506060612cdf8782880161251a565b91505092959194509250565b6000612cf682612497565b9050919050565b612d0681612ceb565b82525050565b6000602082019050612d216000830184612cfd565b92915050565b7f4e487b7100000000000000000000000000000000000000000000000000000000600052602260045260246000fd5b60006002820490506001821680612d6e57607f821691505b602082108103612d8157612d80612d27565b5b50919050565b7f4163746976697479206973206e6f74206f70656e000000000000000000000000600082015250565b6000612dbd6014836125f2565b9150612dc882612d87565b602082019050919050565b60006020820190508181036000830152612dec81612db0565b9050919050565b7f496e76616c69642077696e6e696e672063686f69636500000000000000000000600082015250565b6000612e296016836125f2565b9150612e3482612df3565b602082019050919050565b60006020820190508181036000830152612e5881612e1c565b9050919050565b7f4e6f7420617574686f72697a656420746f20736574746c650000000000000000600082015250565b6000612e956018836125f2565b9150612ea082612e5f565b602082019050919050565b60006020820190508181036000830152612ec481612e88565b9050919050565b7f4e487b7100000000000000000000000000000000000000000000000000000000600052603260045260246000fd5b612f03816125c6565b8114612f0e57600080fd5b50565b600081519050612f2081612efa565b92915050565b600060208284031215612f3c57612f3b6124ef565b5b6000612f4a84828501612f11565b91505092915050565b6000604082019050612f6860008301856125d8565b612f75602083018461256f565b9392505050565b612f8581612677565b8114612f9057600080fd5b50565b600081519050612fa281612f7c565b92915050565b600060208284031215612fbe57612fbd6124ef565b5b6000612fcc84828501612f93565b91505092915050565b7f5a4a55207472616e73666572206661696c656400000000000000000000000000600082015250565b600061300b6013836125f2565b915061301682612fd5565b602082019050919050565b6000602082019050818103600083015261303a81612ffe565b9050919050565b7f4e487b7100000000000000000000000000000000000000000000000000000000600052601160045260246000fd5b600061307b826124f9565b9150613086836124f9565b925082820390508181111561309e5761309d613041565b5b92915050565b60006130af826124f9565b91507fffffffffffffffffffffffffffffffffffffffffffffffffffffffffffffffff82036130e1576130e0613041565b5b600182019050919050565b60006130f7826124f9565b9150613102836124f9565b9250828202613110816124f9565b9150828204841483151761312757613126613041565b5b5092915050565b7f4e487b7100000000000000000000000000000000000000000000000000000000600052601260045260246000fd5b6000613168826124f9565b9150613173836124f9565b9250826131835761318261312e565b5b828204905092915050565b60006060820190506131a3600083018661256f565b6131b060208301856125d8565b6131bd604083018461256f565b949350505050565b7f4f6e6c79206f776e65722063616e2063616c6c20746869732066756e6374696f60008201527f6e00000000000000000000000000000000000000000000000000000000000000602082015250565b60006132216021836125f2565b915061322c826131c5565b604082019050919050565b6000602082019050818103600083015261325081613214565b9050919050565b7f41637469766974792068617320656e6465640000000000000000000000000000600082015250565b600061328d6012836125f2565b915061329882613257565b602082019050919050565b600060208201905081810360008301526132bc81613280565b9050919050565b7f496e76616c69642063686f69636520696e646578000000000000000000000000600082015250565b60006132f96014836125f2565b9150613304826132c3565b602082019050919050565b60006020820190508181036000830152613328816132ec565b9050919050565b7f4e6f7420656e6f7567682072656d61696e696e6720616d6f756e7420696e207460008201527f686520706f6f6c00000000000000000000000000000000000000000000000000602082015250565b600061338b6027836125f2565b91506133968261332f565b604082019050919050565b600060208201905081810360008301526133ba8161337e565b9050919050565b60006060820190506133d660008301866125d8565b6133e360208301856125d8565b6133f0604083018461256f565b949350505050565b6000613403826124f9565b915061340e836124f9565b925082820190508082111561342657613425613041565b5b92915050565b600060808201905061344160008301876125d8565b61344e602083018661256f565b61345b604083018561256f565b613468606083018461256f565b95945050505050565b60008151905061348081612503565b92915050565b60006020828403121561349c5761349b6124ef565b5b60006134aa84828501613471565b91505092915050565b600060a0820190506134c8600083018861256f565b6134d5602083018761256f565b6134e260408301866125d8565b6134ef606083018561256f565b6134fc608083018461256f565b9695505050505050565b7f4174206c6561737420322063686f696365732072657175697265640000000000600082015250565b600061353c601b836125f2565b915061354782613506565b602082019050919050565b6000602082019050818103600083015261356b8161352f565b9050919050565b7f446561646c696e65206d75737420626520696e20746865206675747572650000600082015250565b60006135a8601e836125f2565b91506135b382613572565b602082019050919050565b600060208201905081810360008301526135d78161359b565b9050919050565b7f5072697a6520616d6f756e74206d75737420626520677265617465722074686160008201527f6e20300000000000000000000000000000000000000000000000000000000000602082015250565b600061363a6023836125f2565b9150613645826135de565b604082019050919050565b600060208201905081810360008301526136698161362d565b9050919050565b60008190508160005260206000209050919050565b60006020601f8301049050919050565b600082821b905092915050565b6000600883026136d27fffffffffffffffffffffffffffffffffffffffffffffffffffffffffffffffff82613695565b6136dc8683613695565b95508019841693508086168417925050509392505050565b600061370f61370a613705846124f9565b61246b565b6124f9565b9050919050565b6000819050919050565b613729836136f4565b61373d61373582613716565b8484546136a2565b825550505050565b600090565b613752613745565b61375d818484613720565b505050565b5b818110156137815761377660008261374a565b600181019050613763565b5050565b601f8211156137c65761379781613670565b6137a084613685565b810160208510156137af578190505b6137c36137bb85613685565b830182613762565b50505b505050565b600082821c905092915050565b60006137e9600019846008026137cb565b1980831691505092915050565b600061380283836137d8565b9150826002028217905092915050565b61381b826125e7565b67ffffffffffffffff81111561383457613833612a36565b5b61383e8254612d56565b613849828285613785565b600060209050601f83116001811461387c576000841561386a578287015190505b61387485826137f6565b8655506138dc565b601f19841661388a86613670565b60005b828110156138b25784890151825560018201915060208501945060208101905061388d565b868310156138cf57848901516138cb601f8916826137d8565b8355505b6001600288020188555050505b505050505050565b600082825260208201905092915050565b6000613900826127fe565b61390a81856138e4565b93508360208202850161391c8561281a565b8060005b8581101561395857848403895281516139398582612874565b945061394483612888565b925060208a01995050600181019050613920565b50829750879550505050505092915050565b6000606082019050818103600083015261398481866138f5565b9050613993602083018561256f565b6139a0604083018461256f565b949350505050565b7f4e6f7420617574686f72697a656420746f2063616e63656c0000000000000000600082015250565b60006139de6018836125f2565b91506139e9826139a8565b602082019050919050565b60006020820190508181036000830152613a0d816139d1565b905091905056fea26469706673582212206acfa0fe354dcc787649ddaf8393f27e68c9d66a4e10225106b509b39368c9af64736f6c63430008140033",
  "linkReferences": {},
  "deployedLinkReferences": {}
}