{
  "_format": "hh-sol-artifact-1",
  "contractName": "LotteryNFT",
  "sourceName": "contracts/LotteryNFT.sol",
  "abi": [
    {
      "inputs": [
        {
          "internalType": "address",
          "name": "initialOwner",
          "type": "address"
        }
      ],
      "stateMutability": "nonpayable",
      "type": "constructor"
    },
    {
      "inputs": [
        {
          "internalType": "address",
          "name": "sender",
          "type": "address"
        },
        {
          "internalType": "uint256",
          "name": "tokenId",
          "type": "uint256"
        },
        {
          "internalType": "address",
          "name": "owner",
          "type": "address"
        }
      ],
      "name": "ERC721IncorrectOwner",
      "type": "error"
    },
    {
      "inputs": [
        {
          "internalType": "address",
          "name": "operator",
          "type": "address"
        },
        {
          "internalType": "uint256",
          "name": "tokenId",
          "type": "uint256"
        }
      ],
      "name": "ERC721InsufficientApproval",
      "type": "error"
    },
    {
      "inputs": [
        {
          "internalType": "address",
          "name": "approver",
          "type": "address"
        }
      ],
      "name": "ERC721InvalidApprover",
      "type": "error"
    },
    {
      "inputs": [
        {
          "internalType": "address",
          "name": "operator",
          "type": "address"
        }
      ],
      "name": "ERC721InvalidOperator",
      "type": "error"
    },
    {
      "inputs": [
        {
          "internalType": "address",
          "name": "owner",
          "type": "address"
        }
      ],
      "name": "ERC721InvalidOwner",
      "type": "error"
    },
    {
      "inputs": [
        {
          "internalType": "address",
          "name": "receiver",
          "type": "address"
        }
      ],
      "name": "ERC721InvalidReceiver",
      "type": "error"
    },
    {
      "inputs": [
        {
          "internalType": "address",
          "name": "sender",
          "type": "address"
        }
      ],
      "name": "ERC721InvalidSender",
      "type": "error"
    },
    {
      "inputs": [
        {
          "internalType": "uint256",
          "name": "tokenId",
          "type": "uint256"
        }
      ],
      "name": "ERC721NonexistentToken",
      "type": "error"
    },
    {
      "inputs": [
        {
          "internalType": "address",
          "name": "owner",
          "type": "address"
        }
      ],
      "name": "OwnableInvalidOwner",
      "type": "error"
    },
    {
      "inputs": [
        {
          "internalType": "address",
          "name": "account",
          "type": "address"
        }
      ],
      "name": "OwnableUnauthorizedAccount",
      "type": "error"
    },
    {
      "anonymous": false,
      "inputs": [
        {
          "indexed": true,
          "internalType": "address",
          "name": "owner",
          "type": "address"
        },
        {
          "indexed": true,
          "internalType": "address",
          "name": "approved",
          "type": "address"
        },
        {
          "indexed": true,
          "internalType": "uint256",
          "name": "tokenId",
          "type": "uint256"
        }
      ],
      "name": "Approval",
      "type": "event"
    },
    {
      "anonymous": false,
      "inputs": [
        {
          "indexed": true,
          "internalType": "address",
          "name": "owner",
          "type": "address"
        },
        {
          "indexed": true,
          "internalType": "address",
          "name": "operator",
          "type": "address"
        },
        {
          "indexed": false,
          "internalType": "bool",
          "name": "approved",
          "type": "bool"
        }
      ],
      "name": "ApprovalForAll",
      "type": "event"
    },
    {
      "anonymous": false,
      "inputs": [
        {
          "indexed": true,
          "internalType": "address",
          "name": "newAddress",
          "type": "address"
        }
      ],
      "name": "EasyBetContractUpdated",
      "type": "event"
    },
    {
      "anonymous": false,
      "inputs": [
        {
          "indexed": true,
          "internalType": "address",
          "name": "account",
          "type": "address"
        },
        {
          "indexed": false,
          "internalType": "bool",
          "name": "allowed",
          "type": "bool"
        }
      ],
      "name": "MinterUpdated",
      "type": "event"
    },
    {
      "anonymous": false,
      "inputs": [
        {
          "indexed": true,
          "internalType": "address",
          "name": "previousOwner",
          "type": "address"
        },
        {
          "indexed": true,
          "internalType": "address",
          "name": "newOwner",
          "type": "address"
        }
      ],
      "name": "OwnershipTransferred",
      "type": "event"
    },
    {
      "anonymous": false,
      "inputs": [
        {
          "indexed": true,
          "internalType": "uint256",
          "name": "tokenId",
          "type": "uint256"
        },
        {
          "indexed": true,
          "internalType": "address",
          "name": "buyer",
          "type": "address"
        },
        {
          "indexed": false,
          "internalType": "uint256",
          "name": "price",
          "type": "uint256"
        }
      ],
      "name": "TicketBought",
      "type": "event"
    },
    {
      "anonymous": false,
      "inputs": [
        {
          "indexed": true,
          "internalType": "uint256",
          "name": "tokenId",
          "type": "uint256"
        }
      ],
      "name": "TicketDelisted",
      "type": "event"
    },
    {
      "anonymous": false,
      "inputs": [
        {
          "indexed": true,
          "internalType": "uint256",
          "name": "tokenId",
          "type": "uint256"
        },
        {
          "indexed": false,
          "internalType": "uint256",
          "name": "price",
          "type": "uint256"
        }
      ],
      "name": "TicketListed",
      "type": "event"
    },
    {
      "anonymous": false,
      "inputs": [
        {
          "indexed": true,
          "internalType": "uint256",
          "name": "tokenId",
          "type": "uint256"
        },
        {
          "indexed": true,
          "internalType": "uint256",
          "name": "activityId",
          "type": "uint256"
        },
        {
          "indexed": false,
          "internalType": "uint256",
          "name": "choiceIndex",
          "type": "uint256"
        },
        {
          "indexed": false,
          "internalType": "uint256",
          "name": "price",
          "type": "uint256"
        }
      ],
      "name": "TicketMinted",
      "type": "event"
    },
    {
      "anonymous": false,
      "inputs": [
        {
          "indexed": true,
          "internalType": "address",
          "name": "from",
          "type": "address"
        },
        {
          "indexed": true,
          "internalType": "address",
          "name": "to",
          "type": "address"
        },
        {
          "indexed": true,
          "internalType": "uint256",
          "name": "tokenId",
          "type": "uint256"
        }
      ],
      "name": "Transfer",
      "type": "event"
    },
    {
      "inputs": [
        {
          "internalType": "address",
          "name": "to",
          "type": "address"
        },
        {
          "internalType": "uint256",
          "name": "tokenId",
          "type": "uint256"
        }
      ],
      "name": "approve",
      "outputs": [],
      "stateMutability": "nonpayable",
      "type": "function"
    },
    {
      "inputs": [
        {
          "internalType": "address",
          "name": "_easyBetAddress",
          "type": "address"
        }
      ],
      "name": "authorizeEasyBet",
      "outputs": [],
      "stateMutability": "nonpayable",
      "type": "function"
    },
    {
      "inputs": [
        {
          "internalType": "address",
          "name": "owner",
          "type": "address"
        }
      ],
      "name": "balanceOf",
      "outputs": [
        {
          "internalType": "uint256",
          "name": "",
          "type": "uint256"
        }
      ],
      "stateMutability": "view",
      "type": "function"
    },
    {
      "inputs": [
        {
          "internalType": "address",
          "name": "erc20Address",
          "type": "address"
        },
        {
          "internalType": "uint256",
          "name": "tokenId",
          "type": "uint256"
        }
      ],
      "name": "buyListedTicketWithERC20",
      "outputs": [],
      "stateMutability": "nonpayable",
      "type": "function"
    },
    {
      "inputs": [
        {
          "internalType": "uint256",
          "name": "",
          "type": "uint256"
        },
        {
          "internalType": "uint256",
          "name": "",
          "type": "uint256"
        }
      ],
      "name": "choiceCount",
      "outputs": [
        {
          "internalType": "uint256",
          "name": "",
          "type": "uint256"
        }
      ],
      "stateMutability": "view",
      "type": "function"
    },
    {
      "inputs": [
        {
          "internalType": "uint256",
          "name": "tokenId",
          "type": "uint256"
        }
      ],
      "name": "delistTicket",
      "outputs": [],
      "stateMutability": "nonpayable",
      "type": "function"
    },
    {
      "inputs": [],
      "name": "easyBetContractAddress",
      "outputs": [
        {
          "internalType": "address",
          "name": "",
          "type": "address"
        }
      ],
      "stateMutability": "view",
      "type": "function"
    },
    {
      "inputs": [
        {
          "internalType": "uint256",
          "name": "tokenId",
          "type": "uint256"
        }
      ],
      "name": "forceDelistTicket",
      "outputs": [],
      "stateMutability": "nonpayable",
      "type": "function"
    },
    {
      "inputs": [],
      "name": "getAllListedTickets",
      "outputs": [
        {
          "internalType": "uint256[]",
          "name": "",
          "type": "uint256[]"
        }
      ],
      "stateMutability": "view",
      "type": "function"
    },
    {
      "inputs": [
        {
          "internalType": "uint256",
          "name": "tokenId",
          "type": "uint256"
        }
      ],
      "name": "getApproved",
      "outputs": [
        {
          "internalType": "address",
          "name": "",
          "type": "address"
        }
      ],
      "stateMutability": "view",
      "type": "function"
    },
    {
      "inputs": [
        {
          "internalType": "uint256",
          "name": "_activityId",
          "type": "uint256"
        },
        {
          "internalType": "uint256",
          "name": "_choiceIndex",
          "type": "uint256"
        },
        {
          "internalType": "enum LotteryNFT.SortBy",
          "name": "_sortBy",
          "type": "uint8"
        }
      ],
      "name": "getSortedAndFilteredTickets",
      "outputs": [
        {
          "internalType": "uint256[]",
          "name": "",
          "type": "uint256[]"
        }
      ],
      "stateMutability": "view",
      "type": "function"
    },
    {
      "inputs": [
        {
          "internalType": "uint256",
          "name": "tokenId",
          "type": "uint256"
        }
      ],
      "name": "getTicketInfo",
      "outputs": [
        {
          "internalType": "uint256",
          "name": "activityId",
          "type": "uint256"
        },
        {
          "internalType": "uint256",
          "name": "choiceIndex",
          "type": "uint256"
        },
        {
          "internalType": "uint256",
          "name": "price",
          "type": "uint256"
        }
      ],
      "stateMutability": "view",
      "type": "function"
    },
    {
      "inputs": [
        {
          "internalType": "uint256",
          "name": "tokenId",
          "type": "uint256"
        }
      ],
      "name": "getTicketListedPrice",
      "outputs": [
        {
          "internalType": "uint256",
          "name": "",
          "type": "uint256"
        }
      ],
      "stateMutability": "view",
      "type": "function"
    },
    {
      "inputs": [
        {
          "internalType": "address",
          "name": "owner",
          "type": "address"
        },
        {
          "internalType": "address",
          "name": "operator",
          "type": "address"
        }
      ],
      "name": "isApprovedForAll",
      "outputs": [
        {
          "internalType": "bool",
          "name": "",
          "type": "bool"
        }
      ],
      "stateMutability": "view",
      "type": "function"
    },
    {
      "inputs": [
        {
          "internalType": "uint256",
          "name": "tokenId",
          "type": "uint256"
        },
        {
          "internalType": "uint256",
          "name": "price",
          "type": "uint256"
        }
      ],
      "name": "listTicket",
      "outputs": [],
      "stateMutability": "nonpayable",
      "type": "function"
    },
    {
      "inputs": [
        {
          "internalType": "uint256",
          "name": "",
          "type": "uint256"
        }
      ],
      "name": "listedTokens",
      "outputs": [
        {
          "internalType": "uint256",
          "name": "",
          "type": "uint256"
        }
      ],
      "stateMutability": "view",
      "type": "function"
    },
    {
      "inputs": [
        {
          "internalType": "uint256",
          "name": "",
          "type": "uint256"
        }
      ],
      "name": "lotteryTickets",
      "outputs": [
        {
          "internalType": "uint256",
          "name": "activityId",
          "type": "uint256"
        },
        {
          "internalType": "uint256",
          "name": "choiceIndex",
          "type": "uint256"
        },
        {
          "internalType": "uint256",
          "name": "price",
          "type": "uint256"
        }
      ],
      "stateMutability": "view",
      "type": "function"
    },
    {
      "inputs": [
        {
          "internalType": "uint256",
          "name": "activityId",
          "type": "uint256"
        },
        {
          "internalType": "uint256",
          "name": "choiceIndex",
          "type": "uint256"
        },
        {
          "internalType": "uint256",
          "name": "price",
          "type": "uint256"
        }
      ],
      "name": "mintTicket",
      "outputs": [
        {
          "internalType": "uint256",
          "name": "",
          "type": "uint256"
        }
      ],
      "stateMutability": "nonpayable",
      "type": "function"
    },
    {
      "inputs": [
        {
          "internalType": "address",
          "name": "to",
          "type": "address"
        },
        {
          "internalType": "uint256",
          "name": "activityId",
          "type": "uint256"
        },
        {
          "internalType": "uint256",
          "name": "choiceIndex",
          "type": "uint256"
        },
        {
          "internalType": "uint256",
          "name": "price",
          "type": "uint256"
        }
      ],
      "name": "mintTicketTo",
      "outputs": [
        {
          "internalType": "uint256",
          "name": "",
          "type": "uint256"
        }
      ],
      "stateMutability": "nonpayable",
      "type": "function"
    },
    {
      "inputs": [
        {
          "internalType": "address",
          "name": "",
          "type": "address"
        }
      ],
      "name": "minters",
      "outputs": [
        {
          "internalType": "bool",
          "name": "",
          "type": "bool"
        }
      ],
      "stateMutability": "view",
      "type": "function"
    },
    {
      "inputs": [],
      "name": "name",
      "outputs": [
        {
          "internalType": "string",
          "name": "",
          "type": "string"
        }
      ],
      "stateMutability": "view",
      "type": "function"
    },
    {
      "inputs": [],
      "name": "owner",
      "outputs": [
        {
          "internalType": "address",
          "name": "",
          "type": "address"
        }
      ],
      "stateMutability": "view",
      "type": "function"
    },
    {
      "inputs": [
        {
          "internalType": "uint256",
          "name": "tokenId",
          "type": "uint256"
        }
      ],
      "name": "ownerOf",
      "outputs": [
        {
          "internalType": "address",
          "name": "",
          "type": "address"
        }
      ],
      "stateMutability": "view",
      "type": "function"
    },
    {
      "inputs": [],
      "name": "renounceOwnership",
      "outputs": [],
      "stateMutability": "nonpayable",
      "type": "function"
    },
    {
      "inputs": [
        {
          "internalType": "address",
          "name": "from",
          "type": "address"
        },
        {
          "internalType": "address",
          "name": "to",
          "type": "address"
        },
        {
          "internalType": "uint256",
          "name": "tokenId",
          "type": "uint256"
        }
      ],
      "name": "safeTransferFrom",
      "outputs": [],
      "stateMutability": "nonpayable",
      "type": "function"
    },
    {
      "inputs": [
        {
          "internalType": "address",
          "name": "from",
          "type": "address"
        },
        {
          "internalType": "address",
          "name": "to",
          "type": "address"
        },
        {
          "internalType": "uint256",
          "name": "tokenId",
          "type": "uint256"
        },
        {
          "internalType": "bytes",
          "name": "data",
          "type": "bytes"
        }
      ],
      "name": "safeTransferFrom",
      "outputs": [],
      "stateMutability": "nonpayable",
      "type": "function"
    },
    {
      "inputs": [
        {
          "internalType": "address",
          "name": "operator",
          "type": "address"
        },
        {
          "internalType": "bool",
          "name": "approved",
          "type": "bool"
        }
      ],
      "name": "setApprovalForAll",
      "outputs": [],
      "stateMutability": "nonpayable",
      "type": "function"
    },
    {
      "inputs": [
        {
          "internalType": "bytes4",
          "name": "interfaceId",
          "type": "bytes4"
        }
      ],
      "name": "supportsInterface",
      "outputs": [
        {
          "internalType": "bool",
          "name": "",
          "type": "bool"
        }
      ],
      "stateMutability": "view",
      "type": "function"
    },
    {
      "inputs": [],
      "name": "symbol",
      "outputs": [
        {
          "internalType": "string",
          "name": "",
          "type": "string"
        }
      ],
      "stateMutability": "view",
      "type": "function"
    },
    {
      "inputs": [
        {
          "internalType": "uint256",
          "name": "",
          "type": "uint256"
        }
      ],
      "name": "ticketListedPrice",
      "outputs": [
        {
          "internalType": "uint256",
          "name": "",
          "type": "uint256"
        }
      ],
      "stateMutability": "view",
      "type": "function"
    },
    {
      "inputs": [
        {
          "internalType": "uint256",
          "name": "tokenId",
          "type": "uint256"
        }
      ],
      "name": "tokenURI",
      "outputs": [
        {
          "internalType": "string",
          "name": "",
          "type": "string"
        }
      ],
      "stateMutability": "view",
      "type": "function"
    },
    {
      "inputs": [
        {
          "internalType": "address",
          "name": "from",
          "type": "address"
        },
        {
          "internalType": "address",
          "name": "to",
          "type": "address"
        },
        {
          "internalType": "uint256",
          "name": "tokenId",
          "type": "uint256"
        }
      ],
      "name": "transferFrom",
      "outputs": [],
      "stateMutability": "nonpayable",
      "type": "function"
    },
    {
      "inputs": [
        {
          "internalType": "address",
          "name": "newOwner",
          "type": "address"
        }
      ],
      "name": "transferOwnership",
      "outputs": [],
      "stateMutability": "nonpayable",
      "type": "function"
    }
  ],
  "bytecode": "0x60806040523480156200001157600080fd5b506040516200487438038062004874833981810160405281019062000037919062000288565b806040518060400160405280600d81526020017f4c6f74746572795469636b6574000000000000000000000000000000000000008152506040518060400160405280600381526020017f4c545400000000000000000000000000000000000000000000000000000000008152508160009081620000b5919062000534565b508060019081620000c7919062000534565b505050600073ffffffffffffffffffffffffffffffffffffffff168173ffffffffffffffffffffffffffffffffffffffff16036200013f5760006040517f1e4fbdf70000000000000000000000000000000000000000000000000000000081526004016200013691906200062c565b60405180910390fd5b62000150816200015860201b60201c565b505062000649565b6000600660009054906101000a900473ffffffffffffffffffffffffffffffffffffffff16905081600660006101000a81548173ffffffffffffffffffffffffffffffffffffffff021916908373ffffffffffffffffffffffffffffffffffffffff1602179055508173ffffffffffffffffffffffffffffffffffffffff168173ffffffffffffffffffffffffffffffffffffffff167f8be0079c531659141344cd1fd0a4f28419497f9722a3daafe3b4186f6b6457e060405160405180910390a35050565b600080fd5b600073ffffffffffffffffffffffffffffffffffffffff82169050919050565b6000620002508262000223565b9050919050565b620002628162000243565b81146200026e57600080fd5b50565b600081519050620002828162000257565b92915050565b600060208284031215620002a157620002a06200021e565b5b6000620002b18482850162000271565b91505092915050565b600081519050919050565b7f4e487b7100000000000000000000000000000000000000000000000000000000600052604160045260246000fd5b7f4e487b7100000000000000000000000000000000000000000000000000000000600052602260045260246000fd5b600060028204905060018216806200033c57607f821691505b602082108103620003525762000351620002f4565b5b50919050565b60008190508160005260206000209050919050565b60006020601f8301049050919050565b600082821b905092915050565b600060088302620003bc7fffffffffffffffffffffffffffffffffffffffffffffffffffffffffffffffff826200037d565b620003c886836200037d565b95508019841693508086168417925050509392505050565b6000819050919050565b6000819050919050565b6000620004156200040f6200040984620003e0565b620003ea565b620003e0565b9050919050565b6000819050919050565b6200043183620003f4565b6200044962000440826200041c565b8484546200038a565b825550505050565b600090565b6200046062000451565b6200046d81848462000426565b505050565b5b8181101562000495576200048960008262000456565b60018101905062000473565b5050565b601f821115620004e457620004ae8162000358565b620004b9846200036d565b81016020851015620004c9578190505b620004e1620004d8856200036d565b83018262000472565b50505b505050565b600082821c905092915050565b60006200050960001984600802620004e9565b1980831691505092915050565b6000620005248383620004f6565b9150826002028217905092915050565b6200053f82620002ba565b67ffffffffffffffff8111156200055b576200055a620002c5565b5b62000567825462000323565b6200057482828562000499565b600060209050601f831160018114620005ac576000841562000597578287015190505b620005a3858262000516565b86555062000613565b601f198416620005bc8662000358565b60005b82811015620005e657848901518255600182019150602085019450602081019050620005bf565b8683101562000606578489015162000602601f891682620004f6565b8355505b6001600288020188555050505b505050505050565b620006268162000243565b82525050565b60006020820190506200064360008301846200061b565b92915050565b61421b80620006596000396000f3fe608060405234801561001057600080fd5b50600436106101fb5760003560e01c806395d89b411161011a578063c87b56dd116100ad578063edba7fbd1161007c578063edba7fbd146105fa578063f2fde38b1461062a578063f39d346114610646578063f46eccc414610676578063ff99a063146106a6576101fb565b8063c87b56dd1461054a578063d080b0001461057a578063e74579b114610598578063e985e9c5146105ca576101fb565b8063aec5de1d116100e9578063aec5de1d146104b2578063b86f2e34146104ce578063b88d4fde146104fe578063b90cc7aa1461051a576101fb565b806395d89b4114610418578063a050b3bf14610436578063a22cb46514610466578063a5064c6114610482576101fb565b8063305a905a116101925780636352211e116101615780636352211e1461039057806370a08231146103c0578063715018a6146103f05780638da5cb5b146103fa576101fb565b8063305a905a1461030a57806342842e0e1461032657806353b300e1146103425780635a9d1ac314610360576101fb565b806310e1b3f4116101ce57806310e1b3f41461029a57806313aba5e7146102b657806323b872dd146102d25780632bbe807b146102ee576101fb565b806301ffc9a71461020057806306fdde0314610230578063081812fc1461024e578063095ea7b31461027e575b600080fd5b61021a600480360381019061021591906130e2565b6106d8565b604051610227919061312a565b60405180910390f35b6102386107ba565b60405161024591906131d5565b60405180910390f35b6102686004803603810190610263919061322d565b61084c565b604051610275919061329b565b60405180910390f35b610298600480360381019061029391906132e2565b610868565b005b6102b460048036038101906102af91906132e2565b61087e565b005b6102d060048036038101906102cb9190613322565b610b1e565b005b6102ec60048036038101906102e7919061334f565b610c54565b005b6103086004803603810190610303919061322d565b610d56565b005b610324600480360381019061031f91906133a2565b610ee9565b005b610340600480360381019061033b919061334f565b611125565b005b61034a611145565b604051610357919061329b565b60405180910390f35b61037a6004803603810190610375919061322d565b61116b565b60405161038791906133f1565b60405180910390f35b6103aa60048036038101906103a5919061322d565b61118f565b6040516103b7919061329b565b60405180910390f35b6103da60048036038101906103d59190613322565b6111a1565b6040516103e791906133f1565b60405180910390f35b6103f861125b565b005b61040261126f565b60405161040f919061329b565b60405180910390f35b610420611299565b60405161042d91906131d5565b60405180910390f35b610450600480360381019061044b9190613431565b61132b565b60405161045d9190613542565b60405180910390f35b610480600480360381019061047b9190613590565b6118b7565b005b61049c600480360381019061049791906133a2565b6118cd565b6040516104a991906133f1565b60405180910390f35b6104cc60048036038101906104c7919061322d565b6118f2565b005b6104e860048036038101906104e391906135d0565b6119ef565b6040516104f591906133f1565b60405180910390f35b61051860048036038101906105139190613758565b611ae9565b005b610534600480360381019061052f91906137db565b611b06565b60405161054191906133f1565b60405180910390f35b610564600480360381019061055f919061322d565b611cca565b60405161057191906131d5565b60405180910390f35b610582611d33565b60405161058f9190613542565b60405180910390f35b6105b260048036038101906105ad919061322d565b611d8b565b6040516105c193929190613842565b60405180910390f35b6105e460048036038101906105df9190613879565b611db5565b6040516105f1919061312a565b60405180910390f35b610614600480360381019061060f919061322d565b611e49565b60405161062191906133f1565b60405180910390f35b610644600480360381019061063f9190613322565b611e61565b005b610660600480360381019061065b919061322d565b611ee7565b60405161066d91906133f1565b60405180910390f35b610690600480360381019061068b9190613322565b611f04565b60405161069d919061312a565b60405180910390f35b6106c060048036038101906106bb919061322d565b611f24565b6040516106cf93929190613842565b60405180910390f35b60007f80ac58cd000000000000000000000000000000000000000000000000000000007bffffffffffffffffffffffffffffffffffffffffffffffffffffffff1916827bffffffffffffffffffffffffffffffffffffffffffffffffffffffff191614806107a357507f5b5e139f000000000000000000000000000000000000000000000000000000007bffffffffffffffffffffffffffffffffffffffffffffffffffffffff1916827bffffffffffffffffffffffffffffffffffffffffffffffffffffffff1916145b806107b357506107b282611f85565b5b9050919050565b6060600080546107c9906138e8565b80601f01602080910402602001604051908101604052809291908181526020018280546107f5906138e8565b80156108425780601f1061081757610100808354040283529160200191610842565b820191906000526020600020905b81548152906001019060200180831161082557829003601f168201915b5050505050905090565b600061085782611fef565b5061086182612077565b9050919050565b61087a82826108756120b4565b6120bc565b5050565b600073ffffffffffffffffffffffffffffffffffffffff1661089f826120ce565b73ffffffffffffffffffffffffffffffffffffffff16036108f5576040517f08c379a00000000000000000000000000000000000000000000000000000000081526004016108ec90613965565b60405180910390fd5b6000600a600083815260200190815260200160002054905060008111610950576040517f08c379a0000000000000000000000000000000000000000000000000000000008152600401610947906139d1565b60405180910390fd5b3373ffffffffffffffffffffffffffffffffffffffff166109708361118f565b73ffffffffffffffffffffffffffffffffffffffff16036109c6576040517f08c379a00000000000000000000000000000000000000000000000000000000081526004016109bd90613a3d565b60405180910390fd5b60006109d18361118f565b9050600084905060008173ffffffffffffffffffffffffffffffffffffffff166323b872dd3385876040518463ffffffff1660e01b8152600401610a1793929190613a5d565b6020604051808303816000875af1158015610a36573d6000803e3d6000fd5b505050506040513d601f19601f82011682018060405250810190610a5a9190613aa9565b905080610a9c576040517f08c379a0000000000000000000000000000000000000000000000000000000008152600401610a9390613b22565b60405180910390fd5b610aa783338761210b565b610ab085612278565b600a6000868152602001908152602001600020600090553373ffffffffffffffffffffffffffffffffffffffff16857f913d09b391f64143215d9312fd7e8ecaa06001c646789c9d2109dc515bc34fad86604051610b0e91906133f1565b60405180910390a3505050505050565b610b2661236e565b80600d60006101000a81548173ffffffffffffffffffffffffffffffffffffffff021916908373ffffffffffffffffffffffffffffffffffffffff1602179055506001600e60008373ffffffffffffffffffffffffffffffffffffffff1673ffffffffffffffffffffffffffffffffffffffff16815260200190815260200160002060006101000a81548160ff0219169083151502179055508073ffffffffffffffffffffffffffffffffffffffff167fac3b57cd5dcb6d30950887846b6fb6f2eff726a1e6a4d895cc9ff8ac5682979460405160405180910390a28073ffffffffffffffffffffffffffffffffffffffff167fb21afb9ce9be0a676f8f317ff0ca072fb89a4f8ce2d1b6fe80f8755c14f1cb196001604051610c49919061312a565b60405180910390a250565b600073ffffffffffffffffffffffffffffffffffffffff168273ffffffffffffffffffffffffffffffffffffffff1603610cc65760006040517f64a0ae92000000000000000000000000000000000000000000000000000000008152600401610cbd919061329b565b60405180910390fd5b6000610cda8383610cd56120b4565b6123f5565b90508373ffffffffffffffffffffffffffffffffffffffff168173ffffffffffffffffffffffffffffffffffffffff1614610d50578382826040517f64283d7b000000000000000000000000000000000000000000000000000000008152600401610d4793929190613b42565b60405180910390fd5b50505050565b600073ffffffffffffffffffffffffffffffffffffffff16610d77826120ce565b73ffffffffffffffffffffffffffffffffffffffff1603610dcd576040517f08c379a0000000000000000000000000000000000000000000000000000000008152600401610dc490613965565b60405180910390fd5b3373ffffffffffffffffffffffffffffffffffffffff16610ded8261118f565b73ffffffffffffffffffffffffffffffffffffffff1614610e43576040517f08c379a0000000000000000000000000000000000000000000000000000000008152600401610e3a90613beb565b60405180910390fd5b6000600a60008381526020019081526020016000205411610e99576040517f08c379a0000000000000000000000000000000000000000000000000000000008152600401610e90906139d1565b60405180910390fd5b610ea281612278565b600a600082815260200190815260200160002060009055807f3967925235f70873eabda48c5242393d4d41d99cd105109a90601202792fad5060405160405180910390a250565b600073ffffffffffffffffffffffffffffffffffffffff16610f0a836120ce565b73ffffffffffffffffffffffffffffffffffffffff1603610f60576040517f08c379a0000000000000000000000000000000000000000000000000000000008152600401610f5790613965565b60405180910390fd5b3373ffffffffffffffffffffffffffffffffffffffff16610f808361118f565b73ffffffffffffffffffffffffffffffffffffffff1614610fd6576040517f08c379a0000000000000000000000000000000000000000000000000000000008152600401610fcd90613beb565b60405180910390fd5b60008111611019576040517f08c379a000000000000000000000000000000000000000000000000000000000815260040161101090613c57565b60405180910390fd5b6000600a6000848152602001908152602001600020541461106f576040517f08c379a000000000000000000000000000000000000000000000000000000000815260040161106690613cc3565b60405180910390fd5b6000600c600084815260200190815260200160002054036110d157600b829080600181540180825580915050600190039060005260206000200160009091909190915055600b80549050600c6000848152602001908152602001600020819055505b80600a600084815260200190815260200160002081905550817fbca2f6391cafd6d28d39261ba883dd74090c618befb806e74ef434778bb2f7ed8260405161111991906133f1565b60405180910390a25050565b61114083838360405180602001604052806000815250611ae9565b505050565b600d60009054906101000a900473ffffffffffffffffffffffffffffffffffffffff1681565b600b818154811061117b57600080fd5b906000526020600020016000915090505481565b600061119a82611fef565b9050919050565b60008073ffffffffffffffffffffffffffffffffffffffff168273ffffffffffffffffffffffffffffffffffffffff16036112145760006040517f89c62b6400000000000000000000000000000000000000000000000000000000815260040161120b919061329b565b60405180910390fd5b600360008373ffffffffffffffffffffffffffffffffffffffff1673ffffffffffffffffffffffffffffffffffffffff168152602001908152602001600020549050919050565b61126361236e565b61126d600061260f565b565b6000600660009054906101000a900473ffffffffffffffffffffffffffffffffffffffff16905090565b6060600180546112a8906138e8565b80601f01602080910402602001604051908101604052809291908181526020018280546112d4906138e8565b80156113215780601f106112f657610100808354040283529160200191611321565b820191906000526020600020905b81548152906001019060200180831161130457829003601f168201915b5050505050905090565b606060008414158061133d5750600b83145b61137c576040517f08c379a000000000000000000000000000000000000000000000000000000000815260040161137390613d55565b60405180910390fd5b6000600b8054806020026020016040519081016040528092919081815260200182805480156113ca57602002820191906000526020600020905b8154815260200190600101908083116113b6575b505050505090506000815190506000805b828110156114ac5760008482815181106113f8576113f7613d75565b5b60200260200101519050600060086000838152602001908152602001600020604051806060016040529081600082015481526020016001820154815260200160028201548152505090506000808b148061145557508a8260000151145b90506000808c14806114675750600b8b145b8061147557508a8360200151145b90508180156114815750805b1561149557858061149190613dd3565b9650505b5050505080806114a490613dd3565b9150506113db565b506000810361150957600067ffffffffffffffff8111156114d0576114cf61362d565b5b6040519080825280602002602001820160405280156114fe5781602001602082028036833780820191505090505b5093505050506118b0565b60008167ffffffffffffffff8111156115255761152461362d565b5b6040519080825280602002602001820160405280156115535781602001602082028036833780820191505090505b5090506000805b8481101561164b57600086828151811061157757611576613d75565b5b60200260200101519050600060086000838152602001908152602001600020604051806060016040529081600082015481526020016001820154815260200160028201548152505090506000808d14806115d457508c8260000151145b90506000808e14806115e65750600b8d145b806115f457508c8360200151145b90508180156116005750805b15611634578387878151811061161957611618613d75565b5b602002602001018181525050858061163090613dd3565b9650505b50505050808061164390613dd3565b91505061155a565b5060005b838110156118a65760005b600182866116689190613e1b565b6116729190613e1b565b81101561189257600084828151811061168e5761168d613d75565b5b602002602001015190506000856001846116a89190613e4f565b815181106116b9576116b8613d75565b5b6020026020010151905060006001808111156116d8576116d7613e83565b5b8c60018111156116eb576116ea613e83565b5b0361172857600a600083815260200190815260200160002054600a600085815260200190815260200160002054111561172357600190505b611829565b6000600181111561173c5761173b613e83565b5b8c600181111561174f5761174e613e83565b5b03611828576000600860008581526020019081526020016000206040518060600160405290816000820154815260200160018201548152602001600282015481525050905060006008600085815260200190815260200160002060405180606001604052908160008201548152602001600182015481526020016002820154815250509050600a60008681526020019081526020016000205481604001516117f79190613eb2565b600a600086815260200190815260200160002054836040015161181a9190613eb2565b101561182557600192505b50505b5b801561187c578187858151811061184357611842613d75565b5b602002602001018181525050828760018661185e9190613e4f565b8151811061186f5761186e613d75565b5b6020026020010181815250505b505050808061188a90613dd3565b91505061165a565b50808061189e90613dd3565b91505061164f565b5081955050505050505b9392505050565b6118c96118c26120b4565b83836126d5565b5050565b6009602052816000526040600020602052806000526040600020600091509150505481565b600d60009054906101000a900473ffffffffffffffffffffffffffffffffffffffff1673ffffffffffffffffffffffffffffffffffffffff163373ffffffffffffffffffffffffffffffffffffffff1614611982576040517f08c379a000000000000000000000000000000000000000000000000000000000815260040161197990613f66565b60405180910390fd5b6000600a60008381526020019081526020016000205411156119ec576119a781612278565b600a600082815260200190815260200160002060009055807f3967925235f70873eabda48c5242393d4d41d99cd105109a90601202792fad5060405160405180910390a25b50565b600060076000815480929190611a0490613dd3565b919050555060006007549050611a1a3382612844565b604051806060016040528086815260200185815260200184815250600860008381526020019081526020016000206000820151816000015560208201518160010155604082015181600201559050506009600086815260200190815260200160002060008581526020019081526020016000206000815480929190611a9e90613dd3565b919050555084817f9e41660f280c1aee026924103cb14d02be2ea5050109e3b5504c066960eeb3798686604051611ad6929190613f86565b60405180910390a3809150509392505050565b611af4848484610c54565b611b008484848461293d565b50505050565b6000600e60003373ffffffffffffffffffffffffffffffffffffffff1673ffffffffffffffffffffffffffffffffffffffff16815260200190815260200160002060009054906101000a900460ff1680611b9257503373ffffffffffffffffffffffffffffffffffffffff16611b7a61126f565b73ffffffffffffffffffffffffffffffffffffffff16145b611bd1576040517f08c379a0000000000000000000000000000000000000000000000000000000008152600401611bc890613ffb565b60405180910390fd5b60076000815480929190611be490613dd3565b919050555060006007549050611bfa8682612844565b604051806060016040528086815260200185815260200184815250600860008381526020019081526020016000206000820151816000015560208201518160010155604082015181600201559050506009600086815260200190815260200160002060008581526020019081526020016000206000815480929190611c7e90613dd3565b919050555084817f9e41660f280c1aee026924103cb14d02be2ea5050109e3b5504c066960eeb3798686604051611cb6929190613f86565b60405180910390a380915050949350505050565b6060611cd582611fef565b506000611ce0612af4565b90506000815111611d005760405180602001604052806000815250611d2b565b80611d0a84612b0b565b604051602001611d1b929190614057565b6040516020818303038152906040525b915050919050565b6060600b805480602002602001604051908101604052809291908181526020018280548015611d8157602002820191906000526020600020905b815481526020019060010190808311611d6d575b5050505050905090565b60086020528060005260406000206000915090508060000154908060010154908060020154905083565b6000600560008473ffffffffffffffffffffffffffffffffffffffff1673ffffffffffffffffffffffffffffffffffffffff16815260200190815260200160002060008373ffffffffffffffffffffffffffffffffffffffff1673ffffffffffffffffffffffffffffffffffffffff16815260200190815260200160002060009054906101000a900460ff16905092915050565b600a6020528060005260406000206000915090505481565b611e6961236e565b600073ffffffffffffffffffffffffffffffffffffffff168173ffffffffffffffffffffffffffffffffffffffff1603611edb5760006040517f1e4fbdf7000000000000000000000000000000000000000000000000000000008152600401611ed2919061329b565b60405180910390fd5b611ee48161260f565b50565b6000600a6000838152602001908152602001600020549050919050565b600e6020528060005260406000206000915054906101000a900460ff1681565b6000806000806008600086815260200190815260200160002060405180606001604052908160008201548152602001600182015481526020016002820154815250509050806000015181602001518260400151935093509350509193909250565b60007f01ffc9a7000000000000000000000000000000000000000000000000000000007bffffffffffffffffffffffffffffffffffffffffffffffffffffffff1916827bffffffffffffffffffffffffffffffffffffffffffffffffffffffff1916149050919050565b600080611ffb836120ce565b9050600073ffffffffffffffffffffffffffffffffffffffff168173ffffffffffffffffffffffffffffffffffffffff160361206e57826040517f7e27328900000000000000000000000000000000000000000000000000000000815260040161206591906133f1565b60405180910390fd5b80915050919050565b60006004600083815260200190815260200160002060009054906101000a900473ffffffffffffffffffffffffffffffffffffffff169050919050565b600033905090565b6120c98383836001612bd9565b505050565b60006002600083815260200190815260200160002060009054906101000a900473ffffffffffffffffffffffffffffffffffffffff169050919050565b600073ffffffffffffffffffffffffffffffffffffffff168273ffffffffffffffffffffffffffffffffffffffff160361217d5760006040517f64a0ae92000000000000000000000000000000000000000000000000000000008152600401612174919061329b565b60405180910390fd5b600061218b838360006123f5565b9050600073ffffffffffffffffffffffffffffffffffffffff168173ffffffffffffffffffffffffffffffffffffffff16036121fe57816040517f7e2732890000000000000000000000000000000000000000000000000000000081526004016121f591906133f1565b60405180910390fd5b8373ffffffffffffffffffffffffffffffffffffffff168173ffffffffffffffffffffffffffffffffffffffff1614612272578382826040517f64283d7b00000000000000000000000000000000000000000000000000000000815260040161226993929190613b42565b60405180910390fd5b50505050565b6000600c60008381526020019081526020016000205490506000810361229e575061236b565b6000600b8054905090506000600b6001836122b99190613e1b565b815481106122ca576122c9613d75565b5b906000526020600020015490508084146123265780600b6001856122ee9190613e1b565b815481106122ff576122fe613d75565b5b906000526020600020018190555082600c6000838152602001908152602001600020819055505b600b8054806123385761233761407b565b5b600190038181906000526020600020016000905590556000600c6000868152602001908152602001600020819055505050505b50565b6123766120b4565b73ffffffffffffffffffffffffffffffffffffffff1661239461126f565b73ffffffffffffffffffffffffffffffffffffffff16146123f3576123b76120b4565b6040517f118cdaa70000000000000000000000000000000000000000000000000000000081526004016123ea919061329b565b60405180910390fd5b565b600080612401846120ce565b9050600073ffffffffffffffffffffffffffffffffffffffff168373ffffffffffffffffffffffffffffffffffffffff161461244357612442818486612d9e565b5b600073ffffffffffffffffffffffffffffffffffffffff168173ffffffffffffffffffffffffffffffffffffffff16146124d457612485600085600080612bd9565b6001600360008373ffffffffffffffffffffffffffffffffffffffff1673ffffffffffffffffffffffffffffffffffffffff168152602001908152602001600020600082825403925050819055505b600073ffffffffffffffffffffffffffffffffffffffff168573ffffffffffffffffffffffffffffffffffffffff1614612557576001600360008773ffffffffffffffffffffffffffffffffffffffff1673ffffffffffffffffffffffffffffffffffffffff168152602001908152602001600020600082825401925050819055505b846002600086815260200190815260200160002060006101000a81548173ffffffffffffffffffffffffffffffffffffffff021916908373ffffffffffffffffffffffffffffffffffffffff160217905550838573ffffffffffffffffffffffffffffffffffffffff168273ffffffffffffffffffffffffffffffffffffffff167fddf252ad1be2c89b69c2b068fc378daa952ba7f163c4a11628f55a4df523b3ef60405160405180910390a4809150509392505050565b6000600660009054906101000a900473ffffffffffffffffffffffffffffffffffffffff16905081600660006101000a81548173ffffffffffffffffffffffffffffffffffffffff021916908373ffffffffffffffffffffffffffffffffffffffff1602179055508173ffffffffffffffffffffffffffffffffffffffff168173ffffffffffffffffffffffffffffffffffffffff167f8be0079c531659141344cd1fd0a4f28419497f9722a3daafe3b4186f6b6457e060405160405180910390a35050565b600073ffffffffffffffffffffffffffffffffffffffff168273ffffffffffffffffffffffffffffffffffffffff160361274657816040517f5b08ba1800000000000000000000000000000000000000000000000000000000815260040161273d919061329b565b60405180910390fd5b80600560008573ffffffffffffffffffffffffffffffffffffffff1673ffffffffffffffffffffffffffffffffffffffff16815260200190815260200160002060008473ffffffffffffffffffffffffffffffffffffffff1673ffffffffffffffffffffffffffffffffffffffff16815260200190815260200160002060006101000a81548160ff0219169083151502179055508173ffffffffffffffffffffffffffffffffffffffff168373ffffffffffffffffffffffffffffffffffffffff167f17307eab39ab6107e8899845ad3d59bd9653f200f220920489ca2b5937696c3183604051612837919061312a565b60405180910390a3505050565b600073ffffffffffffffffffffffffffffffffffffffff168273ffffffffffffffffffffffffffffffffffffffff16036128b65760006040517f64a0ae920000000000000000000000000000000000000000000000000000000081526004016128ad919061329b565b60405180910390fd5b60006128c4838360006123f5565b9050600073ffffffffffffffffffffffffffffffffffffffff168173ffffffffffffffffffffffffffffffffffffffff16146129385760006040517f73c6ac6e00000000000000000000000000000000000000000000000000000000815260040161292f919061329b565b60405180910390fd5b505050565b60008373ffffffffffffffffffffffffffffffffffffffff163b1115612aee578273ffffffffffffffffffffffffffffffffffffffff1663150b7a026129816120b4565b8685856040518563ffffffff1660e01b81526004016129a394939291906140ff565b6020604051808303816000875af19250505080156129df57506040513d601f19601f820116820180604052508101906129dc9190614160565b60015b612a63573d8060008114612a0f576040519150601f19603f3d011682016040523d82523d6000602084013e612a14565b606091505b506000815103612a5b57836040517f64a0ae92000000000000000000000000000000000000000000000000000000008152600401612a52919061329b565b60405180910390fd5b805181602001fd5b63150b7a0260e01b7bffffffffffffffffffffffffffffffffffffffffffffffffffffffff1916817bffffffffffffffffffffffffffffffffffffffffffffffffffffffff191614612aec57836040517f64a0ae92000000000000000000000000000000000000000000000000000000008152600401612ae3919061329b565b60405180910390fd5b505b50505050565b606060405180602001604052806000815250905090565b606060006001612b1a84612e62565b01905060008167ffffffffffffffff811115612b3957612b3861362d565b5b6040519080825280601f01601f191660200182016040528015612b6b5781602001600182028036833780820191505090505b509050600082602001820190505b600115612bce578080600190039150507f3031323334353637383961626364656600000000000000000000000000000000600a86061a8153600a8581612bc257612bc161418d565b5b04945060008503612b79575b819350505050919050565b8080612c125750600073ffffffffffffffffffffffffffffffffffffffff168273ffffffffffffffffffffffffffffffffffffffff1614155b15612d46576000612c2284611fef565b9050600073ffffffffffffffffffffffffffffffffffffffff168373ffffffffffffffffffffffffffffffffffffffff1614158015612c8d57508273ffffffffffffffffffffffffffffffffffffffff168173ffffffffffffffffffffffffffffffffffffffff1614155b8015612ca05750612c9e8184611db5565b155b15612ce257826040517fa9fbf51f000000000000000000000000000000000000000000000000000000008152600401612cd9919061329b565b60405180910390fd5b8115612d4457838573ffffffffffffffffffffffffffffffffffffffff168273ffffffffffffffffffffffffffffffffffffffff167f8c5be1e5ebec7d5bd14f71427d1e84f3dd0314c0f7b2291e5b200ac8c7c3b92560405160405180910390a45b505b836004600085815260200190815260200160002060006101000a81548173ffffffffffffffffffffffffffffffffffffffff021916908373ffffffffffffffffffffffffffffffffffffffff16021790555050505050565b612da9838383612fb5565b612e5d57600073ffffffffffffffffffffffffffffffffffffffff168373ffffffffffffffffffffffffffffffffffffffff1603612e1e57806040517f7e273289000000000000000000000000000000000000000000000000000000008152600401612e1591906133f1565b60405180910390fd5b81816040517f177e802f000000000000000000000000000000000000000000000000000000008152600401612e549291906141bc565b60405180910390fd5b505050565b600080600090507a184f03e93ff9f4daa797ed6e38ed64bf6a1f0100000000000000008310612ec0577a184f03e93ff9f4daa797ed6e38ed64bf6a1f0100000000000000008381612eb657612eb561418d565b5b0492506040810190505b6d04ee2d6d415b85acef81000000008310612efd576d04ee2d6d415b85acef81000000008381612ef357612ef261418d565b5b0492506020810190505b662386f26fc100008310612f2c57662386f26fc100008381612f2257612f2161418d565b5b0492506010810190505b6305f5e1008310612f55576305f5e1008381612f4b57612f4a61418d565b5b0492506008810190505b6127108310612f7a576127108381612f7057612f6f61418d565b5b0492506004810190505b60648310612f9d5760648381612f9357612f9261418d565b5b0492506002810190505b600a8310612fac576001810190505b80915050919050565b60008073ffffffffffffffffffffffffffffffffffffffff168373ffffffffffffffffffffffffffffffffffffffff161415801561306d57508273ffffffffffffffffffffffffffffffffffffffff168473ffffffffffffffffffffffffffffffffffffffff16148061302e575061302d8484611db5565b5b8061306c57508273ffffffffffffffffffffffffffffffffffffffff1661305483612077565b73ffffffffffffffffffffffffffffffffffffffff16145b5b90509392505050565b6000604051905090565b600080fd5b600080fd5b60007fffffffff0000000000000000000000000000000000000000000000000000000082169050919050565b6130bf8161308a565b81146130ca57600080fd5b50565b6000813590506130dc816130b6565b92915050565b6000602082840312156130f8576130f7613080565b5b6000613106848285016130cd565b91505092915050565b60008115159050919050565b6131248161310f565b82525050565b600060208201905061313f600083018461311b565b92915050565b600081519050919050565b600082825260208201905092915050565b60005b8381101561317f578082015181840152602081019050613164565b60008484015250505050565b6000601f19601f8301169050919050565b60006131a782613145565b6131b18185613150565b93506131c1818560208601613161565b6131ca8161318b565b840191505092915050565b600060208201905081810360008301526131ef818461319c565b905092915050565b6000819050919050565b61320a816131f7565b811461321557600080fd5b50565b60008135905061322781613201565b92915050565b60006020828403121561324357613242613080565b5b600061325184828501613218565b91505092915050565b600073ffffffffffffffffffffffffffffffffffffffff82169050919050565b60006132858261325a565b9050919050565b6132958161327a565b82525050565b60006020820190506132b0600083018461328c565b92915050565b6132bf8161327a565b81146132ca57600080fd5b50565b6000813590506132dc816132b6565b92915050565b600080604083850312156132f9576132f8613080565b5b6000613307858286016132cd565b925050602061331885828601613218565b9150509250929050565b60006020828403121561333857613337613080565b5b6000613346848285016132cd565b91505092915050565b60008060006060848603121561336857613367613080565b5b6000613376868287016132cd565b9350506020613387868287016132cd565b925050604061339886828701613218565b9150509250925092565b600080604083850312156133b9576133b8613080565b5b60006133c785828601613218565b92505060206133d885828601613218565b9150509250929050565b6133eb816131f7565b82525050565b600060208201905061340660008301846133e2565b92915050565b6002811061341957600080fd5b50565b60008135905061342b8161340c565b92915050565b60008060006060848603121561344a57613449613080565b5b600061345886828701613218565b935050602061346986828701613218565b925050604061347a8682870161341c565b9150509250925092565b600081519050919050565b600082825260208201905092915050565b6000819050602082019050919050565b6134b9816131f7565b82525050565b60006134cb83836134b0565b60208301905092915050565b6000602082019050919050565b60006134ef82613484565b6134f9818561348f565b9350613504836134a0565b8060005b8381101561353557815161351c88826134bf565b9750613527836134d7565b925050600181019050613508565b5085935050505092915050565b6000602082019050818103600083015261355c81846134e4565b905092915050565b61356d8161310f565b811461357857600080fd5b50565b60008135905061358a81613564565b92915050565b600080604083850312156135a7576135a6613080565b5b60006135b5858286016132cd565b92505060206135c68582860161357b565b9150509250929050565b6000806000606084860312156135e9576135e8613080565b5b60006135f786828701613218565b935050602061360886828701613218565b925050604061361986828701613218565b9150509250925092565b600080fd5b600080fd5b7f4e487b7100000000000000000000000000000000000000000000000000000000600052604160045260246000fd5b6136658261318b565b810181811067ffffffffffffffff821117156136845761368361362d565b5b80604052505050565b6000613697613076565b90506136a3828261365c565b919050565b600067ffffffffffffffff8211156136c3576136c261362d565b5b6136cc8261318b565b9050602081019050919050565b82818337600083830152505050565b60006136fb6136f6846136a8565b61368d565b90508281526020810184848401111561371757613716613628565b5b6137228482856136d9565b509392505050565b600082601f83011261373f5761373e613623565b5b813561374f8482602086016136e8565b91505092915050565b6000806000806080858703121561377257613771613080565b5b6000613780878288016132cd565b9450506020613791878288016132cd565b93505060406137a287828801613218565b925050606085013567ffffffffffffffff8111156137c3576137c2613085565b5b6137cf8782880161372a565b91505092959194509250565b600080600080608085870312156137f5576137f4613080565b5b6000613803878288016132cd565b945050602061381487828801613218565b935050604061382587828801613218565b925050606061383687828801613218565b91505092959194509250565b600060608201905061385760008301866133e2565b61386460208301856133e2565b61387160408301846133e2565b949350505050565b600080604083850312156138905761388f613080565b5b600061389e858286016132cd565b92505060206138af858286016132cd565b9150509250929050565b7f4e487b7100000000000000000000000000000000000000000000000000000000600052602260045260246000fd5b6000600282049050600182168061390057607f821691505b602082108103613913576139126138b9565b5b50919050565b7f5469636b657420646f6573206e6f742065786973740000000000000000000000600082015250565b600061394f601583613150565b915061395a82613919565b602082019050919050565b6000602082019050818103600083015261397e81613942565b9050919050565b7f5469636b6574206973206e6f74206c6973746564000000000000000000000000600082015250565b60006139bb601483613150565b91506139c682613985565b602082019050919050565b600060208201905081810360008301526139ea816139ae565b9050919050565b7f596f752063616e6e6f742062757920796f7572206f776e207469636b65740000600082015250565b6000613a27601e83613150565b9150613a32826139f1565b602082019050919050565b60006020820190508181036000830152613a5681613a1a565b9050919050565b6000606082019050613a72600083018661328c565b613a7f602083018561328c565b613a8c60408301846133e2565b949350505050565b600081519050613aa381613564565b92915050565b600060208284031215613abf57613abe613080565b5b6000613acd84828501613a94565b91505092915050565b7f4552433230207472616e73666572206661696c65640000000000000000000000600082015250565b6000613b0c601583613150565b9150613b1782613ad6565b602082019050919050565b60006020820190508181036000830152613b3b81613aff565b9050919050565b6000606082019050613b57600083018661328c565b613b6460208301856133e2565b613b71604083018461328c565b949350505050565b7f596f7520617265206e6f7420746865206f776e6572206f66207468697320746960008201527f636b657400000000000000000000000000000000000000000000000000000000602082015250565b6000613bd5602483613150565b9150613be082613b79565b604082019050919050565b60006020820190508181036000830152613c0481613bc8565b9050919050565b7f5072696365206d7573742062652067726561746572207468616e203000000000600082015250565b6000613c41601c83613150565b9150613c4c82613c0b565b602082019050919050565b60006020820190508181036000830152613c7081613c34565b9050919050565b7f5469636b657420697320616c7265616479206c69737465640000000000000000600082015250565b6000613cad601883613150565b9150613cb882613c77565b602082019050919050565b60006020820190508181036000830152613cdc81613ca0565b9050919050565b7f43616e6e6f742066696c7465722062792063686f69636520776974686f75742060008201527f616e206163746976697479000000000000000000000000000000000000000000602082015250565b6000613d3f602b83613150565b9150613d4a82613ce3565b604082019050919050565b60006020820190508181036000830152613d6e81613d32565b9050919050565b7f4e487b7100000000000000000000000000000000000000000000000000000000600052603260045260246000fd5b7f4e487b7100000000000000000000000000000000000000000000000000000000600052601160045260246000fd5b6000613dde826131f7565b91507fffffffffffffffffffffffffffffffffffffffffffffffffffffffffffffffff8203613e1057613e0f613da4565b5b600182019050919050565b6000613e26826131f7565b9150613e31836131f7565b9250828203905081811115613e4957613e48613da4565b5b92915050565b6000613e5a826131f7565b9150613e65836131f7565b9250828201905080821115613e7d57613e7c613da4565b5b92915050565b7f4e487b7100000000000000000000000000000000000000000000000000000000600052602160045260246000fd5b6000613ebd826131f7565b9150613ec8836131f7565b9250828202613ed6816131f7565b91508282048414831517613eed57613eec613da4565b5b5092915050565b7f43616c6c6572206973206e6f7420746865204561737942657420636f6e74726160008201527f6374000000000000000000000000000000000000000000000000000000000000602082015250565b6000613f50602283613150565b9150613f5b82613ef4565b604082019050919050565b60006020820190508181036000830152613f7f81613f43565b9050919050565b6000604082019050613f9b60008301856133e2565b613fa860208301846133e2565b9392505050565b7f4e6f7420617574686f72697a656420746f206d696e7400000000000000000000600082015250565b6000613fe5601683613150565b9150613ff082613faf565b602082019050919050565b6000602082019050818103600083015261401481613fd8565b9050919050565b600081905092915050565b600061403182613145565b61403b818561401b565b935061404b818560208601613161565b80840191505092915050565b60006140638285614026565b915061406f8284614026565b91508190509392505050565b7f4e487b7100000000000000000000000000000000000000000000000000000000600052603160045260246000fd5b600081519050919050565b600082825260208201905092915050565b60006140d1826140aa565b6140db81856140b5565b93506140eb818560208601613161565b6140f48161318b565b840191505092915050565b6000608082019050614114600083018761328c565b614121602083018661328c565b61412e60408301856133e2565b818103606083015261414081846140c6565b905095945050505050565b60008151905061415a816130b6565b92915050565b60006020828403121561417657614175613080565b5b60006141848482850161414b565b91505092915050565b7f4e487b7100000000000000000000000000000000000000000000000000000000600052601260045260246000fd5b60006040820190506141d1600083018561328c565b6141de60208301846133e2565b939250505056fea264697066735822122072c2678458016d253e70ff9922186a708044dbcb5148e5080a495fb6d2e3adc864736f6c63430008140033",
  "linkReferences": {},
  "deployedLinkReferences": {}
}