{
  "_format": "hh-sol-artifact-1",
  "contractName": "LotteryNFT",
  "sourceName": "contracts/LotteryNFT.sol",
  "abi": [
    {
      "inputs": [
        {
          "internalType": "address",
          "name": "initialOwner",
          "type": "address"
        }
      ],
      "stateMutability": "nonpayable",
      "type": "constructor"
    },
    {
      "inputs": [
        {
          "internalType": "address",
          "name": "sender",
          "type": "address"
        },
        {
          "internalType": "uint256",
          "name": "tokenId",
          "type": "uint256"
        },
        {
          "internalType": "address",
          "name": "owner",
          "type": "address"
        }
      ],
      "name": "ERC721IncorrectOwner",
      "type": "error"
    },
    {
      "inputs": [
        {
          "internalType": "address",
          "name": "operator",
          "type": "address"
        },
        {
          "internalType": "uint256",
          "name": "tokenId",
          "type": "uint256"
        }
      ],
      "name": "ERC721InsufficientApproval",
      "type": "error"
    },
    {
      "inputs": [
        {
          "internalType": "address",
          "name": "approver",
          "type": "address"
        }
      ],
      "name": "ERC721InvalidApprover",
      "type": "error"
    },
    {
      "inputs": [
        {
          "internalType": "address",
          "name": "operator",
          "type": "address"
        }
      ],
      "name": "ERC721InvalidOperator",
      "type": "error"
    },
    {
      "inputs": [
        {
          "internalType": "address",
          "name": "owner",
          "type": "address"
        }
      ],
      "name": "ERC721InvalidOwner",
      "type": "error"
    },
    {
      "inputs": [
        {
          "internalType": "address",
          "name": "receiver",
          "type": "address"
        }
      ],
      "name": "ERC721InvalidReceiver",
      "type": "error"
    },
    {
      "inputs": [
        {
          "internalType": "address",
          "name": "sender",
          "type": "address"
        }
      ],
      "name": "ERC721InvalidSender",
      "type": "error"
    },
    {
      "inputs": [
        {
          "internalType": "uint256",
          "name": "tokenId",
          "type": "uint256"
        }
      ],
      "name": "ERC721NonexistentToken",
      "type": "error"
    },
    {
      "inputs": [
        {
          "internalType": "address",
          "name": "owner",
          "type": "address"
        }
      ],
      "name": "OwnableInvalidOwner",
      "type": "error"
    },
    {
      "inputs": [
        {
          "internalType": "address",
          "name": "account",
          "type": "address"
        }
      ],
      "name": "OwnableUnauthorizedAccount",
      "type": "error"
    },
    {
      "anonymous": false,
      "inputs": [
        {
          "indexed": true,
          "internalType": "address",
          "name": "owner",
          "type": "address"
        },
        {
          "indexed": true,
          "internalType": "address",
          "name": "approved",
          "type": "address"
        },
        {
          "indexed": true,
          "internalType": "uint256",
          "name": "tokenId",
          "type": "uint256"
        }
      ],
      "name": "Approval",
      "type": "event"
    },
    {
      "anonymous": false,
      "inputs": [
        {
          "indexed": true,
          "internalType": "address",
          "name": "owner",
          "type": "address"
        },
        {
          "indexed": true,
          "internalType": "address",
          "name": "operator",
          "type": "address"
        },
        {
          "indexed": false,
          "internalType": "bool",
          "name": "approved",
          "type": "bool"
        }
      ],
      "name": "ApprovalForAll",
      "type": "event"
    },
    {
      "anonymous": false,
      "inputs": [
        {
          "indexed": true,
          "internalType": "address",
          "name": "account",
          "type": "address"
        },
        {
          "indexed": false,
          "internalType": "bool",
          "name": "allowed",
          "type": "bool"
        }
      ],
      "name": "MinterUpdated",
      "type": "event"
    },
    {
      "anonymous": false,
      "inputs": [
        {
          "indexed": true,
          "internalType": "address",
          "name": "previousOwner",
          "type": "address"
        },
        {
          "indexed": true,
          "internalType": "address",
          "name": "newOwner",
          "type": "address"
        }
      ],
      "name": "OwnershipTransferred",
      "type": "event"
    },
    {
      "anonymous": false,
      "inputs": [
        {
          "indexed": true,
          "internalType": "uint256",
          "name": "tokenId",
          "type": "uint256"
        },
        {
          "indexed": true,
          "internalType": "address",
          "name": "buyer",
          "type": "address"
        },
        {
          "indexed": false,
          "internalType": "uint256",
          "name": "price",
          "type": "uint256"
        }
      ],
      "name": "TicketBought",
      "type": "event"
    },
    {
      "anonymous": false,
      "inputs": [
        {
          "indexed": true,
          "internalType": "uint256",
          "name": "tokenId",
          "type": "uint256"
        }
      ],
      "name": "TicketDelisted",
      "type": "event"
    },
    {
      "anonymous": false,
      "inputs": [
        {
          "indexed": true,
          "internalType": "uint256",
          "name": "tokenId",
          "type": "uint256"
        },
        {
          "indexed": false,
          "internalType": "uint256",
          "name": "price",
          "type": "uint256"
        }
      ],
      "name": "TicketListed",
      "type": "event"
    },
    {
      "anonymous": false,
      "inputs": [
        {
          "indexed": true,
          "internalType": "uint256",
          "name": "tokenId",
          "type": "uint256"
        },
        {
          "indexed": true,
          "internalType": "uint256",
          "name": "activityId",
          "type": "uint256"
        },
        {
          "indexed": false,
          "internalType": "uint256",
          "name": "choiceIndex",
          "type": "uint256"
        },
        {
          "indexed": false,
          "internalType": "uint256",
          "name": "price",
          "type": "uint256"
        }
      ],
      "name": "TicketMinted",
      "type": "event"
    },
    {
      "anonymous": false,
      "inputs": [
        {
          "indexed": true,
          "internalType": "address",
          "name": "from",
          "type": "address"
        },
        {
          "indexed": true,
          "internalType": "address",
          "name": "to",
          "type": "address"
        },
        {
          "indexed": true,
          "internalType": "uint256",
          "name": "tokenId",
          "type": "uint256"
        }
      ],
      "name": "Transfer",
      "type": "event"
    },
    {
      "inputs": [
        {
          "internalType": "address",
          "name": "to",
          "type": "address"
        },
        {
          "internalType": "uint256",
          "name": "tokenId",
          "type": "uint256"
        }
      ],
      "name": "approve",
      "outputs": [],
      "stateMutability": "nonpayable",
      "type": "function"
    },
    {
      "inputs": [
        {
          "internalType": "address",
          "name": "owner",
          "type": "address"
        }
      ],
      "name": "balanceOf",
      "outputs": [
        {
          "internalType": "uint256",
          "name": "",
          "type": "uint256"
        }
      ],
      "stateMutability": "view",
      "type": "function"
    },
    {
      "inputs": [
        {
          "internalType": "uint256",
          "name": "tokenId",
          "type": "uint256"
        }
      ],
      "name": "buyListedTicket",
      "outputs": [],
      "stateMutability": "payable",
      "type": "function"
    },
    {
      "inputs": [
        {
          "internalType": "address",
          "name": "erc20Address",
          "type": "address"
        },
        {
          "internalType": "uint256",
          "name": "tokenId",
          "type": "uint256"
        }
      ],
      "name": "buyListedTicketWithERC20",
      "outputs": [],
      "stateMutability": "nonpayable",
      "type": "function"
    },
    {
      "inputs": [
        {
          "internalType": "uint256",
          "name": "",
          "type": "uint256"
        },
        {
          "internalType": "uint256",
          "name": "",
          "type": "uint256"
        }
      ],
      "name": "choiceCount",
      "outputs": [
        {
          "internalType": "uint256",
          "name": "",
          "type": "uint256"
        }
      ],
      "stateMutability": "view",
      "type": "function"
    },
    {
      "inputs": [
        {
          "internalType": "uint256",
          "name": "tokenId",
          "type": "uint256"
        }
      ],
      "name": "delistTicket",
      "outputs": [],
      "stateMutability": "nonpayable",
      "type": "function"
    },
    {
      "inputs": [
        {
          "internalType": "uint256",
          "name": "tokenId",
          "type": "uint256"
        }
      ],
      "name": "exists",
      "outputs": [
        {
          "internalType": "bool",
          "name": "",
          "type": "bool"
        }
      ],
      "stateMutability": "view",
      "type": "function"
    },
    {
      "inputs": [],
      "name": "getAllListedTickets",
      "outputs": [
        {
          "internalType": "uint256[]",
          "name": "",
          "type": "uint256[]"
        }
      ],
      "stateMutability": "view",
      "type": "function"
    },
    {
      "inputs": [
        {
          "internalType": "uint256",
          "name": "tokenId",
          "type": "uint256"
        }
      ],
      "name": "getApproved",
      "outputs": [
        {
          "internalType": "address",
          "name": "",
          "type": "address"
        }
      ],
      "stateMutability": "view",
      "type": "function"
    },
    {
      "inputs": [
        {
          "internalType": "uint256",
          "name": "tokenId",
          "type": "uint256"
        }
      ],
      "name": "getTicketInfo",
      "outputs": [
        {
          "internalType": "uint256",
          "name": "activityId",
          "type": "uint256"
        },
        {
          "internalType": "uint256",
          "name": "choiceIndex",
          "type": "uint256"
        },
        {
          "internalType": "uint256",
          "name": "price",
          "type": "uint256"
        }
      ],
      "stateMutability": "view",
      "type": "function"
    },
    {
      "inputs": [
        {
          "internalType": "uint256",
          "name": "tokenId",
          "type": "uint256"
        }
      ],
      "name": "getTicketListedPrice",
      "outputs": [
        {
          "internalType": "uint256",
          "name": "",
          "type": "uint256"
        }
      ],
      "stateMutability": "view",
      "type": "function"
    },
    {
      "inputs": [
        {
          "internalType": "address",
          "name": "owner",
          "type": "address"
        },
        {
          "internalType": "address",
          "name": "operator",
          "type": "address"
        }
      ],
      "name": "isApprovedForAll",
      "outputs": [
        {
          "internalType": "bool",
          "name": "",
          "type": "bool"
        }
      ],
      "stateMutability": "view",
      "type": "function"
    },
    {
      "inputs": [
        {
          "internalType": "uint256",
          "name": "tokenId",
          "type": "uint256"
        },
        {
          "internalType": "uint256",
          "name": "price",
          "type": "uint256"
        }
      ],
      "name": "listTicket",
      "outputs": [],
      "stateMutability": "nonpayable",
      "type": "function"
    },
    {
      "inputs": [
        {
          "internalType": "uint256",
          "name": "",
          "type": "uint256"
        }
      ],
      "name": "listedTokens",
      "outputs": [
        {
          "internalType": "uint256",
          "name": "",
          "type": "uint256"
        }
      ],
      "stateMutability": "view",
      "type": "function"
    },
    {
      "inputs": [
        {
          "internalType": "uint256",
          "name": "",
          "type": "uint256"
        }
      ],
      "name": "lotteryTickets",
      "outputs": [
        {
          "internalType": "uint256",
          "name": "activityId",
          "type": "uint256"
        },
        {
          "internalType": "uint256",
          "name": "choiceIndex",
          "type": "uint256"
        },
        {
          "internalType": "uint256",
          "name": "price",
          "type": "uint256"
        }
      ],
      "stateMutability": "view",
      "type": "function"
    },
    {
      "inputs": [
        {
          "internalType": "uint256",
          "name": "activityId",
          "type": "uint256"
        },
        {
          "internalType": "uint256",
          "name": "choiceIndex",
          "type": "uint256"
        },
        {
          "internalType": "uint256",
          "name": "price",
          "type": "uint256"
        }
      ],
      "name": "mintTicket",
      "outputs": [
        {
          "internalType": "uint256",
          "name": "",
          "type": "uint256"
        }
      ],
      "stateMutability": "nonpayable",
      "type": "function"
    },
    {
      "inputs": [
        {
          "internalType": "address",
          "name": "to",
          "type": "address"
        },
        {
          "internalType": "uint256",
          "name": "activityId",
          "type": "uint256"
        },
        {
          "internalType": "uint256",
          "name": "choiceIndex",
          "type": "uint256"
        },
        {
          "internalType": "uint256",
          "name": "price",
          "type": "uint256"
        }
      ],
      "name": "mintTicketTo",
      "outputs": [
        {
          "internalType": "uint256",
          "name": "",
          "type": "uint256"
        }
      ],
      "stateMutability": "nonpayable",
      "type": "function"
    },
    {
      "inputs": [
        {
          "internalType": "address",
          "name": "",
          "type": "address"
        }
      ],
      "name": "minters",
      "outputs": [
        {
          "internalType": "bool",
          "name": "",
          "type": "bool"
        }
      ],
      "stateMutability": "view",
      "type": "function"
    },
    {
      "inputs": [],
      "name": "name",
      "outputs": [
        {
          "internalType": "string",
          "name": "",
          "type": "string"
        }
      ],
      "stateMutability": "view",
      "type": "function"
    },
    {
      "inputs": [],
      "name": "owner",
      "outputs": [
        {
          "internalType": "address",
          "name": "",
          "type": "address"
        }
      ],
      "stateMutability": "view",
      "type": "function"
    },
    {
      "inputs": [
        {
          "internalType": "uint256",
          "name": "tokenId",
          "type": "uint256"
        }
      ],
      "name": "ownerOf",
      "outputs": [
        {
          "internalType": "address",
          "name": "",
          "type": "address"
        }
      ],
      "stateMutability": "view",
      "type": "function"
    },
    {
      "inputs": [],
      "name": "renounceOwnership",
      "outputs": [],
      "stateMutability": "nonpayable",
      "type": "function"
    },
    {
      "inputs": [
        {
          "internalType": "address",
          "name": "from",
          "type": "address"
        },
        {
          "internalType": "address",
          "name": "to",
          "type": "address"
        },
        {
          "internalType": "uint256",
          "name": "tokenId",
          "type": "uint256"
        }
      ],
      "name": "safeTransferFrom",
      "outputs": [],
      "stateMutability": "nonpayable",
      "type": "function"
    },
    {
      "inputs": [
        {
          "internalType": "address",
          "name": "from",
          "type": "address"
        },
        {
          "internalType": "address",
          "name": "to",
          "type": "address"
        },
        {
          "internalType": "uint256",
          "name": "tokenId",
          "type": "uint256"
        },
        {
          "internalType": "bytes",
          "name": "data",
          "type": "bytes"
        }
      ],
      "name": "safeTransferFrom",
      "outputs": [],
      "stateMutability": "nonpayable",
      "type": "function"
    },
    {
      "inputs": [
        {
          "internalType": "address",
          "name": "operator",
          "type": "address"
        },
        {
          "internalType": "bool",
          "name": "approved",
          "type": "bool"
        }
      ],
      "name": "setApprovalForAll",
      "outputs": [],
      "stateMutability": "nonpayable",
      "type": "function"
    },
    {
      "inputs": [
        {
          "internalType": "address",
          "name": "account",
          "type": "address"
        },
        {
          "internalType": "bool",
          "name": "allowed",
          "type": "bool"
        }
      ],
      "name": "setMinter",
      "outputs": [],
      "stateMutability": "nonpayable",
      "type": "function"
    },
    {
      "inputs": [
        {
          "internalType": "bytes4",
          "name": "interfaceId",
          "type": "bytes4"
        }
      ],
      "name": "supportsInterface",
      "outputs": [
        {
          "internalType": "bool",
          "name": "",
          "type": "bool"
        }
      ],
      "stateMutability": "view",
      "type": "function"
    },
    {
      "inputs": [],
      "name": "symbol",
      "outputs": [
        {
          "internalType": "string",
          "name": "",
          "type": "string"
        }
      ],
      "stateMutability": "view",
      "type": "function"
    },
    {
      "inputs": [
        {
          "internalType": "uint256",
          "name": "",
          "type": "uint256"
        }
      ],
      "name": "ticketListedPrice",
      "outputs": [
        {
          "internalType": "uint256",
          "name": "",
          "type": "uint256"
        }
      ],
      "stateMutability": "view",
      "type": "function"
    },
    {
      "inputs": [
        {
          "internalType": "uint256",
          "name": "tokenId",
          "type": "uint256"
        }
      ],
      "name": "tokenURI",
      "outputs": [
        {
          "internalType": "string",
          "name": "",
          "type": "string"
        }
      ],
      "stateMutability": "view",
      "type": "function"
    },
    {
      "inputs": [
        {
          "internalType": "address",
          "name": "from",
          "type": "address"
        },
        {
          "internalType": "address",
          "name": "to",
          "type": "address"
        },
        {
          "internalType": "uint256",
          "name": "tokenId",
          "type": "uint256"
        }
      ],
      "name": "transferFrom",
      "outputs": [],
      "stateMutability": "nonpayable",
      "type": "function"
    },
    {
      "inputs": [
        {
          "internalType": "address",
          "name": "newOwner",
          "type": "address"
        }
      ],
      "name": "transferOwnership",
      "outputs": [],
      "stateMutability": "nonpayable",
      "type": "function"
    }
  ],
  "bytecode": "0x60806040523480156200001157600080fd5b50604051620042b1380380620042b1833981810160405281019062000037919062000288565b806040518060400160405280600d81526020017f4c6f74746572795469636b6574000000000000000000000000000000000000008152506040518060400160405280600381526020017f4c545400000000000000000000000000000000000000000000000000000000008152508160009081620000b5919062000534565b508060019081620000c7919062000534565b505050600073ffffffffffffffffffffffffffffffffffffffff168173ffffffffffffffffffffffffffffffffffffffff16036200013f5760006040517f1e4fbdf70000000000000000000000000000000000000000000000000000000081526004016200013691906200062c565b60405180910390fd5b62000150816200015860201b60201c565b505062000649565b6000600660009054906101000a900473ffffffffffffffffffffffffffffffffffffffff16905081600660006101000a81548173ffffffffffffffffffffffffffffffffffffffff021916908373ffffffffffffffffffffffffffffffffffffffff1602179055508173ffffffffffffffffffffffffffffffffffffffff168173ffffffffffffffffffffffffffffffffffffffff167f8be0079c531659141344cd1fd0a4f28419497f9722a3daafe3b4186f6b6457e060405160405180910390a35050565b600080fd5b600073ffffffffffffffffffffffffffffffffffffffff82169050919050565b6000620002508262000223565b9050919050565b620002628162000243565b81146200026e57600080fd5b50565b600081519050620002828162000257565b92915050565b600060208284031215620002a157620002a06200021e565b5b6000620002b18482850162000271565b91505092915050565b600081519050919050565b7f4e487b7100000000000000000000000000000000000000000000000000000000600052604160045260246000fd5b7f4e487b7100000000000000000000000000000000000000000000000000000000600052602260045260246000fd5b600060028204905060018216806200033c57607f821691505b602082108103620003525762000351620002f4565b5b50919050565b60008190508160005260206000209050919050565b60006020601f8301049050919050565b600082821b905092915050565b600060088302620003bc7fffffffffffffffffffffffffffffffffffffffffffffffffffffffffffffffff826200037d565b620003c886836200037d565b95508019841693508086168417925050509392505050565b6000819050919050565b6000819050919050565b6000620004156200040f6200040984620003e0565b620003ea565b620003e0565b9050919050565b6000819050919050565b6200043183620003f4565b6200044962000440826200041c565b8484546200038a565b825550505050565b600090565b6200046062000451565b6200046d81848462000426565b505050565b5b8181101562000495576200048960008262000456565b60018101905062000473565b5050565b601f821115620004e457620004ae8162000358565b620004b9846200036d565b81016020851015620004c9578190505b620004e1620004d8856200036d565b83018262000472565b50505b505050565b600082821c905092915050565b60006200050960001984600802620004e9565b1980831691505092915050565b6000620005248383620004f6565b9150826002028217905092915050565b6200053f82620002ba565b67ffffffffffffffff8111156200055b576200055a620002c5565b5b62000567825462000323565b6200057482828562000499565b600060209050601f831160018114620005ac576000841562000597578287015190505b620005a3858262000516565b86555062000613565b601f198416620005bc8662000358565b60005b82811015620005e657848901518255600182019150602085019450602081019050620005bf565b8683101562000606578489015162000602601f891682620004f6565b8355505b6001600288020188555050505b505050505050565b620006268162000243565b82525050565b60006020820190506200064360008301846200061b565b92915050565b613c5880620006596000396000f3fe6080604052600436106101e35760003560e01c806395d89b4111610102578063d080b00011610095578063f2fde38b11610064578063f2fde38b14610753578063f39d34611461077c578063f46eccc4146107b9578063ff99a063146107f6576101e3565b8063d080b0001461066f578063e74579b11461069a578063e985e9c5146106d9578063edba7fbd14610716576101e3565b8063b88d4fde116100d1578063b88d4fde146105a3578063b90cc7aa146105cc578063c87b56dd14610609578063cf456ae714610646576101e3565b806395d89b41146104d5578063a22cb46514610500578063a5064c6114610529578063b86f2e3414610566576101e3565b806342842e0e1161017a5780636352211e116101495780636352211e1461041957806370a0823114610456578063715018a6146104935780638da5cb5b146104aa576101e3565b806342842e0e1461035a5780634f558e791461038357806350248853146103c05780635a9d1ac3146103dc576101e3565b806310e1b3f4116101b657806310e1b3f4146102b657806323b872dd146102df5780632bbe807b14610308578063305a905a14610331576101e3565b806301ffc9a7146101e857806306fdde0314610225578063081812fc14610250578063095ea7b31461028d575b600080fd5b3480156101f457600080fd5b5061020f600480360381019061020a9190612d60565b610835565b60405161021c9190612da8565b60405180910390f35b34801561023157600080fd5b5061023a610917565b6040516102479190612e53565b60405180910390f35b34801561025c57600080fd5b5061027760048036038101906102729190612eab565b6109a9565b6040516102849190612f19565b60405180910390f35b34801561029957600080fd5b506102b460048036038101906102af9190612f60565b6109c5565b005b3480156102c257600080fd5b506102dd60048036038101906102d89190612f60565b6109db565b005b3480156102eb57600080fd5b5061030660048036038101906103019190612fa0565b610c7b565b005b34801561031457600080fd5b5061032f600480360381019061032a9190612eab565b610d7d565b005b34801561033d57600080fd5b5061035860048036038101906103539190612ff3565b610f10565b005b34801561036657600080fd5b50610381600480360381019061037c9190612fa0565b6110f6565b005b34801561038f57600080fd5b506103aa60048036038101906103a59190612eab565b611116565b6040516103b79190612da8565b60405180910390f35b6103da60048036038101906103d59190612eab565b611157565b005b3480156103e857600080fd5b5061040360048036038101906103fe9190612eab565b6113c1565b6040516104109190613042565b60405180910390f35b34801561042557600080fd5b50610440600480360381019061043b9190612eab565b6113e5565b60405161044d9190612f19565b60405180910390f35b34801561046257600080fd5b5061047d6004803603810190610478919061305d565b6113f7565b60405161048a9190613042565b60405180910390f35b34801561049f57600080fd5b506104a86114b1565b005b3480156104b657600080fd5b506104bf6114c5565b6040516104cc9190612f19565b60405180910390f35b3480156104e157600080fd5b506104ea6114ef565b6040516104f79190612e53565b60405180910390f35b34801561050c57600080fd5b50610527600480360381019061052291906130b6565b611581565b005b34801561053557600080fd5b50610550600480360381019061054b9190612ff3565b611597565b60405161055d9190613042565b60405180910390f35b34801561057257600080fd5b5061058d600480360381019061058891906130f6565b6115bc565b60405161059a9190613042565b60405180910390f35b3480156105af57600080fd5b506105ca60048036038101906105c5919061327e565b6116b6565b005b3480156105d857600080fd5b506105f360048036038101906105ee9190613301565b6116d3565b6040516106009190613042565b60405180910390f35b34801561061557600080fd5b50610630600480360381019061062b9190612eab565b611897565b60405161063d9190612e53565b60405180910390f35b34801561065257600080fd5b5061066d600480360381019061066891906130b6565b611900565b005b34801561067b57600080fd5b506106846119b1565b6040516106919190613426565b60405180910390f35b3480156106a657600080fd5b506106c160048036038101906106bc9190612eab565b611a09565b6040516106d093929190613448565b60405180910390f35b3480156106e557600080fd5b5061070060048036038101906106fb919061347f565b611a33565b60405161070d9190612da8565b60405180910390f35b34801561072257600080fd5b5061073d60048036038101906107389190612eab565b611ac7565b60405161074a9190613042565b60405180910390f35b34801561075f57600080fd5b5061077a6004803603810190610775919061305d565b611adf565b005b34801561078857600080fd5b506107a3600480360381019061079e9190612eab565b611b65565b6040516107b09190613042565b60405180910390f35b3480156107c557600080fd5b506107e060048036038101906107db919061305d565b611b82565b6040516107ed9190612da8565b60405180910390f35b34801561080257600080fd5b5061081d60048036038101906108189190612eab565b611ba2565b60405161082c93929190613448565b60405180910390f35b60007f80ac58cd000000000000000000000000000000000000000000000000000000007bffffffffffffffffffffffffffffffffffffffffffffffffffffffff1916827bffffffffffffffffffffffffffffffffffffffffffffffffffffffff1916148061090057507f5b5e139f000000000000000000000000000000000000000000000000000000007bffffffffffffffffffffffffffffffffffffffffffffffffffffffff1916827bffffffffffffffffffffffffffffffffffffffffffffffffffffffff1916145b80610910575061090f82611c03565b5b9050919050565b606060008054610926906134ee565b80601f0160208091040260200160405190810160405280929190818152602001828054610952906134ee565b801561099f5780601f106109745761010080835404028352916020019161099f565b820191906000526020600020905b81548152906001019060200180831161098257829003601f168201915b5050505050905090565b60006109b482611c6d565b506109be82611cf5565b9050919050565b6109d782826109d2611d32565b611d3a565b5050565b600073ffffffffffffffffffffffffffffffffffffffff166109fc82611d4c565b73ffffffffffffffffffffffffffffffffffffffff1603610a52576040517f08c379a0000000000000000000000000000000000000000000000000000000008152600401610a499061356b565b60405180910390fd5b6000600a600083815260200190815260200160002054905060008111610aad576040517f08c379a0000000000000000000000000000000000000000000000000000000008152600401610aa4906135d7565b60405180910390fd5b3373ffffffffffffffffffffffffffffffffffffffff16610acd836113e5565b73ffffffffffffffffffffffffffffffffffffffff1603610b23576040517f08c379a0000000000000000000000000000000000000000000000000000000008152600401610b1a90613643565b60405180910390fd5b6000610b2e836113e5565b9050600084905060008173ffffffffffffffffffffffffffffffffffffffff166323b872dd3385876040518463ffffffff1660e01b8152600401610b7493929190613663565b6020604051808303816000875af1158015610b93573d6000803e3d6000fd5b505050506040513d601f19601f82011682018060405250810190610bb791906136af565b905080610bf9576040517f08c379a0000000000000000000000000000000000000000000000000000000008152600401610bf090613728565b60405180910390fd5b610c04833387611d89565b610c0d85611ef6565b600a6000868152602001908152602001600020600090553373ffffffffffffffffffffffffffffffffffffffff16857f913d09b391f64143215d9312fd7e8ecaa06001c646789c9d2109dc515bc34fad86604051610c6b9190613042565b60405180910390a3505050505050565b600073ffffffffffffffffffffffffffffffffffffffff168273ffffffffffffffffffffffffffffffffffffffff1603610ced5760006040517f64a0ae92000000000000000000000000000000000000000000000000000000008152600401610ce49190612f19565b60405180910390fd5b6000610d018383610cfc611d32565b611fec565b90508373ffffffffffffffffffffffffffffffffffffffff168173ffffffffffffffffffffffffffffffffffffffff1614610d77578382826040517f64283d7b000000000000000000000000000000000000000000000000000000008152600401610d6e93929190613748565b60405180910390fd5b50505050565b600073ffffffffffffffffffffffffffffffffffffffff16610d9e82611d4c565b73ffffffffffffffffffffffffffffffffffffffff1603610df4576040517f08c379a0000000000000000000000000000000000000000000000000000000008152600401610deb9061356b565b60405180910390fd5b3373ffffffffffffffffffffffffffffffffffffffff16610e14826113e5565b73ffffffffffffffffffffffffffffffffffffffff1614610e6a576040517f08c379a0000000000000000000000000000000000000000000000000000000008152600401610e61906137f1565b60405180910390fd5b6000600a60008381526020019081526020016000205411610ec0576040517f08c379a0000000000000000000000000000000000000000000000000000000008152600401610eb7906135d7565b60405180910390fd5b610ec981611ef6565b600a600082815260200190815260200160002060009055807f3967925235f70873eabda48c5242393d4d41d99cd105109a90601202792fad5060405160405180910390a250565b600073ffffffffffffffffffffffffffffffffffffffff16610f3183611d4c565b73ffffffffffffffffffffffffffffffffffffffff1603610f87576040517f08c379a0000000000000000000000000000000000000000000000000000000008152600401610f7e9061356b565b60405180910390fd5b3373ffffffffffffffffffffffffffffffffffffffff16610fa7836113e5565b73ffffffffffffffffffffffffffffffffffffffff1614610ffd576040517f08c379a0000000000000000000000000000000000000000000000000000000008152600401610ff4906137f1565b60405180910390fd5b60008111611040576040517f08c379a00000000000000000000000000000000000000000000000000000000081526004016110379061385d565b60405180910390fd5b6000600c600084815260200190815260200160002054036110a257600b829080600181540180825580915050600190039060005260206000200160009091909190915055600b80549050600c6000848152602001908152602001600020819055505b80600a600084815260200190815260200160002081905550817fbca2f6391cafd6d28d39261ba883dd74090c618befb806e74ef434778bb2f7ed826040516110ea9190613042565b60405180910390a25050565b611111838383604051806020016040528060008152506116b6565b505050565b60008073ffffffffffffffffffffffffffffffffffffffff1661113883611d4c565b73ffffffffffffffffffffffffffffffffffffffff1614159050919050565b600073ffffffffffffffffffffffffffffffffffffffff1661117882611d4c565b73ffffffffffffffffffffffffffffffffffffffff16036111ce576040517f08c379a00000000000000000000000000000000000000000000000000000000081526004016111c59061356b565b60405180910390fd5b6000600a60008381526020019081526020016000205411611224576040517f08c379a000000000000000000000000000000000000000000000000000000000815260040161121b906135d7565b60405180910390fd5b600a6000828152602001908152602001600020543414611279576040517f08c379a0000000000000000000000000000000000000000000000000000000008152600401611270906138c9565b60405180910390fd5b3373ffffffffffffffffffffffffffffffffffffffff16611299826113e5565b73ffffffffffffffffffffffffffffffffffffffff16036112ef576040517f08c379a00000000000000000000000000000000000000000000000000000000081526004016112e690613643565b60405180910390fd5b60006112fa826113e5565b9050611307813384611d89565b8073ffffffffffffffffffffffffffffffffffffffff166108fc349081150290604051600060405180830381858888f1935050505015801561134d573d6000803e3d6000fd5b5061135782611ef6565b600a6000838152602001908152602001600020600090553373ffffffffffffffffffffffffffffffffffffffff16827f913d09b391f64143215d9312fd7e8ecaa06001c646789c9d2109dc515bc34fad346040516113b59190613042565b60405180910390a35050565b600b81815481106113d157600080fd5b906000526020600020016000915090505481565b60006113f082611c6d565b9050919050565b60008073ffffffffffffffffffffffffffffffffffffffff168273ffffffffffffffffffffffffffffffffffffffff160361146a5760006040517f89c62b640000000000000000000000000000000000000000000000000000000081526004016114619190612f19565b60405180910390fd5b600360008373ffffffffffffffffffffffffffffffffffffffff1673ffffffffffffffffffffffffffffffffffffffff168152602001908152602001600020549050919050565b6114b9612206565b6114c3600061228d565b565b6000600660009054906101000a900473ffffffffffffffffffffffffffffffffffffffff16905090565b6060600180546114fe906134ee565b80601f016020809104026020016040519081016040528092919081815260200182805461152a906134ee565b80156115775780601f1061154c57610100808354040283529160200191611577565b820191906000526020600020905b81548152906001019060200180831161155a57829003601f168201915b5050505050905090565b61159361158c611d32565b8383612353565b5050565b6009602052816000526040600020602052806000526040600020600091509150505481565b6000600760008154809291906115d190613918565b9190505550600060075490506115e733826124c2565b60405180606001604052808681526020018581526020018481525060086000838152602001908152602001600020600082015181600001556020820151816001015560408201518160020155905050600960008681526020019081526020016000206000858152602001908152602001600020600081548092919061166b90613918565b919050555084817f9e41660f280c1aee026924103cb14d02be2ea5050109e3b5504c066960eeb37986866040516116a3929190613960565b60405180910390a3809150509392505050565b6116c1848484610c7b565b6116cd848484846125bb565b50505050565b6000600d60003373ffffffffffffffffffffffffffffffffffffffff1673ffffffffffffffffffffffffffffffffffffffff16815260200190815260200160002060009054906101000a900460ff168061175f57503373ffffffffffffffffffffffffffffffffffffffff166117476114c5565b73ffffffffffffffffffffffffffffffffffffffff16145b61179e576040517f08c379a0000000000000000000000000000000000000000000000000000000008152600401611795906139d5565b60405180910390fd5b600760008154809291906117b190613918565b9190505550600060075490506117c786826124c2565b60405180606001604052808681526020018581526020018481525060086000838152602001908152602001600020600082015181600001556020820151816001015560408201518160020155905050600960008681526020019081526020016000206000858152602001908152602001600020600081548092919061184b90613918565b919050555084817f9e41660f280c1aee026924103cb14d02be2ea5050109e3b5504c066960eeb3798686604051611883929190613960565b60405180910390a380915050949350505050565b60606118a282611c6d565b5060006118ad612772565b905060008151116118cd57604051806020016040528060008152506118f8565b806118d784612789565b6040516020016118e8929190613a31565b6040516020818303038152906040525b915050919050565b611908612206565b80600d60008473ffffffffffffffffffffffffffffffffffffffff1673ffffffffffffffffffffffffffffffffffffffff16815260200190815260200160002060006101000a81548160ff0219169083151502179055508173ffffffffffffffffffffffffffffffffffffffff167fb21afb9ce9be0a676f8f317ff0ca072fb89a4f8ce2d1b6fe80f8755c14f1cb19826040516119a59190612da8565b60405180910390a25050565b6060600b8054806020026020016040519081016040528092919081815260200182805480156119ff57602002820191906000526020600020905b8154815260200190600101908083116119eb575b5050505050905090565b60086020528060005260406000206000915090508060000154908060010154908060020154905083565b6000600560008473ffffffffffffffffffffffffffffffffffffffff1673ffffffffffffffffffffffffffffffffffffffff16815260200190815260200160002060008373ffffffffffffffffffffffffffffffffffffffff1673ffffffffffffffffffffffffffffffffffffffff16815260200190815260200160002060009054906101000a900460ff16905092915050565b600a6020528060005260406000206000915090505481565b611ae7612206565b600073ffffffffffffffffffffffffffffffffffffffff168173ffffffffffffffffffffffffffffffffffffffff1603611b595760006040517f1e4fbdf7000000000000000000000000000000000000000000000000000000008152600401611b509190612f19565b60405180910390fd5b611b628161228d565b50565b6000600a6000838152602001908152602001600020549050919050565b600d6020528060005260406000206000915054906101000a900460ff1681565b6000806000806008600086815260200190815260200160002060405180606001604052908160008201548152602001600182015481526020016002820154815250509050806000015181602001518260400151935093509350509193909250565b60007f01ffc9a7000000000000000000000000000000000000000000000000000000007bffffffffffffffffffffffffffffffffffffffffffffffffffffffff1916827bffffffffffffffffffffffffffffffffffffffffffffffffffffffff1916149050919050565b600080611c7983611d4c565b9050600073ffffffffffffffffffffffffffffffffffffffff168173ffffffffffffffffffffffffffffffffffffffff1603611cec57826040517f7e273289000000000000000000000000000000000000000000000000000000008152600401611ce39190613042565b60405180910390fd5b80915050919050565b60006004600083815260200190815260200160002060009054906101000a900473ffffffffffffffffffffffffffffffffffffffff169050919050565b600033905090565b611d478383836001612857565b505050565b60006002600083815260200190815260200160002060009054906101000a900473ffffffffffffffffffffffffffffffffffffffff169050919050565b600073ffffffffffffffffffffffffffffffffffffffff168273ffffffffffffffffffffffffffffffffffffffff1603611dfb5760006040517f64a0ae92000000000000000000000000000000000000000000000000000000008152600401611df29190612f19565b60405180910390fd5b6000611e0983836000611fec565b9050600073ffffffffffffffffffffffffffffffffffffffff168173ffffffffffffffffffffffffffffffffffffffff1603611e7c57816040517f7e273289000000000000000000000000000000000000000000000000000000008152600401611e739190613042565b60405180910390fd5b8373ffffffffffffffffffffffffffffffffffffffff168173ffffffffffffffffffffffffffffffffffffffff1614611ef0578382826040517f64283d7b000000000000000000000000000000000000000000000000000000008152600401611ee793929190613748565b60405180910390fd5b50505050565b6000600c600083815260200190815260200160002054905060008103611f1c5750611fe9565b6000600b8054905090506000600b600183611f379190613a55565b81548110611f4857611f47613a89565b5b90600052602060002001549050808414611fa45780600b600185611f6c9190613a55565b81548110611f7d57611f7c613a89565b5b906000526020600020018190555082600c6000838152602001908152602001600020819055505b600b805480611fb657611fb5613ab8565b5b600190038181906000526020600020016000905590556000600c6000868152602001908152602001600020819055505050505b50565b600080611ff884611d4c565b9050600073ffffffffffffffffffffffffffffffffffffffff168373ffffffffffffffffffffffffffffffffffffffff161461203a57612039818486612a1c565b5b600073ffffffffffffffffffffffffffffffffffffffff168173ffffffffffffffffffffffffffffffffffffffff16146120cb5761207c600085600080612857565b6001600360008373ffffffffffffffffffffffffffffffffffffffff1673ffffffffffffffffffffffffffffffffffffffff168152602001908152602001600020600082825403925050819055505b600073ffffffffffffffffffffffffffffffffffffffff168573ffffffffffffffffffffffffffffffffffffffff161461214e576001600360008773ffffffffffffffffffffffffffffffffffffffff1673ffffffffffffffffffffffffffffffffffffffff168152602001908152602001600020600082825401925050819055505b846002600086815260200190815260200160002060006101000a81548173ffffffffffffffffffffffffffffffffffffffff021916908373ffffffffffffffffffffffffffffffffffffffff160217905550838573ffffffffffffffffffffffffffffffffffffffff168273ffffffffffffffffffffffffffffffffffffffff167fddf252ad1be2c89b69c2b068fc378daa952ba7f163c4a11628f55a4df523b3ef60405160405180910390a4809150509392505050565b61220e611d32565b73ffffffffffffffffffffffffffffffffffffffff1661222c6114c5565b73ffffffffffffffffffffffffffffffffffffffff161461228b5761224f611d32565b6040517f118cdaa70000000000000000000000000000000000000000000000000000000081526004016122829190612f19565b60405180910390fd5b565b6000600660009054906101000a900473ffffffffffffffffffffffffffffffffffffffff16905081600660006101000a81548173ffffffffffffffffffffffffffffffffffffffff021916908373ffffffffffffffffffffffffffffffffffffffff1602179055508173ffffffffffffffffffffffffffffffffffffffff168173ffffffffffffffffffffffffffffffffffffffff167f8be0079c531659141344cd1fd0a4f28419497f9722a3daafe3b4186f6b6457e060405160405180910390a35050565b600073ffffffffffffffffffffffffffffffffffffffff168273ffffffffffffffffffffffffffffffffffffffff16036123c457816040517f5b08ba180000000000000000000000000000000000000000000000000000000081526004016123bb9190612f19565b60405180910390fd5b80600560008573ffffffffffffffffffffffffffffffffffffffff1673ffffffffffffffffffffffffffffffffffffffff16815260200190815260200160002060008473ffffffffffffffffffffffffffffffffffffffff1673ffffffffffffffffffffffffffffffffffffffff16815260200190815260200160002060006101000a81548160ff0219169083151502179055508173ffffffffffffffffffffffffffffffffffffffff168373ffffffffffffffffffffffffffffffffffffffff167f17307eab39ab6107e8899845ad3d59bd9653f200f220920489ca2b5937696c31836040516124b59190612da8565b60405180910390a3505050565b600073ffffffffffffffffffffffffffffffffffffffff168273ffffffffffffffffffffffffffffffffffffffff16036125345760006040517f64a0ae9200000000000000000000000000000000000000000000000000000000815260040161252b9190612f19565b60405180910390fd5b600061254283836000611fec565b9050600073ffffffffffffffffffffffffffffffffffffffff168173ffffffffffffffffffffffffffffffffffffffff16146125b65760006040517f73c6ac6e0000000000000000000000000000000000000000000000000000000081526004016125ad9190612f19565b60405180910390fd5b505050565b60008373ffffffffffffffffffffffffffffffffffffffff163b111561276c578273ffffffffffffffffffffffffffffffffffffffff1663150b7a026125ff611d32565b8685856040518563ffffffff1660e01b81526004016126219493929190613b3c565b6020604051808303816000875af192505050801561265d57506040513d601f19601f8201168201806040525081019061265a9190613b9d565b60015b6126e1573d806000811461268d576040519150601f19603f3d011682016040523d82523d6000602084013e612692565b606091505b5060008151036126d957836040517f64a0ae920000000000000000000000000000000000000000000000000000000081526004016126d09190612f19565b60405180910390fd5b805181602001fd5b63150b7a0260e01b7bffffffffffffffffffffffffffffffffffffffffffffffffffffffff1916817bffffffffffffffffffffffffffffffffffffffffffffffffffffffff19161461276a57836040517f64a0ae920000000000000000000000000000000000000000000000000000000081526004016127619190612f19565b60405180910390fd5b505b50505050565b606060405180602001604052806000815250905090565b60606000600161279884612ae0565b01905060008167ffffffffffffffff8111156127b7576127b6613153565b5b6040519080825280601f01601f1916602001820160405280156127e95781602001600182028036833780820191505090505b509050600082602001820190505b60011561284c578080600190039150507f3031323334353637383961626364656600000000000000000000000000000000600a86061a8153600a85816128405761283f613bca565b5b049450600085036127f7575b819350505050919050565b80806128905750600073ffffffffffffffffffffffffffffffffffffffff168273ffffffffffffffffffffffffffffffffffffffff1614155b156129c45760006128a084611c6d565b9050600073ffffffffffffffffffffffffffffffffffffffff168373ffffffffffffffffffffffffffffffffffffffff161415801561290b57508273ffffffffffffffffffffffffffffffffffffffff168173ffffffffffffffffffffffffffffffffffffffff1614155b801561291e575061291c8184611a33565b155b1561296057826040517fa9fbf51f0000000000000000000000000000000000000000000000000000000081526004016129579190612f19565b60405180910390fd5b81156129c257838573ffffffffffffffffffffffffffffffffffffffff168273ffffffffffffffffffffffffffffffffffffffff167f8c5be1e5ebec7d5bd14f71427d1e84f3dd0314c0f7b2291e5b200ac8c7c3b92560405160405180910390a45b505b836004600085815260200190815260200160002060006101000a81548173ffffffffffffffffffffffffffffffffffffffff021916908373ffffffffffffffffffffffffffffffffffffffff16021790555050505050565b612a27838383612c33565b612adb57600073ffffffffffffffffffffffffffffffffffffffff168373ffffffffffffffffffffffffffffffffffffffff1603612a9c57806040517f7e273289000000000000000000000000000000000000000000000000000000008152600401612a939190613042565b60405180910390fd5b81816040517f177e802f000000000000000000000000000000000000000000000000000000008152600401612ad2929190613bf9565b60405180910390fd5b505050565b600080600090507a184f03e93ff9f4daa797ed6e38ed64bf6a1f0100000000000000008310612b3e577a184f03e93ff9f4daa797ed6e38ed64bf6a1f0100000000000000008381612b3457612b33613bca565b5b0492506040810190505b6d04ee2d6d415b85acef81000000008310612b7b576d04ee2d6d415b85acef81000000008381612b7157612b70613bca565b5b0492506020810190505b662386f26fc100008310612baa57662386f26fc100008381612ba057612b9f613bca565b5b0492506010810190505b6305f5e1008310612bd3576305f5e1008381612bc957612bc8613bca565b5b0492506008810190505b6127108310612bf8576127108381612bee57612bed613bca565b5b0492506004810190505b60648310612c1b5760648381612c1157612c10613bca565b5b0492506002810190505b600a8310612c2a576001810190505b80915050919050565b60008073ffffffffffffffffffffffffffffffffffffffff168373ffffffffffffffffffffffffffffffffffffffff1614158015612ceb57508273ffffffffffffffffffffffffffffffffffffffff168473ffffffffffffffffffffffffffffffffffffffff161480612cac5750612cab8484611a33565b5b80612cea57508273ffffffffffffffffffffffffffffffffffffffff16612cd283611cf5565b73ffffffffffffffffffffffffffffffffffffffff16145b5b90509392505050565b6000604051905090565b600080fd5b600080fd5b60007fffffffff0000000000000000000000000000000000000000000000000000000082169050919050565b612d3d81612d08565b8114612d4857600080fd5b50565b600081359050612d5a81612d34565b92915050565b600060208284031215612d7657612d75612cfe565b5b6000612d8484828501612d4b565b91505092915050565b60008115159050919050565b612da281612d8d565b82525050565b6000602082019050612dbd6000830184612d99565b92915050565b600081519050919050565b600082825260208201905092915050565b60005b83811015612dfd578082015181840152602081019050612de2565b60008484015250505050565b6000601f19601f8301169050919050565b6000612e2582612dc3565b612e2f8185612dce565b9350612e3f818560208601612ddf565b612e4881612e09565b840191505092915050565b60006020820190508181036000830152612e6d8184612e1a565b905092915050565b6000819050919050565b612e8881612e75565b8114612e9357600080fd5b50565b600081359050612ea581612e7f565b92915050565b600060208284031215612ec157612ec0612cfe565b5b6000612ecf84828501612e96565b91505092915050565b600073ffffffffffffffffffffffffffffffffffffffff82169050919050565b6000612f0382612ed8565b9050919050565b612f1381612ef8565b82525050565b6000602082019050612f2e6000830184612f0a565b92915050565b612f3d81612ef8565b8114612f4857600080fd5b50565b600081359050612f5a81612f34565b92915050565b60008060408385031215612f7757612f76612cfe565b5b6000612f8585828601612f4b565b9250506020612f9685828601612e96565b9150509250929050565b600080600060608486031215612fb957612fb8612cfe565b5b6000612fc786828701612f4b565b9350506020612fd886828701612f4b565b9250506040612fe986828701612e96565b9150509250925092565b6000806040838503121561300a57613009612cfe565b5b600061301885828601612e96565b925050602061302985828601612e96565b9150509250929050565b61303c81612e75565b82525050565b60006020820190506130576000830184613033565b92915050565b60006020828403121561307357613072612cfe565b5b600061308184828501612f4b565b91505092915050565b61309381612d8d565b811461309e57600080fd5b50565b6000813590506130b08161308a565b92915050565b600080604083850312156130cd576130cc612cfe565b5b60006130db85828601612f4b565b92505060206130ec858286016130a1565b9150509250929050565b60008060006060848603121561310f5761310e612cfe565b5b600061311d86828701612e96565b935050602061312e86828701612e96565b925050604061313f86828701612e96565b9150509250925092565b600080fd5b600080fd5b7f4e487b7100000000000000000000000000000000000000000000000000000000600052604160045260246000fd5b61318b82612e09565b810181811067ffffffffffffffff821117156131aa576131a9613153565b5b80604052505050565b60006131bd612cf4565b90506131c98282613182565b919050565b600067ffffffffffffffff8211156131e9576131e8613153565b5b6131f282612e09565b9050602081019050919050565b82818337600083830152505050565b600061322161321c846131ce565b6131b3565b90508281526020810184848401111561323d5761323c61314e565b5b6132488482856131ff565b509392505050565b600082601f83011261326557613264613149565b5b813561327584826020860161320e565b91505092915050565b6000806000806080858703121561329857613297612cfe565b5b60006132a687828801612f4b565b94505060206132b787828801612f4b565b93505060406132c887828801612e96565b925050606085013567ffffffffffffffff8111156132e9576132e8612d03565b5b6132f587828801613250565b91505092959194509250565b6000806000806080858703121561331b5761331a612cfe565b5b600061332987828801612f4b565b945050602061333a87828801612e96565b935050604061334b87828801612e96565b925050606061335c87828801612e96565b91505092959194509250565b600081519050919050565b600082825260208201905092915050565b6000819050602082019050919050565b61339d81612e75565b82525050565b60006133af8383613394565b60208301905092915050565b6000602082019050919050565b60006133d382613368565b6133dd8185613373565b93506133e883613384565b8060005b8381101561341957815161340088826133a3565b975061340b836133bb565b9250506001810190506133ec565b5085935050505092915050565b6000602082019050818103600083015261344081846133c8565b905092915050565b600060608201905061345d6000830186613033565b61346a6020830185613033565b6134776040830184613033565b949350505050565b6000806040838503121561349657613495612cfe565b5b60006134a485828601612f4b565b92505060206134b585828601612f4b565b9150509250929050565b7f4e487b7100000000000000000000000000000000000000000000000000000000600052602260045260246000fd5b6000600282049050600182168061350657607f821691505b602082108103613519576135186134bf565b5b50919050565b7f5469636b657420646f6573206e6f742065786973740000000000000000000000600082015250565b6000613555601583612dce565b91506135608261351f565b602082019050919050565b6000602082019050818103600083015261358481613548565b9050919050565b7f5469636b6574206973206e6f74206c6973746564000000000000000000000000600082015250565b60006135c1601483612dce565b91506135cc8261358b565b602082019050919050565b600060208201905081810360008301526135f0816135b4565b9050919050565b7f596f752063616e6e6f742062757920796f7572206f776e207469636b65740000600082015250565b600061362d601e83612dce565b9150613638826135f7565b602082019050919050565b6000602082019050818103600083015261365c81613620565b9050919050565b60006060820190506136786000830186612f0a565b6136856020830185612f0a565b6136926040830184613033565b949350505050565b6000815190506136a98161308a565b92915050565b6000602082840312156136c5576136c4612cfe565b5b60006136d38482850161369a565b91505092915050565b7f4552433230207472616e73666572206661696c65640000000000000000000000600082015250565b6000613712601583612dce565b915061371d826136dc565b602082019050919050565b6000602082019050818103600083015261374181613705565b9050919050565b600060608201905061375d6000830186612f0a565b61376a6020830185613033565b6137776040830184612f0a565b949350505050565b7f596f7520617265206e6f7420746865206f776e6572206f66207468697320746960008201527f636b657400000000000000000000000000000000000000000000000000000000602082015250565b60006137db602483612dce565b91506137e68261377f565b604082019050919050565b6000602082019050818103600083015261380a816137ce565b9050919050565b7f5072696365206d7573742062652067726561746572207468616e203000000000600082015250565b6000613847601c83612dce565b915061385282613811565b602082019050919050565b600060208201905081810360008301526138768161383a565b9050919050565b7f496e636f7272656374207061796d656e7420616d6f756e740000000000000000600082015250565b60006138b3601883612dce565b91506138be8261387d565b602082019050919050565b600060208201905081810360008301526138e2816138a6565b9050919050565b7f4e487b7100000000000000000000000000000000000000000000000000000000600052601160045260246000fd5b600061392382612e75565b91507fffffffffffffffffffffffffffffffffffffffffffffffffffffffffffffffff8203613955576139546138e9565b5b600182019050919050565b60006040820190506139756000830185613033565b6139826020830184613033565b9392505050565b7f4e6f7420617574686f72697a656420746f206d696e7400000000000000000000600082015250565b60006139bf601683612dce565b91506139ca82613989565b602082019050919050565b600060208201905081810360008301526139ee816139b2565b9050919050565b600081905092915050565b6000613a0b82612dc3565b613a1581856139f5565b9350613a25818560208601612ddf565b80840191505092915050565b6000613a3d8285613a00565b9150613a498284613a00565b91508190509392505050565b6000613a6082612e75565b9150613a6b83612e75565b9250828203905081811115613a8357613a826138e9565b5b92915050565b7f4e487b7100000000000000000000000000000000000000000000000000000000600052603260045260246000fd5b7f4e487b7100000000000000000000000000000000000000000000000000000000600052603160045260246000fd5b600081519050919050565b600082825260208201905092915050565b6000613b0e82613ae7565b613b188185613af2565b9350613b28818560208601612ddf565b613b3181612e09565b840191505092915050565b6000608082019050613b516000830187612f0a565b613b5e6020830186612f0a565b613b6b6040830185613033565b8181036060830152613b7d8184613b03565b905095945050505050565b600081519050613b9781612d34565b92915050565b600060208284031215613bb357613bb2612cfe565b5b6000613bc184828501613b88565b91505092915050565b7f4e487b7100000000000000000000000000000000000000000000000000000000600052601260045260246000fd5b6000604082019050613c0e6000830185612f0a565b613c1b6020830184613033565b939250505056fea26469706673582212204ae6e6d2809a9dcb97283365fe384d86e6c47ce1a4a975d39b7a8bbee75dc13064736f6c63430008140033",
  "linkReferences": {},
  "deployedLinkReferences": {}
}