{
  "_format": "hh-sol-artifact-1",
  "contractName": "LotteryNFT",
  "sourceName": "contracts/LotteryNFT.sol",
  "abi": [
    {
      "inputs": [
        {
          "internalType": "address",
          "name": "initialOwner",
          "type": "address"
        }
      ],
      "stateMutability": "nonpayable",
      "type": "constructor"
    },
    {
      "inputs": [
        {
          "internalType": "address",
          "name": "sender",
          "type": "address"
        },
        {
          "internalType": "uint256",
          "name": "tokenId",
          "type": "uint256"
        },
        {
          "internalType": "address",
          "name": "owner",
          "type": "address"
        }
      ],
      "name": "ERC721IncorrectOwner",
      "type": "error"
    },
    {
      "inputs": [
        {
          "internalType": "address",
          "name": "operator",
          "type": "address"
        },
        {
          "internalType": "uint256",
          "name": "tokenId",
          "type": "uint256"
        }
      ],
      "name": "ERC721InsufficientApproval",
      "type": "error"
    },
    {
      "inputs": [
        {
          "internalType": "address",
          "name": "approver",
          "type": "address"
        }
      ],
      "name": "ERC721InvalidApprover",
      "type": "error"
    },
    {
      "inputs": [
        {
          "internalType": "address",
          "name": "operator",
          "type": "address"
        }
      ],
      "name": "ERC721InvalidOperator",
      "type": "error"
    },
    {
      "inputs": [
        {
          "internalType": "address",
          "name": "owner",
          "type": "address"
        }
      ],
      "name": "ERC721InvalidOwner",
      "type": "error"
    },
    {
      "inputs": [
        {
          "internalType": "address",
          "name": "receiver",
          "type": "address"
        }
      ],
      "name": "ERC721InvalidReceiver",
      "type": "error"
    },
    {
      "inputs": [
        {
          "internalType": "address",
          "name": "sender",
          "type": "address"
        }
      ],
      "name": "ERC721InvalidSender",
      "type": "error"
    },
    {
      "inputs": [
        {
          "internalType": "uint256",
          "name": "tokenId",
          "type": "uint256"
        }
      ],
      "name": "ERC721NonexistentToken",
      "type": "error"
    },
    {
      "inputs": [
        {
          "internalType": "address",
          "name": "owner",
          "type": "address"
        }
      ],
      "name": "OwnableInvalidOwner",
      "type": "error"
    },
    {
      "inputs": [
        {
          "internalType": "address",
          "name": "account",
          "type": "address"
        }
      ],
      "name": "OwnableUnauthorizedAccount",
      "type": "error"
    },
    {
      "anonymous": false,
      "inputs": [
        {
          "indexed": true,
          "internalType": "address",
          "name": "owner",
          "type": "address"
        },
        {
          "indexed": true,
          "internalType": "address",
          "name": "approved",
          "type": "address"
        },
        {
          "indexed": true,
          "internalType": "uint256",
          "name": "tokenId",
          "type": "uint256"
        }
      ],
      "name": "Approval",
      "type": "event"
    },
    {
      "anonymous": false,
      "inputs": [
        {
          "indexed": true,
          "internalType": "address",
          "name": "owner",
          "type": "address"
        },
        {
          "indexed": true,
          "internalType": "address",
          "name": "operator",
          "type": "address"
        },
        {
          "indexed": false,
          "internalType": "bool",
          "name": "approved",
          "type": "bool"
        }
      ],
      "name": "ApprovalForAll",
      "type": "event"
    },
    {
      "anonymous": false,
      "inputs": [
        {
          "indexed": true,
          "internalType": "address",
          "name": "account",
          "type": "address"
        },
        {
          "indexed": false,
          "internalType": "bool",
          "name": "allowed",
          "type": "bool"
        }
      ],
      "name": "MinterUpdated",
      "type": "event"
    },
    {
      "anonymous": false,
      "inputs": [
        {
          "indexed": true,
          "internalType": "address",
          "name": "previousOwner",
          "type": "address"
        },
        {
          "indexed": true,
          "internalType": "address",
          "name": "newOwner",
          "type": "address"
        }
      ],
      "name": "OwnershipTransferred",
      "type": "event"
    },
    {
      "anonymous": false,
      "inputs": [
        {
          "indexed": true,
          "internalType": "uint256",
          "name": "tokenId",
          "type": "uint256"
        },
        {
          "indexed": true,
          "internalType": "address",
          "name": "buyer",
          "type": "address"
        },
        {
          "indexed": false,
          "internalType": "uint256",
          "name": "price",
          "type": "uint256"
        }
      ],
      "name": "TicketBought",
      "type": "event"
    },
    {
      "anonymous": false,
      "inputs": [
        {
          "indexed": true,
          "internalType": "uint256",
          "name": "tokenId",
          "type": "uint256"
        }
      ],
      "name": "TicketDelisted",
      "type": "event"
    },
    {
      "anonymous": false,
      "inputs": [
        {
          "indexed": true,
          "internalType": "uint256",
          "name": "tokenId",
          "type": "uint256"
        },
        {
          "indexed": false,
          "internalType": "uint256",
          "name": "price",
          "type": "uint256"
        }
      ],
      "name": "TicketListed",
      "type": "event"
    },
    {
      "anonymous": false,
      "inputs": [
        {
          "indexed": true,
          "internalType": "uint256",
          "name": "tokenId",
          "type": "uint256"
        },
        {
          "indexed": true,
          "internalType": "uint256",
          "name": "activityId",
          "type": "uint256"
        },
        {
          "indexed": false,
          "internalType": "uint256",
          "name": "choiceIndex",
          "type": "uint256"
        },
        {
          "indexed": false,
          "internalType": "uint256",
          "name": "price",
          "type": "uint256"
        }
      ],
      "name": "TicketMinted",
      "type": "event"
    },
    {
      "anonymous": false,
      "inputs": [
        {
          "indexed": true,
          "internalType": "address",
          "name": "from",
          "type": "address"
        },
        {
          "indexed": true,
          "internalType": "address",
          "name": "to",
          "type": "address"
        },
        {
          "indexed": true,
          "internalType": "uint256",
          "name": "tokenId",
          "type": "uint256"
        }
      ],
      "name": "Transfer",
      "type": "event"
    },
    {
      "inputs": [
        {
          "internalType": "address",
          "name": "to",
          "type": "address"
        },
        {
          "internalType": "uint256",
          "name": "tokenId",
          "type": "uint256"
        }
      ],
      "name": "approve",
      "outputs": [],
      "stateMutability": "nonpayable",
      "type": "function"
    },
    {
      "inputs": [
        {
          "internalType": "address",
          "name": "owner",
          "type": "address"
        }
      ],
      "name": "balanceOf",
      "outputs": [
        {
          "internalType": "uint256",
          "name": "",
          "type": "uint256"
        }
      ],
      "stateMutability": "view",
      "type": "function"
    },
    {
      "inputs": [
        {
          "internalType": "uint256",
          "name": "tokenId",
          "type": "uint256"
        }
      ],
      "name": "buyListedTicket",
      "outputs": [],
      "stateMutability": "payable",
      "type": "function"
    },
    {
      "inputs": [
        {
          "internalType": "uint256",
          "name": "",
          "type": "uint256"
        },
        {
          "internalType": "uint256",
          "name": "",
          "type": "uint256"
        }
      ],
      "name": "choiceCount",
      "outputs": [
        {
          "internalType": "uint256",
          "name": "",
          "type": "uint256"
        }
      ],
      "stateMutability": "view",
      "type": "function"
    },
    {
      "inputs": [
        {
          "internalType": "uint256",
          "name": "tokenId",
          "type": "uint256"
        }
      ],
      "name": "delistTicket",
      "outputs": [],
      "stateMutability": "nonpayable",
      "type": "function"
    },
    {
      "inputs": [
        {
          "internalType": "uint256",
          "name": "tokenId",
          "type": "uint256"
        }
      ],
      "name": "exists",
      "outputs": [
        {
          "internalType": "bool",
          "name": "",
          "type": "bool"
        }
      ],
      "stateMutability": "view",
      "type": "function"
    },
    {
      "inputs": [
        {
          "internalType": "uint256",
          "name": "tokenId",
          "type": "uint256"
        }
      ],
      "name": "getApproved",
      "outputs": [
        {
          "internalType": "address",
          "name": "",
          "type": "address"
        }
      ],
      "stateMutability": "view",
      "type": "function"
    },
    {
      "inputs": [
        {
          "internalType": "uint256",
          "name": "tokenId",
          "type": "uint256"
        }
      ],
      "name": "getTicketInfo",
      "outputs": [
        {
          "internalType": "uint256",
          "name": "activityId",
          "type": "uint256"
        },
        {
          "internalType": "uint256",
          "name": "choiceIndex",
          "type": "uint256"
        },
        {
          "internalType": "uint256",
          "name": "price",
          "type": "uint256"
        }
      ],
      "stateMutability": "view",
      "type": "function"
    },
    {
      "inputs": [
        {
          "internalType": "uint256",
          "name": "tokenId",
          "type": "uint256"
        }
      ],
      "name": "getTicketListedPrice",
      "outputs": [
        {
          "internalType": "uint256",
          "name": "",
          "type": "uint256"
        }
      ],
      "stateMutability": "view",
      "type": "function"
    },
    {
      "inputs": [
        {
          "internalType": "address",
          "name": "owner",
          "type": "address"
        },
        {
          "internalType": "address",
          "name": "operator",
          "type": "address"
        }
      ],
      "name": "isApprovedForAll",
      "outputs": [
        {
          "internalType": "bool",
          "name": "",
          "type": "bool"
        }
      ],
      "stateMutability": "view",
      "type": "function"
    },
    {
      "inputs": [
        {
          "internalType": "uint256",
          "name": "tokenId",
          "type": "uint256"
        },
        {
          "internalType": "uint256",
          "name": "price",
          "type": "uint256"
        }
      ],
      "name": "listTicket",
      "outputs": [],
      "stateMutability": "nonpayable",
      "type": "function"
    },
    {
      "inputs": [
        {
          "internalType": "uint256",
          "name": "",
          "type": "uint256"
        }
      ],
      "name": "lotteryTickets",
      "outputs": [
        {
          "internalType": "uint256",
          "name": "activityId",
          "type": "uint256"
        },
        {
          "internalType": "uint256",
          "name": "choiceIndex",
          "type": "uint256"
        },
        {
          "internalType": "uint256",
          "name": "price",
          "type": "uint256"
        }
      ],
      "stateMutability": "view",
      "type": "function"
    },
    {
      "inputs": [
        {
          "internalType": "uint256",
          "name": "activityId",
          "type": "uint256"
        },
        {
          "internalType": "uint256",
          "name": "choiceIndex",
          "type": "uint256"
        },
        {
          "internalType": "uint256",
          "name": "price",
          "type": "uint256"
        }
      ],
      "name": "mintTicket",
      "outputs": [
        {
          "internalType": "uint256",
          "name": "",
          "type": "uint256"
        }
      ],
      "stateMutability": "nonpayable",
      "type": "function"
    },
    {
      "inputs": [
        {
          "internalType": "address",
          "name": "to",
          "type": "address"
        },
        {
          "internalType": "uint256",
          "name": "activityId",
          "type": "uint256"
        },
        {
          "internalType": "uint256",
          "name": "choiceIndex",
          "type": "uint256"
        },
        {
          "internalType": "uint256",
          "name": "price",
          "type": "uint256"
        }
      ],
      "name": "mintTicketTo",
      "outputs": [
        {
          "internalType": "uint256",
          "name": "",
          "type": "uint256"
        }
      ],
      "stateMutability": "nonpayable",
      "type": "function"
    },
    {
      "inputs": [
        {
          "internalType": "address",
          "name": "",
          "type": "address"
        }
      ],
      "name": "minters",
      "outputs": [
        {
          "internalType": "bool",
          "name": "",
          "type": "bool"
        }
      ],
      "stateMutability": "view",
      "type": "function"
    },
    {
      "inputs": [],
      "name": "name",
      "outputs": [
        {
          "internalType": "string",
          "name": "",
          "type": "string"
        }
      ],
      "stateMutability": "view",
      "type": "function"
    },
    {
      "inputs": [],
      "name": "owner",
      "outputs": [
        {
          "internalType": "address",
          "name": "",
          "type": "address"
        }
      ],
      "stateMutability": "view",
      "type": "function"
    },
    {
      "inputs": [
        {
          "internalType": "uint256",
          "name": "tokenId",
          "type": "uint256"
        }
      ],
      "name": "ownerOf",
      "outputs": [
        {
          "internalType": "address",
          "name": "",
          "type": "address"
        }
      ],
      "stateMutability": "view",
      "type": "function"
    },
    {
      "inputs": [],
      "name": "renounceOwnership",
      "outputs": [],
      "stateMutability": "nonpayable",
      "type": "function"
    },
    {
      "inputs": [
        {
          "internalType": "address",
          "name": "from",
          "type": "address"
        },
        {
          "internalType": "address",
          "name": "to",
          "type": "address"
        },
        {
          "internalType": "uint256",
          "name": "tokenId",
          "type": "uint256"
        }
      ],
      "name": "safeTransferFrom",
      "outputs": [],
      "stateMutability": "nonpayable",
      "type": "function"
    },
    {
      "inputs": [
        {
          "internalType": "address",
          "name": "from",
          "type": "address"
        },
        {
          "internalType": "address",
          "name": "to",
          "type": "address"
        },
        {
          "internalType": "uint256",
          "name": "tokenId",
          "type": "uint256"
        },
        {
          "internalType": "bytes",
          "name": "data",
          "type": "bytes"
        }
      ],
      "name": "safeTransferFrom",
      "outputs": [],
      "stateMutability": "nonpayable",
      "type": "function"
    },
    {
      "inputs": [
        {
          "internalType": "address",
          "name": "operator",
          "type": "address"
        },
        {
          "internalType": "bool",
          "name": "approved",
          "type": "bool"
        }
      ],
      "name": "setApprovalForAll",
      "outputs": [],
      "stateMutability": "nonpayable",
      "type": "function"
    },
    {
      "inputs": [
        {
          "internalType": "address",
          "name": "account",
          "type": "address"
        },
        {
          "internalType": "bool",
          "name": "allowed",
          "type": "bool"
        }
      ],
      "name": "setMinter",
      "outputs": [],
      "stateMutability": "nonpayable",
      "type": "function"
    },
    {
      "inputs": [
        {
          "internalType": "bytes4",
          "name": "interfaceId",
          "type": "bytes4"
        }
      ],
      "name": "supportsInterface",
      "outputs": [
        {
          "internalType": "bool",
          "name": "",
          "type": "bool"
        }
      ],
      "stateMutability": "view",
      "type": "function"
    },
    {
      "inputs": [],
      "name": "symbol",
      "outputs": [
        {
          "internalType": "string",
          "name": "",
          "type": "string"
        }
      ],
      "stateMutability": "view",
      "type": "function"
    },
    {
      "inputs": [
        {
          "internalType": "uint256",
          "name": "",
          "type": "uint256"
        }
      ],
      "name": "ticketListedPrice",
      "outputs": [
        {
          "internalType": "uint256",
          "name": "",
          "type": "uint256"
        }
      ],
      "stateMutability": "view",
      "type": "function"
    },
    {
      "inputs": [
        {
          "internalType": "uint256",
          "name": "tokenId",
          "type": "uint256"
        }
      ],
      "name": "tokenURI",
      "outputs": [
        {
          "internalType": "string",
          "name": "",
          "type": "string"
        }
      ],
      "stateMutability": "view",
      "type": "function"
    },
    {
      "inputs": [
        {
          "internalType": "address",
          "name": "from",
          "type": "address"
        },
        {
          "internalType": "address",
          "name": "to",
          "type": "address"
        },
        {
          "internalType": "uint256",
          "name": "tokenId",
          "type": "uint256"
        }
      ],
      "name": "transferFrom",
      "outputs": [],
      "stateMutability": "nonpayable",
      "type": "function"
    },
    {
      "inputs": [
        {
          "internalType": "address",
          "name": "newOwner",
          "type": "address"
        }
      ],
      "name": "transferOwnership",
      "outputs": [],
      "stateMutability": "nonpayable",
      "type": "function"
    }
  ],
  "bytecode": "0x60806040523480156200001157600080fd5b5060405162003a7338038062003a73833981810160405281019062000037919062000288565b806040518060400160405280600d81526020017f4c6f74746572795469636b6574000000000000000000000000000000000000008152506040518060400160405280600381526020017f4c545400000000000000000000000000000000000000000000000000000000008152508160009081620000b5919062000534565b508060019081620000c7919062000534565b505050600073ffffffffffffffffffffffffffffffffffffffff168173ffffffffffffffffffffffffffffffffffffffff16036200013f5760006040517f1e4fbdf70000000000000000000000000000000000000000000000000000000081526004016200013691906200062c565b60405180910390fd5b62000150816200015860201b60201c565b505062000649565b6000600660009054906101000a900473ffffffffffffffffffffffffffffffffffffffff16905081600660006101000a81548173ffffffffffffffffffffffffffffffffffffffff021916908373ffffffffffffffffffffffffffffffffffffffff1602179055508173ffffffffffffffffffffffffffffffffffffffff168173ffffffffffffffffffffffffffffffffffffffff167f8be0079c531659141344cd1fd0a4f28419497f9722a3daafe3b4186f6b6457e060405160405180910390a35050565b600080fd5b600073ffffffffffffffffffffffffffffffffffffffff82169050919050565b6000620002508262000223565b9050919050565b620002628162000243565b81146200026e57600080fd5b50565b600081519050620002828162000257565b92915050565b600060208284031215620002a157620002a06200021e565b5b6000620002b18482850162000271565b91505092915050565b600081519050919050565b7f4e487b7100000000000000000000000000000000000000000000000000000000600052604160045260246000fd5b7f4e487b7100000000000000000000000000000000000000000000000000000000600052602260045260246000fd5b600060028204905060018216806200033c57607f821691505b602082108103620003525762000351620002f4565b5b50919050565b60008190508160005260206000209050919050565b60006020601f8301049050919050565b600082821b905092915050565b600060088302620003bc7fffffffffffffffffffffffffffffffffffffffffffffffffffffffffffffffff826200037d565b620003c886836200037d565b95508019841693508086168417925050509392505050565b6000819050919050565b6000819050919050565b6000620004156200040f6200040984620003e0565b620003ea565b620003e0565b9050919050565b6000819050919050565b6200043183620003f4565b6200044962000440826200041c565b8484546200038a565b825550505050565b600090565b6200046062000451565b6200046d81848462000426565b505050565b5b8181101562000495576200048960008262000456565b60018101905062000473565b5050565b601f821115620004e457620004ae8162000358565b620004b9846200036d565b81016020851015620004c9578190505b620004e1620004d8856200036d565b83018262000472565b50505b505050565b600082821c905092915050565b60006200050960001984600802620004e9565b1980831691505092915050565b6000620005248383620004f6565b9150826002028217905092915050565b6200053f82620002ba565b67ffffffffffffffff8111156200055b576200055a620002c5565b5b62000567825462000323565b6200057482828562000499565b600060209050601f831160018114620005ac576000841562000597578287015190505b620005a3858262000516565b86555062000613565b601f198416620005bc8662000358565b60005b82811015620005e657848901518255600182019150602085019450602081019050620005bf565b8683101562000606578489015162000602601f891682620004f6565b8355505b6001600288020188555050505b505050505050565b620006268162000243565b82525050565b60006020820190506200064360008301846200061b565b92915050565b61341a80620006596000396000f3fe6080604052600436106101c25760003560e01c806395d89b41116100f7578063cf456ae711610095578063f2fde38b11610064578063f2fde38b146106a1578063f39d3461146106ca578063f46eccc414610707578063ff99a06314610744576101c2565b8063cf456ae7146105bf578063e74579b1146105e8578063e985e9c514610627578063edba7fbd14610664576101c2565b8063b86f2e34116100d1578063b86f2e34146104df578063b88d4fde1461051c578063b90cc7aa14610545578063c87b56dd14610582576101c2565b806395d89b411461044e578063a22cb46514610479578063a5064c61146104a2576101c2565b806342842e0e116101645780636352211e1161013e5780636352211e1461039257806370a08231146103cf578063715018a61461040c5780638da5cb5b14610423576101c2565b806342842e0e146103105780634f558e79146103395780635024885314610376576101c2565b8063095ea7b3116101a0578063095ea7b31461026c57806323b872dd146102955780632bbe807b146102be578063305a905a146102e7576101c2565b806301ffc9a7146101c757806306fdde0314610204578063081812fc1461022f575b600080fd5b3480156101d357600080fd5b506101ee60048036038101906101e991906127e5565b610783565b6040516101fb919061282d565b60405180910390f35b34801561021057600080fd5b50610219610865565b60405161022691906128d8565b60405180910390f35b34801561023b57600080fd5b5061025660048036038101906102519190612930565b6108f7565b604051610263919061299e565b60405180910390f35b34801561027857600080fd5b50610293600480360381019061028e91906129e5565b610913565b005b3480156102a157600080fd5b506102bc60048036038101906102b79190612a25565b610929565b005b3480156102ca57600080fd5b506102e560048036038101906102e09190612930565b610a2b565b005b3480156102f357600080fd5b5061030e60048036038101906103099190612a78565b610bb5565b005b34801561031c57600080fd5b5061033760048036038101906103329190612a25565b610cf6565b005b34801561034557600080fd5b50610360600480360381019061035b9190612930565b610d16565b60405161036d919061282d565b60405180910390f35b610390600480360381019061038b9190612930565b610d57565b005b34801561039e57600080fd5b506103b960048036038101906103b49190612930565b610fb8565b6040516103c6919061299e565b60405180910390f35b3480156103db57600080fd5b506103f660048036038101906103f19190612ab8565b610fca565b6040516104039190612af4565b60405180910390f35b34801561041857600080fd5b50610421611084565b005b34801561042f57600080fd5b50610438611098565b604051610445919061299e565b60405180910390f35b34801561045a57600080fd5b506104636110c2565b60405161047091906128d8565b60405180910390f35b34801561048557600080fd5b506104a0600480360381019061049b9190612b3b565b611154565b005b3480156104ae57600080fd5b506104c960048036038101906104c49190612a78565b61116a565b6040516104d69190612af4565b60405180910390f35b3480156104eb57600080fd5b5061050660048036038101906105019190612b7b565b61118f565b6040516105139190612af4565b60405180910390f35b34801561052857600080fd5b50610543600480360381019061053e9190612d03565b611289565b005b34801561055157600080fd5b5061056c60048036038101906105679190612d86565b6112a6565b6040516105799190612af4565b60405180910390f35b34801561058e57600080fd5b506105a960048036038101906105a49190612930565b61146a565b6040516105b691906128d8565b60405180910390f35b3480156105cb57600080fd5b506105e660048036038101906105e19190612b3b565b6114d3565b005b3480156105f457600080fd5b5061060f600480360381019061060a9190612930565b611584565b60405161061e93929190612ded565b60405180910390f35b34801561063357600080fd5b5061064e60048036038101906106499190612e24565b6115ae565b60405161065b919061282d565b60405180910390f35b34801561067057600080fd5b5061068b60048036038101906106869190612930565b611642565b6040516106989190612af4565b60405180910390f35b3480156106ad57600080fd5b506106c860048036038101906106c39190612ab8565b61165a565b005b3480156106d657600080fd5b506106f160048036038101906106ec9190612930565b6116e0565b6040516106fe9190612af4565b60405180910390f35b34801561071357600080fd5b5061072e60048036038101906107299190612ab8565b6116fd565b60405161073b919061282d565b60405180910390f35b34801561075057600080fd5b5061076b60048036038101906107669190612930565b61171d565b60405161077a93929190612ded565b60405180910390f35b60007f80ac58cd000000000000000000000000000000000000000000000000000000007bffffffffffffffffffffffffffffffffffffffffffffffffffffffff1916827bffffffffffffffffffffffffffffffffffffffffffffffffffffffff1916148061084e57507f5b5e139f000000000000000000000000000000000000000000000000000000007bffffffffffffffffffffffffffffffffffffffffffffffffffffffff1916827bffffffffffffffffffffffffffffffffffffffffffffffffffffffff1916145b8061085e575061085d8261177e565b5b9050919050565b60606000805461087490612e93565b80601f01602080910402602001604051908101604052809291908181526020018280546108a090612e93565b80156108ed5780601f106108c2576101008083540402835291602001916108ed565b820191906000526020600020905b8154815290600101906020018083116108d057829003601f168201915b5050505050905090565b6000610902826117e8565b5061090c82611870565b9050919050565b61092582826109206118ad565b6118b5565b5050565b600073ffffffffffffffffffffffffffffffffffffffff168273ffffffffffffffffffffffffffffffffffffffff160361099b5760006040517f64a0ae92000000000000000000000000000000000000000000000000000000008152600401610992919061299e565b60405180910390fd5b60006109af83836109aa6118ad565b6118c7565b90508373ffffffffffffffffffffffffffffffffffffffff168173ffffffffffffffffffffffffffffffffffffffff1614610a25578382826040517f64283d7b000000000000000000000000000000000000000000000000000000008152600401610a1c93929190612ec4565b60405180910390fd5b50505050565b600073ffffffffffffffffffffffffffffffffffffffff16610a4c82611ae1565b73ffffffffffffffffffffffffffffffffffffffff1603610aa2576040517f08c379a0000000000000000000000000000000000000000000000000000000008152600401610a9990612f47565b60405180910390fd5b3373ffffffffffffffffffffffffffffffffffffffff16610ac282610fb8565b73ffffffffffffffffffffffffffffffffffffffff1614610b18576040517f08c379a0000000000000000000000000000000000000000000000000000000008152600401610b0f90612fd9565b60405180910390fd5b6000600a60008381526020019081526020016000205411610b6e576040517f08c379a0000000000000000000000000000000000000000000000000000000008152600401610b6590613045565b60405180910390fd5b600a600082815260200190815260200160002060009055807f3967925235f70873eabda48c5242393d4d41d99cd105109a90601202792fad5060405160405180910390a250565b600073ffffffffffffffffffffffffffffffffffffffff16610bd683611ae1565b73ffffffffffffffffffffffffffffffffffffffff1603610c2c576040517f08c379a0000000000000000000000000000000000000000000000000000000008152600401610c2390612f47565b60405180910390fd5b3373ffffffffffffffffffffffffffffffffffffffff16610c4c83610fb8565b73ffffffffffffffffffffffffffffffffffffffff1614610ca2576040517f08c379a0000000000000000000000000000000000000000000000000000000008152600401610c9990612fd9565b60405180910390fd5b80600a600084815260200190815260200160002081905550817fbca2f6391cafd6d28d39261ba883dd74090c618befb806e74ef434778bb2f7ed82604051610cea9190612af4565b60405180910390a25050565b610d1183838360405180602001604052806000815250611289565b505050565b60008073ffffffffffffffffffffffffffffffffffffffff16610d3883611ae1565b73ffffffffffffffffffffffffffffffffffffffff1614159050919050565b600073ffffffffffffffffffffffffffffffffffffffff16610d7882611ae1565b73ffffffffffffffffffffffffffffffffffffffff1603610dce576040517f08c379a0000000000000000000000000000000000000000000000000000000008152600401610dc590612f47565b60405180910390fd5b6000600a60008381526020019081526020016000205411610e24576040517f08c379a0000000000000000000000000000000000000000000000000000000008152600401610e1b90613045565b60405180910390fd5b600a6000828152602001908152602001600020543414610e79576040517f08c379a0000000000000000000000000000000000000000000000000000000008152600401610e70906130b1565b60405180910390fd5b3373ffffffffffffffffffffffffffffffffffffffff16610e9982610fb8565b73ffffffffffffffffffffffffffffffffffffffff1603610eef576040517f08c379a0000000000000000000000000000000000000000000000000000000008152600401610ee69061311d565b60405180910390fd5b6000610efa82610fb8565b9050610f07813384611b1e565b8073ffffffffffffffffffffffffffffffffffffffff166108fc349081150290604051600060405180830381858888f19350505050158015610f4d573d6000803e3d6000fd5b50600a6000838152602001908152602001600020600090553373ffffffffffffffffffffffffffffffffffffffff16827f913d09b391f64143215d9312fd7e8ecaa06001c646789c9d2109dc515bc34fad34604051610fac9190612af4565b60405180910390a35050565b6000610fc3826117e8565b9050919050565b60008073ffffffffffffffffffffffffffffffffffffffff168273ffffffffffffffffffffffffffffffffffffffff160361103d5760006040517f89c62b64000000000000000000000000000000000000000000000000000000008152600401611034919061299e565b60405180910390fd5b600360008373ffffffffffffffffffffffffffffffffffffffff1673ffffffffffffffffffffffffffffffffffffffff168152602001908152602001600020549050919050565b61108c611c8b565b6110966000611d12565b565b6000600660009054906101000a900473ffffffffffffffffffffffffffffffffffffffff16905090565b6060600180546110d190612e93565b80601f01602080910402602001604051908101604052809291908181526020018280546110fd90612e93565b801561114a5780601f1061111f5761010080835404028352916020019161114a565b820191906000526020600020905b81548152906001019060200180831161112d57829003601f168201915b5050505050905090565b61116661115f6118ad565b8383611dd8565b5050565b6009602052816000526040600020602052806000526040600020600091509150505481565b6000600760008154809291906111a49061316c565b9190505550600060075490506111ba3382611f47565b60405180606001604052808681526020018581526020018481525060086000838152602001908152602001600020600082015181600001556020820151816001015560408201518160020155905050600960008681526020019081526020016000206000858152602001908152602001600020600081548092919061123e9061316c565b919050555084817f9e41660f280c1aee026924103cb14d02be2ea5050109e3b5504c066960eeb37986866040516112769291906131b4565b60405180910390a3809150509392505050565b611294848484610929565b6112a084848484612040565b50505050565b6000600b60003373ffffffffffffffffffffffffffffffffffffffff1673ffffffffffffffffffffffffffffffffffffffff16815260200190815260200160002060009054906101000a900460ff168061133257503373ffffffffffffffffffffffffffffffffffffffff1661131a611098565b73ffffffffffffffffffffffffffffffffffffffff16145b611371576040517f08c379a000000000000000000000000000000000000000000000000000000000815260040161136890613229565b60405180910390fd5b600760008154809291906113849061316c565b91905055506000600754905061139a8682611f47565b60405180606001604052808681526020018581526020018481525060086000838152602001908152602001600020600082015181600001556020820151816001015560408201518160020155905050600960008681526020019081526020016000206000858152602001908152602001600020600081548092919061141e9061316c565b919050555084817f9e41660f280c1aee026924103cb14d02be2ea5050109e3b5504c066960eeb37986866040516114569291906131b4565b60405180910390a380915050949350505050565b6060611475826117e8565b5060006114806121f7565b905060008151116114a057604051806020016040528060008152506114cb565b806114aa8461220e565b6040516020016114bb929190613285565b6040516020818303038152906040525b915050919050565b6114db611c8b565b80600b60008473ffffffffffffffffffffffffffffffffffffffff1673ffffffffffffffffffffffffffffffffffffffff16815260200190815260200160002060006101000a81548160ff0219169083151502179055508173ffffffffffffffffffffffffffffffffffffffff167fb21afb9ce9be0a676f8f317ff0ca072fb89a4f8ce2d1b6fe80f8755c14f1cb1982604051611578919061282d565b60405180910390a25050565b60086020528060005260406000206000915090508060000154908060010154908060020154905083565b6000600560008473ffffffffffffffffffffffffffffffffffffffff1673ffffffffffffffffffffffffffffffffffffffff16815260200190815260200160002060008373ffffffffffffffffffffffffffffffffffffffff1673ffffffffffffffffffffffffffffffffffffffff16815260200190815260200160002060009054906101000a900460ff16905092915050565b600a6020528060005260406000206000915090505481565b611662611c8b565b600073ffffffffffffffffffffffffffffffffffffffff168173ffffffffffffffffffffffffffffffffffffffff16036116d45760006040517f1e4fbdf70000000000000000000000000000000000000000000000000000000081526004016116cb919061299e565b60405180910390fd5b6116dd81611d12565b50565b6000600a6000838152602001908152602001600020549050919050565b600b6020528060005260406000206000915054906101000a900460ff1681565b6000806000806008600086815260200190815260200160002060405180606001604052908160008201548152602001600182015481526020016002820154815250509050806000015181602001518260400151935093509350509193909250565b60007f01ffc9a7000000000000000000000000000000000000000000000000000000007bffffffffffffffffffffffffffffffffffffffffffffffffffffffff1916827bffffffffffffffffffffffffffffffffffffffffffffffffffffffff1916149050919050565b6000806117f483611ae1565b9050600073ffffffffffffffffffffffffffffffffffffffff168173ffffffffffffffffffffffffffffffffffffffff160361186757826040517f7e27328900000000000000000000000000000000000000000000000000000000815260040161185e9190612af4565b60405180910390fd5b80915050919050565b60006004600083815260200190815260200160002060009054906101000a900473ffffffffffffffffffffffffffffffffffffffff169050919050565b600033905090565b6118c283838360016122dc565b505050565b6000806118d384611ae1565b9050600073ffffffffffffffffffffffffffffffffffffffff168373ffffffffffffffffffffffffffffffffffffffff1614611915576119148184866124a1565b5b600073ffffffffffffffffffffffffffffffffffffffff168173ffffffffffffffffffffffffffffffffffffffff16146119a6576119576000856000806122dc565b6001600360008373ffffffffffffffffffffffffffffffffffffffff1673ffffffffffffffffffffffffffffffffffffffff168152602001908152602001600020600082825403925050819055505b600073ffffffffffffffffffffffffffffffffffffffff168573ffffffffffffffffffffffffffffffffffffffff1614611a29576001600360008773ffffffffffffffffffffffffffffffffffffffff1673ffffffffffffffffffffffffffffffffffffffff168152602001908152602001600020600082825401925050819055505b846002600086815260200190815260200160002060006101000a81548173ffffffffffffffffffffffffffffffffffffffff021916908373ffffffffffffffffffffffffffffffffffffffff160217905550838573ffffffffffffffffffffffffffffffffffffffff168273ffffffffffffffffffffffffffffffffffffffff167fddf252ad1be2c89b69c2b068fc378daa952ba7f163c4a11628f55a4df523b3ef60405160405180910390a4809150509392505050565b60006002600083815260200190815260200160002060009054906101000a900473ffffffffffffffffffffffffffffffffffffffff169050919050565b600073ffffffffffffffffffffffffffffffffffffffff168273ffffffffffffffffffffffffffffffffffffffff1603611b905760006040517f64a0ae92000000000000000000000000000000000000000000000000000000008152600401611b87919061299e565b60405180910390fd5b6000611b9e838360006118c7565b9050600073ffffffffffffffffffffffffffffffffffffffff168173ffffffffffffffffffffffffffffffffffffffff1603611c1157816040517f7e273289000000000000000000000000000000000000000000000000000000008152600401611c089190612af4565b60405180910390fd5b8373ffffffffffffffffffffffffffffffffffffffff168173ffffffffffffffffffffffffffffffffffffffff1614611c85578382826040517f64283d7b000000000000000000000000000000000000000000000000000000008152600401611c7c93929190612ec4565b60405180910390fd5b50505050565b611c936118ad565b73ffffffffffffffffffffffffffffffffffffffff16611cb1611098565b73ffffffffffffffffffffffffffffffffffffffff1614611d1057611cd46118ad565b6040517f118cdaa7000000000000000000000000000000000000000000000000000000008152600401611d07919061299e565b60405180910390fd5b565b6000600660009054906101000a900473ffffffffffffffffffffffffffffffffffffffff16905081600660006101000a81548173ffffffffffffffffffffffffffffffffffffffff021916908373ffffffffffffffffffffffffffffffffffffffff1602179055508173ffffffffffffffffffffffffffffffffffffffff168173ffffffffffffffffffffffffffffffffffffffff167f8be0079c531659141344cd1fd0a4f28419497f9722a3daafe3b4186f6b6457e060405160405180910390a35050565b600073ffffffffffffffffffffffffffffffffffffffff168273ffffffffffffffffffffffffffffffffffffffff1603611e4957816040517f5b08ba18000000000000000000000000000000000000000000000000000000008152600401611e40919061299e565b60405180910390fd5b80600560008573ffffffffffffffffffffffffffffffffffffffff1673ffffffffffffffffffffffffffffffffffffffff16815260200190815260200160002060008473ffffffffffffffffffffffffffffffffffffffff1673ffffffffffffffffffffffffffffffffffffffff16815260200190815260200160002060006101000a81548160ff0219169083151502179055508173ffffffffffffffffffffffffffffffffffffffff168373ffffffffffffffffffffffffffffffffffffffff167f17307eab39ab6107e8899845ad3d59bd9653f200f220920489ca2b5937696c3183604051611f3a919061282d565b60405180910390a3505050565b600073ffffffffffffffffffffffffffffffffffffffff168273ffffffffffffffffffffffffffffffffffffffff1603611fb95760006040517f64a0ae92000000000000000000000000000000000000000000000000000000008152600401611fb0919061299e565b60405180910390fd5b6000611fc7838360006118c7565b9050600073ffffffffffffffffffffffffffffffffffffffff168173ffffffffffffffffffffffffffffffffffffffff161461203b5760006040517f73c6ac6e000000000000000000000000000000000000000000000000000000008152600401612032919061299e565b60405180910390fd5b505050565b60008373ffffffffffffffffffffffffffffffffffffffff163b11156121f1578273ffffffffffffffffffffffffffffffffffffffff1663150b7a026120846118ad565b8685856040518563ffffffff1660e01b81526004016120a694939291906132fe565b6020604051808303816000875af19250505080156120e257506040513d601f19601f820116820180604052508101906120df919061335f565b60015b612166573d8060008114612112576040519150601f19603f3d011682016040523d82523d6000602084013e612117565b606091505b50600081510361215e57836040517f64a0ae92000000000000000000000000000000000000000000000000000000008152600401612155919061299e565b60405180910390fd5b805181602001fd5b63150b7a0260e01b7bffffffffffffffffffffffffffffffffffffffffffffffffffffffff1916817bffffffffffffffffffffffffffffffffffffffffffffffffffffffff1916146121ef57836040517f64a0ae920000000000000000000000000000000000000000000000000000000081526004016121e6919061299e565b60405180910390fd5b505b50505050565b606060405180602001604052806000815250905090565b60606000600161221d84612565565b01905060008167ffffffffffffffff81111561223c5761223b612bd8565b5b6040519080825280601f01601f19166020018201604052801561226e5781602001600182028036833780820191505090505b509050600082602001820190505b6001156122d1578080600190039150507f3031323334353637383961626364656600000000000000000000000000000000600a86061a8153600a85816122c5576122c461338c565b5b0494506000850361227c575b819350505050919050565b80806123155750600073ffffffffffffffffffffffffffffffffffffffff168273ffffffffffffffffffffffffffffffffffffffff1614155b15612449576000612325846117e8565b9050600073ffffffffffffffffffffffffffffffffffffffff168373ffffffffffffffffffffffffffffffffffffffff161415801561239057508273ffffffffffffffffffffffffffffffffffffffff168173ffffffffffffffffffffffffffffffffffffffff1614155b80156123a357506123a181846115ae565b155b156123e557826040517fa9fbf51f0000000000000000000000000000000000000000000000000000000081526004016123dc919061299e565b60405180910390fd5b811561244757838573ffffffffffffffffffffffffffffffffffffffff168273ffffffffffffffffffffffffffffffffffffffff167f8c5be1e5ebec7d5bd14f71427d1e84f3dd0314c0f7b2291e5b200ac8c7c3b92560405160405180910390a45b505b836004600085815260200190815260200160002060006101000a81548173ffffffffffffffffffffffffffffffffffffffff021916908373ffffffffffffffffffffffffffffffffffffffff16021790555050505050565b6124ac8383836126b8565b61256057600073ffffffffffffffffffffffffffffffffffffffff168373ffffffffffffffffffffffffffffffffffffffff160361252157806040517f7e2732890000000000000000000000000000000000000000000000000000000081526004016125189190612af4565b60405180910390fd5b81816040517f177e802f0000000000000000000000000000000000000000000000000000000081526004016125579291906133bb565b60405180910390fd5b505050565b600080600090507a184f03e93ff9f4daa797ed6e38ed64bf6a1f01000000000000000083106125c3577a184f03e93ff9f4daa797ed6e38ed64bf6a1f01000000000000000083816125b9576125b861338c565b5b0492506040810190505b6d04ee2d6d415b85acef81000000008310612600576d04ee2d6d415b85acef810000000083816125f6576125f561338c565b5b0492506020810190505b662386f26fc10000831061262f57662386f26fc1000083816126255761262461338c565b5b0492506010810190505b6305f5e1008310612658576305f5e100838161264e5761264d61338c565b5b0492506008810190505b612710831061267d5761271083816126735761267261338c565b5b0492506004810190505b606483106126a057606483816126965761269561338c565b5b0492506002810190505b600a83106126af576001810190505b80915050919050565b60008073ffffffffffffffffffffffffffffffffffffffff168373ffffffffffffffffffffffffffffffffffffffff161415801561277057508273ffffffffffffffffffffffffffffffffffffffff168473ffffffffffffffffffffffffffffffffffffffff161480612731575061273084846115ae565b5b8061276f57508273ffffffffffffffffffffffffffffffffffffffff1661275783611870565b73ffffffffffffffffffffffffffffffffffffffff16145b5b90509392505050565b6000604051905090565b600080fd5b600080fd5b60007fffffffff0000000000000000000000000000000000000000000000000000000082169050919050565b6127c28161278d565b81146127cd57600080fd5b50565b6000813590506127df816127b9565b92915050565b6000602082840312156127fb576127fa612783565b5b6000612809848285016127d0565b91505092915050565b60008115159050919050565b61282781612812565b82525050565b6000602082019050612842600083018461281e565b92915050565b600081519050919050565b600082825260208201905092915050565b60005b83811015612882578082015181840152602081019050612867565b60008484015250505050565b6000601f19601f8301169050919050565b60006128aa82612848565b6128b48185612853565b93506128c4818560208601612864565b6128cd8161288e565b840191505092915050565b600060208201905081810360008301526128f2818461289f565b905092915050565b6000819050919050565b61290d816128fa565b811461291857600080fd5b50565b60008135905061292a81612904565b92915050565b60006020828403121561294657612945612783565b5b60006129548482850161291b565b91505092915050565b600073ffffffffffffffffffffffffffffffffffffffff82169050919050565b60006129888261295d565b9050919050565b6129988161297d565b82525050565b60006020820190506129b3600083018461298f565b92915050565b6129c28161297d565b81146129cd57600080fd5b50565b6000813590506129df816129b9565b92915050565b600080604083850312156129fc576129fb612783565b5b6000612a0a858286016129d0565b9250506020612a1b8582860161291b565b9150509250929050565b600080600060608486031215612a3e57612a3d612783565b5b6000612a4c868287016129d0565b9350506020612a5d868287016129d0565b9250506040612a6e8682870161291b565b9150509250925092565b60008060408385031215612a8f57612a8e612783565b5b6000612a9d8582860161291b565b9250506020612aae8582860161291b565b9150509250929050565b600060208284031215612ace57612acd612783565b5b6000612adc848285016129d0565b91505092915050565b612aee816128fa565b82525050565b6000602082019050612b096000830184612ae5565b92915050565b612b1881612812565b8114612b2357600080fd5b50565b600081359050612b3581612b0f565b92915050565b60008060408385031215612b5257612b51612783565b5b6000612b60858286016129d0565b9250506020612b7185828601612b26565b9150509250929050565b600080600060608486031215612b9457612b93612783565b5b6000612ba28682870161291b565b9350506020612bb38682870161291b565b9250506040612bc48682870161291b565b9150509250925092565b600080fd5b600080fd5b7f4e487b7100000000000000000000000000000000000000000000000000000000600052604160045260246000fd5b612c108261288e565b810181811067ffffffffffffffff82111715612c2f57612c2e612bd8565b5b80604052505050565b6000612c42612779565b9050612c4e8282612c07565b919050565b600067ffffffffffffffff821115612c6e57612c6d612bd8565b5b612c778261288e565b9050602081019050919050565b82818337600083830152505050565b6000612ca6612ca184612c53565b612c38565b905082815260208101848484011115612cc257612cc1612bd3565b5b612ccd848285612c84565b509392505050565b600082601f830112612cea57612ce9612bce565b5b8135612cfa848260208601612c93565b91505092915050565b60008060008060808587031215612d1d57612d1c612783565b5b6000612d2b878288016129d0565b9450506020612d3c878288016129d0565b9350506040612d4d8782880161291b565b925050606085013567ffffffffffffffff811115612d6e57612d6d612788565b5b612d7a87828801612cd5565b91505092959194509250565b60008060008060808587031215612da057612d9f612783565b5b6000612dae878288016129d0565b9450506020612dbf8782880161291b565b9350506040612dd08782880161291b565b9250506060612de18782880161291b565b91505092959194509250565b6000606082019050612e026000830186612ae5565b612e0f6020830185612ae5565b612e1c6040830184612ae5565b949350505050565b60008060408385031215612e3b57612e3a612783565b5b6000612e49858286016129d0565b9250506020612e5a858286016129d0565b9150509250929050565b7f4e487b7100000000000000000000000000000000000000000000000000000000600052602260045260246000fd5b60006002820490506001821680612eab57607f821691505b602082108103612ebe57612ebd612e64565b5b50919050565b6000606082019050612ed9600083018661298f565b612ee66020830185612ae5565b612ef3604083018461298f565b949350505050565b7f5469636b657420646f6573206e6f742065786973740000000000000000000000600082015250565b6000612f31601583612853565b9150612f3c82612efb565b602082019050919050565b60006020820190508181036000830152612f6081612f24565b9050919050565b7f596f7520617265206e6f7420746865206f776e6572206f66207468697320746960008201527f636b657400000000000000000000000000000000000000000000000000000000602082015250565b6000612fc3602483612853565b9150612fce82612f67565b604082019050919050565b60006020820190508181036000830152612ff281612fb6565b9050919050565b7f5469636b6574206973206e6f74206c6973746564000000000000000000000000600082015250565b600061302f601483612853565b915061303a82612ff9565b602082019050919050565b6000602082019050818103600083015261305e81613022565b9050919050565b7f496e636f7272656374207061796d656e7420616d6f756e740000000000000000600082015250565b600061309b601883612853565b91506130a682613065565b602082019050919050565b600060208201905081810360008301526130ca8161308e565b9050919050565b7f596f752063616e6e6f742062757920796f7572206f776e207469636b65740000600082015250565b6000613107601e83612853565b9150613112826130d1565b602082019050919050565b60006020820190508181036000830152613136816130fa565b9050919050565b7f4e487b7100000000000000000000000000000000000000000000000000000000600052601160045260246000fd5b6000613177826128fa565b91507fffffffffffffffffffffffffffffffffffffffffffffffffffffffffffffffff82036131a9576131a861313d565b5b600182019050919050565b60006040820190506131c96000830185612ae5565b6131d66020830184612ae5565b9392505050565b7f4e6f7420617574686f72697a656420746f206d696e7400000000000000000000600082015250565b6000613213601683612853565b915061321e826131dd565b602082019050919050565b6000602082019050818103600083015261324281613206565b9050919050565b600081905092915050565b600061325f82612848565b6132698185613249565b9350613279818560208601612864565b80840191505092915050565b60006132918285613254565b915061329d8284613254565b91508190509392505050565b600081519050919050565b600082825260208201905092915050565b60006132d0826132a9565b6132da81856132b4565b93506132ea818560208601612864565b6132f38161288e565b840191505092915050565b6000608082019050613313600083018761298f565b613320602083018661298f565b61332d6040830185612ae5565b818103606083015261333f81846132c5565b905095945050505050565b600081519050613359816127b9565b92915050565b60006020828403121561337557613374612783565b5b60006133838482850161334a565b91505092915050565b7f4e487b7100000000000000000000000000000000000000000000000000000000600052601260045260246000fd5b60006040820190506133d0600083018561298f565b6133dd6020830184612ae5565b939250505056fea264697066735822122084f6b0d97fca25c14c79b7c08f73768bcdfbab20a452d4e0ab10271c653efc8a64736f6c63430008140033",
  "linkReferences": {},
  "deployedLinkReferences": {}
}