{
  "_format": "hh-sol-artifact-1",
  "contractName": "LotteryNFT",
  "sourceName": "contracts/LotteryNFT.sol",
  "abi": [
    {
      "inputs": [
        {
          "internalType": "address",
          "name": "initialOwner",
          "type": "address"
        }
      ],
      "stateMutability": "nonpayable",
      "type": "constructor"
    },
    {
      "inputs": [
        {
          "internalType": "address",
          "name": "sender",
          "type": "address"
        },
        {
          "internalType": "uint256",
          "name": "tokenId",
          "type": "uint256"
        },
        {
          "internalType": "address",
          "name": "owner",
          "type": "address"
        }
      ],
      "name": "ERC721IncorrectOwner",
      "type": "error"
    },
    {
      "inputs": [
        {
          "internalType": "address",
          "name": "operator",
          "type": "address"
        },
        {
          "internalType": "uint256",
          "name": "tokenId",
          "type": "uint256"
        }
      ],
      "name": "ERC721InsufficientApproval",
      "type": "error"
    },
    {
      "inputs": [
        {
          "internalType": "address",
          "name": "approver",
          "type": "address"
        }
      ],
      "name": "ERC721InvalidApprover",
      "type": "error"
    },
    {
      "inputs": [
        {
          "internalType": "address",
          "name": "operator",
          "type": "address"
        }
      ],
      "name": "ERC721InvalidOperator",
      "type": "error"
    },
    {
      "inputs": [
        {
          "internalType": "address",
          "name": "owner",
          "type": "address"
        }
      ],
      "name": "ERC721InvalidOwner",
      "type": "error"
    },
    {
      "inputs": [
        {
          "internalType": "address",
          "name": "receiver",
          "type": "address"
        }
      ],
      "name": "ERC721InvalidReceiver",
      "type": "error"
    },
    {
      "inputs": [
        {
          "internalType": "address",
          "name": "sender",
          "type": "address"
        }
      ],
      "name": "ERC721InvalidSender",
      "type": "error"
    },
    {
      "inputs": [
        {
          "internalType": "uint256",
          "name": "tokenId",
          "type": "uint256"
        }
      ],
      "name": "ERC721NonexistentToken",
      "type": "error"
    },
    {
      "inputs": [
        {
          "internalType": "address",
          "name": "owner",
          "type": "address"
        }
      ],
      "name": "OwnableInvalidOwner",
      "type": "error"
    },
    {
      "inputs": [
        {
          "internalType": "address",
          "name": "account",
          "type": "address"
        }
      ],
      "name": "OwnableUnauthorizedAccount",
      "type": "error"
    },
    {
      "anonymous": false,
      "inputs": [
        {
          "indexed": true,
          "internalType": "address",
          "name": "owner",
          "type": "address"
        },
        {
          "indexed": true,
          "internalType": "address",
          "name": "approved",
          "type": "address"
        },
        {
          "indexed": true,
          "internalType": "uint256",
          "name": "tokenId",
          "type": "uint256"
        }
      ],
      "name": "Approval",
      "type": "event"
    },
    {
      "anonymous": false,
      "inputs": [
        {
          "indexed": true,
          "internalType": "address",
          "name": "owner",
          "type": "address"
        },
        {
          "indexed": true,
          "internalType": "address",
          "name": "operator",
          "type": "address"
        },
        {
          "indexed": false,
          "internalType": "bool",
          "name": "approved",
          "type": "bool"
        }
      ],
      "name": "ApprovalForAll",
      "type": "event"
    },
    {
      "anonymous": false,
      "inputs": [
        {
          "indexed": true,
          "internalType": "address",
          "name": "previousOwner",
          "type": "address"
        },
        {
          "indexed": true,
          "internalType": "address",
          "name": "newOwner",
          "type": "address"
        }
      ],
      "name": "OwnershipTransferred",
      "type": "event"
    },
    {
      "anonymous": false,
      "inputs": [
        {
          "indexed": true,
          "internalType": "uint256",
          "name": "tokenId",
          "type": "uint256"
        },
        {
          "indexed": true,
          "internalType": "address",
          "name": "buyer",
          "type": "address"
        },
        {
          "indexed": false,
          "internalType": "uint256",
          "name": "price",
          "type": "uint256"
        }
      ],
      "name": "TicketBought",
      "type": "event"
    },
    {
      "anonymous": false,
      "inputs": [
        {
          "indexed": true,
          "internalType": "uint256",
          "name": "tokenId",
          "type": "uint256"
        }
      ],
      "name": "TicketDelisted",
      "type": "event"
    },
    {
      "anonymous": false,
      "inputs": [
        {
          "indexed": true,
          "internalType": "uint256",
          "name": "tokenId",
          "type": "uint256"
        },
        {
          "indexed": false,
          "internalType": "uint256",
          "name": "price",
          "type": "uint256"
        }
      ],
      "name": "TicketListed",
      "type": "event"
    },
    {
      "anonymous": false,
      "inputs": [
        {
          "indexed": true,
          "internalType": "uint256",
          "name": "tokenId",
          "type": "uint256"
        },
        {
          "indexed": true,
          "internalType": "uint256",
          "name": "activityId",
          "type": "uint256"
        },
        {
          "indexed": false,
          "internalType": "uint256",
          "name": "choiceIndex",
          "type": "uint256"
        },
        {
          "indexed": false,
          "internalType": "uint256",
          "name": "price",
          "type": "uint256"
        }
      ],
      "name": "TicketMinted",
      "type": "event"
    },
    {
      "anonymous": false,
      "inputs": [
        {
          "indexed": true,
          "internalType": "address",
          "name": "from",
          "type": "address"
        },
        {
          "indexed": true,
          "internalType": "address",
          "name": "to",
          "type": "address"
        },
        {
          "indexed": true,
          "internalType": "uint256",
          "name": "tokenId",
          "type": "uint256"
        }
      ],
      "name": "Transfer",
      "type": "event"
    },
    {
      "inputs": [
        {
          "internalType": "address",
          "name": "to",
          "type": "address"
        },
        {
          "internalType": "uint256",
          "name": "tokenId",
          "type": "uint256"
        }
      ],
      "name": "approve",
      "outputs": [],
      "stateMutability": "nonpayable",
      "type": "function"
    },
    {
      "inputs": [
        {
          "internalType": "address",
          "name": "owner",
          "type": "address"
        }
      ],
      "name": "balanceOf",
      "outputs": [
        {
          "internalType": "uint256",
          "name": "",
          "type": "uint256"
        }
      ],
      "stateMutability": "view",
      "type": "function"
    },
    {
      "inputs": [
        {
          "internalType": "uint256",
          "name": "tokenId",
          "type": "uint256"
        }
      ],
      "name": "buyListedTicket",
      "outputs": [],
      "stateMutability": "payable",
      "type": "function"
    },
    {
      "inputs": [
        {
          "internalType": "uint256",
          "name": "",
          "type": "uint256"
        },
        {
          "internalType": "uint256",
          "name": "",
          "type": "uint256"
        }
      ],
      "name": "choiceCount",
      "outputs": [
        {
          "internalType": "uint256",
          "name": "",
          "type": "uint256"
        }
      ],
      "stateMutability": "view",
      "type": "function"
    },
    {
      "inputs": [
        {
          "internalType": "uint256",
          "name": "tokenId",
          "type": "uint256"
        }
      ],
      "name": "delistTicket",
      "outputs": [],
      "stateMutability": "nonpayable",
      "type": "function"
    },
    {
      "inputs": [
        {
          "internalType": "uint256",
          "name": "tokenId",
          "type": "uint256"
        }
      ],
      "name": "exists",
      "outputs": [
        {
          "internalType": "bool",
          "name": "",
          "type": "bool"
        }
      ],
      "stateMutability": "view",
      "type": "function"
    },
    {
      "inputs": [
        {
          "internalType": "uint256",
          "name": "tokenId",
          "type": "uint256"
        }
      ],
      "name": "getApproved",
      "outputs": [
        {
          "internalType": "address",
          "name": "",
          "type": "address"
        }
      ],
      "stateMutability": "view",
      "type": "function"
    },
    {
      "inputs": [
        {
          "internalType": "uint256",
          "name": "tokenId",
          "type": "uint256"
        }
      ],
      "name": "getTicketInfo",
      "outputs": [
        {
          "components": [
            {
              "internalType": "uint256",
              "name": "activityId",
              "type": "uint256"
            },
            {
              "internalType": "uint256",
              "name": "choiceIndex",
              "type": "uint256"
            },
            {
              "internalType": "uint256",
              "name": "price",
              "type": "uint256"
            }
          ],
          "internalType": "struct LotteryNFT.LotteryTicket",
          "name": "",
          "type": "tuple"
        }
      ],
      "stateMutability": "view",
      "type": "function"
    },
    {
      "inputs": [
        {
          "internalType": "uint256",
          "name": "tokenId",
          "type": "uint256"
        }
      ],
      "name": "getTicketListedPrice",
      "outputs": [
        {
          "internalType": "uint256",
          "name": "",
          "type": "uint256"
        }
      ],
      "stateMutability": "view",
      "type": "function"
    },
    {
      "inputs": [
        {
          "internalType": "address",
          "name": "owner",
          "type": "address"
        },
        {
          "internalType": "address",
          "name": "operator",
          "type": "address"
        }
      ],
      "name": "isApprovedForAll",
      "outputs": [
        {
          "internalType": "bool",
          "name": "",
          "type": "bool"
        }
      ],
      "stateMutability": "view",
      "type": "function"
    },
    {
      "inputs": [
        {
          "internalType": "uint256",
          "name": "tokenId",
          "type": "uint256"
        },
        {
          "internalType": "uint256",
          "name": "price",
          "type": "uint256"
        }
      ],
      "name": "listTicket",
      "outputs": [],
      "stateMutability": "nonpayable",
      "type": "function"
    },
    {
      "inputs": [
        {
          "internalType": "uint256",
          "name": "",
          "type": "uint256"
        }
      ],
      "name": "lotteryTickets",
      "outputs": [
        {
          "internalType": "uint256",
          "name": "activityId",
          "type": "uint256"
        },
        {
          "internalType": "uint256",
          "name": "choiceIndex",
          "type": "uint256"
        },
        {
          "internalType": "uint256",
          "name": "price",
          "type": "uint256"
        }
      ],
      "stateMutability": "view",
      "type": "function"
    },
    {
      "inputs": [
        {
          "internalType": "uint256",
          "name": "activityId",
          "type": "uint256"
        },
        {
          "internalType": "uint256",
          "name": "choiceIndex",
          "type": "uint256"
        },
        {
          "internalType": "uint256",
          "name": "price",
          "type": "uint256"
        }
      ],
      "name": "mintTicket",
      "outputs": [
        {
          "internalType": "uint256",
          "name": "",
          "type": "uint256"
        }
      ],
      "stateMutability": "nonpayable",
      "type": "function"
    },
    {
      "inputs": [],
      "name": "name",
      "outputs": [
        {
          "internalType": "string",
          "name": "",
          "type": "string"
        }
      ],
      "stateMutability": "view",
      "type": "function"
    },
    {
      "inputs": [],
      "name": "owner",
      "outputs": [
        {
          "internalType": "address",
          "name": "",
          "type": "address"
        }
      ],
      "stateMutability": "view",
      "type": "function"
    },
    {
      "inputs": [
        {
          "internalType": "uint256",
          "name": "tokenId",
          "type": "uint256"
        }
      ],
      "name": "ownerOf",
      "outputs": [
        {
          "internalType": "address",
          "name": "",
          "type": "address"
        }
      ],
      "stateMutability": "view",
      "type": "function"
    },
    {
      "inputs": [],
      "name": "renounceOwnership",
      "outputs": [],
      "stateMutability": "nonpayable",
      "type": "function"
    },
    {
      "inputs": [
        {
          "internalType": "address",
          "name": "from",
          "type": "address"
        },
        {
          "internalType": "address",
          "name": "to",
          "type": "address"
        },
        {
          "internalType": "uint256",
          "name": "tokenId",
          "type": "uint256"
        }
      ],
      "name": "safeTransferFrom",
      "outputs": [],
      "stateMutability": "nonpayable",
      "type": "function"
    },
    {
      "inputs": [
        {
          "internalType": "address",
          "name": "from",
          "type": "address"
        },
        {
          "internalType": "address",
          "name": "to",
          "type": "address"
        },
        {
          "internalType": "uint256",
          "name": "tokenId",
          "type": "uint256"
        },
        {
          "internalType": "bytes",
          "name": "data",
          "type": "bytes"
        }
      ],
      "name": "safeTransferFrom",
      "outputs": [],
      "stateMutability": "nonpayable",
      "type": "function"
    },
    {
      "inputs": [
        {
          "internalType": "address",
          "name": "operator",
          "type": "address"
        },
        {
          "internalType": "bool",
          "name": "approved",
          "type": "bool"
        }
      ],
      "name": "setApprovalForAll",
      "outputs": [],
      "stateMutability": "nonpayable",
      "type": "function"
    },
    {
      "inputs": [
        {
          "internalType": "bytes4",
          "name": "interfaceId",
          "type": "bytes4"
        }
      ],
      "name": "supportsInterface",
      "outputs": [
        {
          "internalType": "bool",
          "name": "",
          "type": "bool"
        }
      ],
      "stateMutability": "view",
      "type": "function"
    },
    {
      "inputs": [],
      "name": "symbol",
      "outputs": [
        {
          "internalType": "string",
          "name": "",
          "type": "string"
        }
      ],
      "stateMutability": "view",
      "type": "function"
    },
    {
      "inputs": [
        {
          "internalType": "uint256",
          "name": "",
          "type": "uint256"
        }
      ],
      "name": "ticketListedPrice",
      "outputs": [
        {
          "internalType": "uint256",
          "name": "",
          "type": "uint256"
        }
      ],
      "stateMutability": "view",
      "type": "function"
    },
    {
      "inputs": [
        {
          "internalType": "uint256",
          "name": "tokenId",
          "type": "uint256"
        }
      ],
      "name": "tokenURI",
      "outputs": [
        {
          "internalType": "string",
          "name": "",
          "type": "string"
        }
      ],
      "stateMutability": "view",
      "type": "function"
    },
    {
      "inputs": [
        {
          "internalType": "address",
          "name": "from",
          "type": "address"
        },
        {
          "internalType": "address",
          "name": "to",
          "type": "address"
        },
        {
          "internalType": "uint256",
          "name": "tokenId",
          "type": "uint256"
        }
      ],
      "name": "transferFrom",
      "outputs": [],
      "stateMutability": "nonpayable",
      "type": "function"
    },
    {
      "inputs": [
        {
          "internalType": "address",
          "name": "newOwner",
          "type": "address"
        }
      ],
      "name": "transferOwnership",
      "outputs": [],
      "stateMutability": "nonpayable",
      "type": "function"
    }
  ],
  "bytecode": "0x60806040523480156200001157600080fd5b506040516200369c3803806200369c833981810160405281019062000037919062000288565b806040518060400160405280600d81526020017f4c6f74746572795469636b6574000000000000000000000000000000000000008152506040518060400160405280600381526020017f4c545400000000000000000000000000000000000000000000000000000000008152508160009081620000b5919062000534565b508060019081620000c7919062000534565b505050600073ffffffffffffffffffffffffffffffffffffffff168173ffffffffffffffffffffffffffffffffffffffff16036200013f5760006040517f1e4fbdf70000000000000000000000000000000000000000000000000000000081526004016200013691906200062c565b60405180910390fd5b62000150816200015860201b60201c565b505062000649565b6000600660009054906101000a900473ffffffffffffffffffffffffffffffffffffffff16905081600660006101000a81548173ffffffffffffffffffffffffffffffffffffffff021916908373ffffffffffffffffffffffffffffffffffffffff1602179055508173ffffffffffffffffffffffffffffffffffffffff168173ffffffffffffffffffffffffffffffffffffffff167f8be0079c531659141344cd1fd0a4f28419497f9722a3daafe3b4186f6b6457e060405160405180910390a35050565b600080fd5b600073ffffffffffffffffffffffffffffffffffffffff82169050919050565b6000620002508262000223565b9050919050565b620002628162000243565b81146200026e57600080fd5b50565b600081519050620002828162000257565b92915050565b600060208284031215620002a157620002a06200021e565b5b6000620002b18482850162000271565b91505092915050565b600081519050919050565b7f4e487b7100000000000000000000000000000000000000000000000000000000600052604160045260246000fd5b7f4e487b7100000000000000000000000000000000000000000000000000000000600052602260045260246000fd5b600060028204905060018216806200033c57607f821691505b602082108103620003525762000351620002f4565b5b50919050565b60008190508160005260206000209050919050565b60006020601f8301049050919050565b600082821b905092915050565b600060088302620003bc7fffffffffffffffffffffffffffffffffffffffffffffffffffffffffffffffff826200037d565b620003c886836200037d565b95508019841693508086168417925050509392505050565b6000819050919050565b6000819050919050565b6000620004156200040f6200040984620003e0565b620003ea565b620003e0565b9050919050565b6000819050919050565b6200043183620003f4565b6200044962000440826200041c565b8484546200038a565b825550505050565b600090565b6200046062000451565b6200046d81848462000426565b505050565b5b8181101562000495576200048960008262000456565b60018101905062000473565b5050565b601f821115620004e457620004ae8162000358565b620004b9846200036d565b81016020851015620004c9578190505b620004e1620004d8856200036d565b83018262000472565b50505b505050565b600082821c905092915050565b60006200050960001984600802620004e9565b1980831691505092915050565b6000620005248383620004f6565b9150826002028217905092915050565b6200053f82620002ba565b67ffffffffffffffff8111156200055b576200055a620002c5565b5b62000567825462000323565b6200057482828562000499565b600060209050601f831160018114620005ac576000841562000597578287015190505b620005a3858262000516565b86555062000613565b601f198416620005bc8662000358565b60005b82811015620005e657848901518255600182019150602085019450602081019050620005bf565b8683101562000606578489015162000602601f891682620004f6565b8355505b6001600288020188555050505b505050505050565b620006268162000243565b82525050565b60006020820190506200064360008301846200061b565b92915050565b61304380620006596000396000f3fe6080604052600436106101815760003560e01c80638da5cb5b116100d1578063c87b56dd1161008a578063edba7fbd11610064578063edba7fbd146105bd578063f2fde38b146105fa578063f39d346114610623578063ff99a0631461066057610181565b8063c87b56dd14610504578063e74579b114610541578063e985e9c51461058057610181565b80638da5cb5b146103e257806395d89b411461040d578063a22cb46514610438578063a5064c6114610461578063b86f2e341461049e578063b88d4fde146104db57610181565b8063305a905a1161013e578063502488531161011857806350248853146103355780636352211e1461035157806370a082311461038e578063715018a6146103cb57610181565b8063305a905a146102a657806342842e0e146102cf5780634f558e79146102f857610181565b806301ffc9a71461018657806306fdde03146101c3578063081812fc146101ee578063095ea7b31461022b57806323b872dd146102545780632bbe807b1461027d575b600080fd5b34801561019257600080fd5b506101ad60048036038101906101a89190612475565b61069d565b6040516101ba91906124bd565b60405180910390f35b3480156101cf57600080fd5b506101d861077f565b6040516101e59190612568565b60405180910390f35b3480156101fa57600080fd5b50610215600480360381019061021091906125c0565b610811565b604051610222919061262e565b60405180910390f35b34801561023757600080fd5b50610252600480360381019061024d9190612675565b61082d565b005b34801561026057600080fd5b5061027b600480360381019061027691906126b5565b610843565b005b34801561028957600080fd5b506102a4600480360381019061029f91906125c0565b610945565b005b3480156102b257600080fd5b506102cd60048036038101906102c89190612708565b610acf565b005b3480156102db57600080fd5b506102f660048036038101906102f191906126b5565b610c10565b005b34801561030457600080fd5b5061031f600480360381019061031a91906125c0565b610c30565b60405161032c91906124bd565b60405180910390f35b61034f600480360381019061034a91906125c0565b610c71565b005b34801561035d57600080fd5b50610378600480360381019061037391906125c0565b610ed2565b604051610385919061262e565b60405180910390f35b34801561039a57600080fd5b506103b560048036038101906103b09190612748565b610ee4565b6040516103c29190612784565b60405180910390f35b3480156103d757600080fd5b506103e0610f9e565b005b3480156103ee57600080fd5b506103f7610fb2565b604051610404919061262e565b60405180910390f35b34801561041957600080fd5b50610422610fdc565b60405161042f9190612568565b60405180910390f35b34801561044457600080fd5b5061045f600480360381019061045a91906127cb565b61106e565b005b34801561046d57600080fd5b5061048860048036038101906104839190612708565b611084565b6040516104959190612784565b60405180910390f35b3480156104aa57600080fd5b506104c560048036038101906104c0919061280b565b6110a9565b6040516104d29190612784565b60405180910390f35b3480156104e757600080fd5b5061050260048036038101906104fd9190612993565b6111a3565b005b34801561051057600080fd5b5061052b600480360381019061052691906125c0565b6111c0565b6040516105389190612568565b60405180910390f35b34801561054d57600080fd5b50610568600480360381019061056391906125c0565b611229565b60405161057793929190612a16565b60405180910390f35b34801561058c57600080fd5b506105a760048036038101906105a29190612a4d565b611253565b6040516105b491906124bd565b60405180910390f35b3480156105c957600080fd5b506105e460048036038101906105df91906125c0565b6112e7565b6040516105f19190612784565b60405180910390f35b34801561060657600080fd5b50610621600480360381019061061c9190612748565b6112ff565b005b34801561062f57600080fd5b5061064a600480360381019061064591906125c0565b611385565b6040516106579190612784565b60405180910390f35b34801561066c57600080fd5b50610687600480360381019061068291906125c0565b6113a2565b6040516106949190612ade565b60405180910390f35b60007f80ac58cd000000000000000000000000000000000000000000000000000000007bffffffffffffffffffffffffffffffffffffffffffffffffffffffff1916827bffffffffffffffffffffffffffffffffffffffffffffffffffffffff1916148061076857507f5b5e139f000000000000000000000000000000000000000000000000000000007bffffffffffffffffffffffffffffffffffffffffffffffffffffffff1916827bffffffffffffffffffffffffffffffffffffffffffffffffffffffff1916145b806107785750610777826113ed565b5b9050919050565b60606000805461078e90612b28565b80601f01602080910402602001604051908101604052809291908181526020018280546107ba90612b28565b80156108075780601f106107dc57610100808354040283529160200191610807565b820191906000526020600020905b8154815290600101906020018083116107ea57829003601f168201915b5050505050905090565b600061081c82611457565b50610826826114df565b9050919050565b61083f828261083a61151c565b611524565b5050565b600073ffffffffffffffffffffffffffffffffffffffff168273ffffffffffffffffffffffffffffffffffffffff16036108b55760006040517f64a0ae920000000000000000000000000000000000000000000000000000000081526004016108ac919061262e565b60405180910390fd5b60006108c983836108c461151c565b611536565b90508373ffffffffffffffffffffffffffffffffffffffff168173ffffffffffffffffffffffffffffffffffffffff161461093f578382826040517f64283d7b00000000000000000000000000000000000000000000000000000000815260040161093693929190612b59565b60405180910390fd5b50505050565b600073ffffffffffffffffffffffffffffffffffffffff1661096682611750565b73ffffffffffffffffffffffffffffffffffffffff16036109bc576040517f08c379a00000000000000000000000000000000000000000000000000000000081526004016109b390612bdc565b60405180910390fd5b3373ffffffffffffffffffffffffffffffffffffffff166109dc82610ed2565b73ffffffffffffffffffffffffffffffffffffffff1614610a32576040517f08c379a0000000000000000000000000000000000000000000000000000000008152600401610a2990612c6e565b60405180910390fd5b6000600a60008381526020019081526020016000205411610a88576040517f08c379a0000000000000000000000000000000000000000000000000000000008152600401610a7f90612cda565b60405180910390fd5b600a600082815260200190815260200160002060009055807f3967925235f70873eabda48c5242393d4d41d99cd105109a90601202792fad5060405160405180910390a250565b600073ffffffffffffffffffffffffffffffffffffffff16610af083611750565b73ffffffffffffffffffffffffffffffffffffffff1603610b46576040517f08c379a0000000000000000000000000000000000000000000000000000000008152600401610b3d90612bdc565b60405180910390fd5b3373ffffffffffffffffffffffffffffffffffffffff16610b6683610ed2565b73ffffffffffffffffffffffffffffffffffffffff1614610bbc576040517f08c379a0000000000000000000000000000000000000000000000000000000008152600401610bb390612c6e565b60405180910390fd5b80600a600084815260200190815260200160002081905550817fbca2f6391cafd6d28d39261ba883dd74090c618befb806e74ef434778bb2f7ed82604051610c049190612784565b60405180910390a25050565b610c2b838383604051806020016040528060008152506111a3565b505050565b60008073ffffffffffffffffffffffffffffffffffffffff16610c5283611750565b73ffffffffffffffffffffffffffffffffffffffff1614159050919050565b600073ffffffffffffffffffffffffffffffffffffffff16610c9282611750565b73ffffffffffffffffffffffffffffffffffffffff1603610ce8576040517f08c379a0000000000000000000000000000000000000000000000000000000008152600401610cdf90612bdc565b60405180910390fd5b6000600a60008381526020019081526020016000205411610d3e576040517f08c379a0000000000000000000000000000000000000000000000000000000008152600401610d3590612cda565b60405180910390fd5b600a6000828152602001908152602001600020543414610d93576040517f08c379a0000000000000000000000000000000000000000000000000000000008152600401610d8a90612d46565b60405180910390fd5b3373ffffffffffffffffffffffffffffffffffffffff16610db382610ed2565b73ffffffffffffffffffffffffffffffffffffffff1603610e09576040517f08c379a0000000000000000000000000000000000000000000000000000000008152600401610e0090612db2565b60405180910390fd5b6000610e1482610ed2565b9050610e2181338461178d565b8073ffffffffffffffffffffffffffffffffffffffff166108fc349081150290604051600060405180830381858888f19350505050158015610e67573d6000803e3d6000fd5b50600a6000838152602001908152602001600020600090553373ffffffffffffffffffffffffffffffffffffffff16827f913d09b391f64143215d9312fd7e8ecaa06001c646789c9d2109dc515bc34fad34604051610ec69190612784565b60405180910390a35050565b6000610edd82611457565b9050919050565b60008073ffffffffffffffffffffffffffffffffffffffff168273ffffffffffffffffffffffffffffffffffffffff1603610f575760006040517f89c62b64000000000000000000000000000000000000000000000000000000008152600401610f4e919061262e565b60405180910390fd5b600360008373ffffffffffffffffffffffffffffffffffffffff1673ffffffffffffffffffffffffffffffffffffffff168152602001908152602001600020549050919050565b610fa66118fa565b610fb06000611981565b565b6000600660009054906101000a900473ffffffffffffffffffffffffffffffffffffffff16905090565b606060018054610feb90612b28565b80601f016020809104026020016040519081016040528092919081815260200182805461101790612b28565b80156110645780601f1061103957610100808354040283529160200191611064565b820191906000526020600020905b81548152906001019060200180831161104757829003601f168201915b5050505050905090565b61108061107961151c565b8383611a47565b5050565b6009602052816000526040600020602052806000526040600020600091509150505481565b6000600760008154809291906110be90612e01565b9190505550600060075490506110d43382611bb6565b60405180606001604052808681526020018581526020018481525060086000838152602001908152602001600020600082015181600001556020820151816001015560408201518160020155905050600960008681526020019081526020016000206000858152602001908152602001600020600081548092919061115890612e01565b919050555084817f9e41660f280c1aee026924103cb14d02be2ea5050109e3b5504c066960eeb3798686604051611190929190612e49565b60405180910390a3809150509392505050565b6111ae848484610843565b6111ba84848484611caf565b50505050565b60606111cb82611457565b5060006111d6611e66565b905060008151116111f65760405180602001604052806000815250611221565b8061120084611e7d565b604051602001611211929190612eae565b6040516020818303038152906040525b915050919050565b60086020528060005260406000206000915090508060000154908060010154908060020154905083565b6000600560008473ffffffffffffffffffffffffffffffffffffffff1673ffffffffffffffffffffffffffffffffffffffff16815260200190815260200160002060008373ffffffffffffffffffffffffffffffffffffffff1673ffffffffffffffffffffffffffffffffffffffff16815260200190815260200160002060009054906101000a900460ff16905092915050565b600a6020528060005260406000206000915090505481565b6113076118fa565b600073ffffffffffffffffffffffffffffffffffffffff168173ffffffffffffffffffffffffffffffffffffffff16036113795760006040517f1e4fbdf7000000000000000000000000000000000000000000000000000000008152600401611370919061262e565b60405180910390fd5b61138281611981565b50565b6000600a6000838152602001908152602001600020549050919050565b6113aa6123e8565b6008600083815260200190815260200160002060405180606001604052908160008201548152602001600182015481526020016002820154815250509050919050565b60007f01ffc9a7000000000000000000000000000000000000000000000000000000007bffffffffffffffffffffffffffffffffffffffffffffffffffffffff1916827bffffffffffffffffffffffffffffffffffffffffffffffffffffffff1916149050919050565b60008061146383611750565b9050600073ffffffffffffffffffffffffffffffffffffffff168173ffffffffffffffffffffffffffffffffffffffff16036114d657826040517f7e2732890000000000000000000000000000000000000000000000000000000081526004016114cd9190612784565b60405180910390fd5b80915050919050565b60006004600083815260200190815260200160002060009054906101000a900473ffffffffffffffffffffffffffffffffffffffff169050919050565b600033905090565b6115318383836001611f4b565b505050565b60008061154284611750565b9050600073ffffffffffffffffffffffffffffffffffffffff168373ffffffffffffffffffffffffffffffffffffffff161461158457611583818486612110565b5b600073ffffffffffffffffffffffffffffffffffffffff168173ffffffffffffffffffffffffffffffffffffffff1614611615576115c6600085600080611f4b565b6001600360008373ffffffffffffffffffffffffffffffffffffffff1673ffffffffffffffffffffffffffffffffffffffff168152602001908152602001600020600082825403925050819055505b600073ffffffffffffffffffffffffffffffffffffffff168573ffffffffffffffffffffffffffffffffffffffff1614611698576001600360008773ffffffffffffffffffffffffffffffffffffffff1673ffffffffffffffffffffffffffffffffffffffff168152602001908152602001600020600082825401925050819055505b846002600086815260200190815260200160002060006101000a81548173ffffffffffffffffffffffffffffffffffffffff021916908373ffffffffffffffffffffffffffffffffffffffff160217905550838573ffffffffffffffffffffffffffffffffffffffff168273ffffffffffffffffffffffffffffffffffffffff167fddf252ad1be2c89b69c2b068fc378daa952ba7f163c4a11628f55a4df523b3ef60405160405180910390a4809150509392505050565b60006002600083815260200190815260200160002060009054906101000a900473ffffffffffffffffffffffffffffffffffffffff169050919050565b600073ffffffffffffffffffffffffffffffffffffffff168273ffffffffffffffffffffffffffffffffffffffff16036117ff5760006040517f64a0ae920000000000000000000000000000000000000000000000000000000081526004016117f6919061262e565b60405180910390fd5b600061180d83836000611536565b9050600073ffffffffffffffffffffffffffffffffffffffff168173ffffffffffffffffffffffffffffffffffffffff160361188057816040517f7e2732890000000000000000000000000000000000000000000000000000000081526004016118779190612784565b60405180910390fd5b8373ffffffffffffffffffffffffffffffffffffffff168173ffffffffffffffffffffffffffffffffffffffff16146118f4578382826040517f64283d7b0000000000000000000000000000000000000000000000000000000081526004016118eb93929190612b59565b60405180910390fd5b50505050565b61190261151c565b73ffffffffffffffffffffffffffffffffffffffff16611920610fb2565b73ffffffffffffffffffffffffffffffffffffffff161461197f5761194361151c565b6040517f118cdaa7000000000000000000000000000000000000000000000000000000008152600401611976919061262e565b60405180910390fd5b565b6000600660009054906101000a900473ffffffffffffffffffffffffffffffffffffffff16905081600660006101000a81548173ffffffffffffffffffffffffffffffffffffffff021916908373ffffffffffffffffffffffffffffffffffffffff1602179055508173ffffffffffffffffffffffffffffffffffffffff168173ffffffffffffffffffffffffffffffffffffffff167f8be0079c531659141344cd1fd0a4f28419497f9722a3daafe3b4186f6b6457e060405160405180910390a35050565b600073ffffffffffffffffffffffffffffffffffffffff168273ffffffffffffffffffffffffffffffffffffffff1603611ab857816040517f5b08ba18000000000000000000000000000000000000000000000000000000008152600401611aaf919061262e565b60405180910390fd5b80600560008573ffffffffffffffffffffffffffffffffffffffff1673ffffffffffffffffffffffffffffffffffffffff16815260200190815260200160002060008473ffffffffffffffffffffffffffffffffffffffff1673ffffffffffffffffffffffffffffffffffffffff16815260200190815260200160002060006101000a81548160ff0219169083151502179055508173ffffffffffffffffffffffffffffffffffffffff168373ffffffffffffffffffffffffffffffffffffffff167f17307eab39ab6107e8899845ad3d59bd9653f200f220920489ca2b5937696c3183604051611ba991906124bd565b60405180910390a3505050565b600073ffffffffffffffffffffffffffffffffffffffff168273ffffffffffffffffffffffffffffffffffffffff1603611c285760006040517f64a0ae92000000000000000000000000000000000000000000000000000000008152600401611c1f919061262e565b60405180910390fd5b6000611c3683836000611536565b9050600073ffffffffffffffffffffffffffffffffffffffff168173ffffffffffffffffffffffffffffffffffffffff1614611caa5760006040517f73c6ac6e000000000000000000000000000000000000000000000000000000008152600401611ca1919061262e565b60405180910390fd5b505050565b60008373ffffffffffffffffffffffffffffffffffffffff163b1115611e60578273ffffffffffffffffffffffffffffffffffffffff1663150b7a02611cf361151c565b8685856040518563ffffffff1660e01b8152600401611d159493929190612f27565b6020604051808303816000875af1925050508015611d5157506040513d601f19601f82011682018060405250810190611d4e9190612f88565b60015b611dd5573d8060008114611d81576040519150601f19603f3d011682016040523d82523d6000602084013e611d86565b606091505b506000815103611dcd57836040517f64a0ae92000000000000000000000000000000000000000000000000000000008152600401611dc4919061262e565b60405180910390fd5b805181602001fd5b63150b7a0260e01b7bffffffffffffffffffffffffffffffffffffffffffffffffffffffff1916817bffffffffffffffffffffffffffffffffffffffffffffffffffffffff191614611e5e57836040517f64a0ae92000000000000000000000000000000000000000000000000000000008152600401611e55919061262e565b60405180910390fd5b505b50505050565b606060405180602001604052806000815250905090565b606060006001611e8c846121d4565b01905060008167ffffffffffffffff811115611eab57611eaa612868565b5b6040519080825280601f01601f191660200182016040528015611edd5781602001600182028036833780820191505090505b509050600082602001820190505b600115611f40578080600190039150507f3031323334353637383961626364656600000000000000000000000000000000600a86061a8153600a8581611f3457611f33612fb5565b5b04945060008503611eeb575b819350505050919050565b8080611f845750600073ffffffffffffffffffffffffffffffffffffffff168273ffffffffffffffffffffffffffffffffffffffff1614155b156120b8576000611f9484611457565b9050600073ffffffffffffffffffffffffffffffffffffffff168373ffffffffffffffffffffffffffffffffffffffff1614158015611fff57508273ffffffffffffffffffffffffffffffffffffffff168173ffffffffffffffffffffffffffffffffffffffff1614155b801561201257506120108184611253565b155b1561205457826040517fa9fbf51f00000000000000000000000000000000000000000000000000000000815260040161204b919061262e565b60405180910390fd5b81156120b657838573ffffffffffffffffffffffffffffffffffffffff168273ffffffffffffffffffffffffffffffffffffffff167f8c5be1e5ebec7d5bd14f71427d1e84f3dd0314c0f7b2291e5b200ac8c7c3b92560405160405180910390a45b505b836004600085815260200190815260200160002060006101000a81548173ffffffffffffffffffffffffffffffffffffffff021916908373ffffffffffffffffffffffffffffffffffffffff16021790555050505050565b61211b838383612327565b6121cf57600073ffffffffffffffffffffffffffffffffffffffff168373ffffffffffffffffffffffffffffffffffffffff160361219057806040517f7e2732890000000000000000000000000000000000000000000000000000000081526004016121879190612784565b60405180910390fd5b81816040517f177e802f0000000000000000000000000000000000000000000000000000000081526004016121c6929190612fe4565b60405180910390fd5b505050565b600080600090507a184f03e93ff9f4daa797ed6e38ed64bf6a1f0100000000000000008310612232577a184f03e93ff9f4daa797ed6e38ed64bf6a1f010000000000000000838161222857612227612fb5565b5b0492506040810190505b6d04ee2d6d415b85acef8100000000831061226f576d04ee2d6d415b85acef8100000000838161226557612264612fb5565b5b0492506020810190505b662386f26fc10000831061229e57662386f26fc10000838161229457612293612fb5565b5b0492506010810190505b6305f5e10083106122c7576305f5e10083816122bd576122bc612fb5565b5b0492506008810190505b61271083106122ec5761271083816122e2576122e1612fb5565b5b0492506004810190505b6064831061230f576064838161230557612304612fb5565b5b0492506002810190505b600a831061231e576001810190505b80915050919050565b60008073ffffffffffffffffffffffffffffffffffffffff168373ffffffffffffffffffffffffffffffffffffffff16141580156123df57508273ffffffffffffffffffffffffffffffffffffffff168473ffffffffffffffffffffffffffffffffffffffff1614806123a0575061239f8484611253565b5b806123de57508273ffffffffffffffffffffffffffffffffffffffff166123c6836114df565b73ffffffffffffffffffffffffffffffffffffffff16145b5b90509392505050565b60405180606001604052806000815260200160008152602001600081525090565b6000604051905090565b600080fd5b600080fd5b60007fffffffff0000000000000000000000000000000000000000000000000000000082169050919050565b6124528161241d565b811461245d57600080fd5b50565b60008135905061246f81612449565b92915050565b60006020828403121561248b5761248a612413565b5b600061249984828501612460565b91505092915050565b60008115159050919050565b6124b7816124a2565b82525050565b60006020820190506124d260008301846124ae565b92915050565b600081519050919050565b600082825260208201905092915050565b60005b838110156125125780820151818401526020810190506124f7565b60008484015250505050565b6000601f19601f8301169050919050565b600061253a826124d8565b61254481856124e3565b93506125548185602086016124f4565b61255d8161251e565b840191505092915050565b60006020820190508181036000830152612582818461252f565b905092915050565b6000819050919050565b61259d8161258a565b81146125a857600080fd5b50565b6000813590506125ba81612594565b92915050565b6000602082840312156125d6576125d5612413565b5b60006125e4848285016125ab565b91505092915050565b600073ffffffffffffffffffffffffffffffffffffffff82169050919050565b6000612618826125ed565b9050919050565b6126288161260d565b82525050565b6000602082019050612643600083018461261f565b92915050565b6126528161260d565b811461265d57600080fd5b50565b60008135905061266f81612649565b92915050565b6000806040838503121561268c5761268b612413565b5b600061269a85828601612660565b92505060206126ab858286016125ab565b9150509250929050565b6000806000606084860312156126ce576126cd612413565b5b60006126dc86828701612660565b93505060206126ed86828701612660565b92505060406126fe868287016125ab565b9150509250925092565b6000806040838503121561271f5761271e612413565b5b600061272d858286016125ab565b925050602061273e858286016125ab565b9150509250929050565b60006020828403121561275e5761275d612413565b5b600061276c84828501612660565b91505092915050565b61277e8161258a565b82525050565b60006020820190506127996000830184612775565b92915050565b6127a8816124a2565b81146127b357600080fd5b50565b6000813590506127c58161279f565b92915050565b600080604083850312156127e2576127e1612413565b5b60006127f085828601612660565b9250506020612801858286016127b6565b9150509250929050565b60008060006060848603121561282457612823612413565b5b6000612832868287016125ab565b9350506020612843868287016125ab565b9250506040612854868287016125ab565b9150509250925092565b600080fd5b600080fd5b7f4e487b7100000000000000000000000000000000000000000000000000000000600052604160045260246000fd5b6128a08261251e565b810181811067ffffffffffffffff821117156128bf576128be612868565b5b80604052505050565b60006128d2612409565b90506128de8282612897565b919050565b600067ffffffffffffffff8211156128fe576128fd612868565b5b6129078261251e565b9050602081019050919050565b82818337600083830152505050565b6000612936612931846128e3565b6128c8565b90508281526020810184848401111561295257612951612863565b5b61295d848285612914565b509392505050565b600082601f83011261297a5761297961285e565b5b813561298a848260208601612923565b91505092915050565b600080600080608085870312156129ad576129ac612413565b5b60006129bb87828801612660565b94505060206129cc87828801612660565b93505060406129dd878288016125ab565b925050606085013567ffffffffffffffff8111156129fe576129fd612418565b5b612a0a87828801612965565b91505092959194509250565b6000606082019050612a2b6000830186612775565b612a386020830185612775565b612a456040830184612775565b949350505050565b60008060408385031215612a6457612a63612413565b5b6000612a7285828601612660565b9250506020612a8385828601612660565b9150509250929050565b612a968161258a565b82525050565b606082016000820151612ab26000850182612a8d565b506020820151612ac56020850182612a8d565b506040820151612ad86040850182612a8d565b50505050565b6000606082019050612af36000830184612a9c565b92915050565b7f4e487b7100000000000000000000000000000000000000000000000000000000600052602260045260246000fd5b60006002820490506001821680612b4057607f821691505b602082108103612b5357612b52612af9565b5b50919050565b6000606082019050612b6e600083018661261f565b612b7b6020830185612775565b612b88604083018461261f565b949350505050565b7f5469636b657420646f6573206e6f742065786973740000000000000000000000600082015250565b6000612bc66015836124e3565b9150612bd182612b90565b602082019050919050565b60006020820190508181036000830152612bf581612bb9565b9050919050565b7f596f7520617265206e6f7420746865206f776e6572206f66207468697320746960008201527f636b657400000000000000000000000000000000000000000000000000000000602082015250565b6000612c586024836124e3565b9150612c6382612bfc565b604082019050919050565b60006020820190508181036000830152612c8781612c4b565b9050919050565b7f5469636b6574206973206e6f74206c6973746564000000000000000000000000600082015250565b6000612cc46014836124e3565b9150612ccf82612c8e565b602082019050919050565b60006020820190508181036000830152612cf381612cb7565b9050919050565b7f496e636f7272656374207061796d656e7420616d6f756e740000000000000000600082015250565b6000612d306018836124e3565b9150612d3b82612cfa565b602082019050919050565b60006020820190508181036000830152612d5f81612d23565b9050919050565b7f596f752063616e6e6f742062757920796f7572206f776e207469636b65740000600082015250565b6000612d9c601e836124e3565b9150612da782612d66565b602082019050919050565b60006020820190508181036000830152612dcb81612d8f565b9050919050565b7f4e487b7100000000000000000000000000000000000000000000000000000000600052601160045260246000fd5b6000612e0c8261258a565b91507fffffffffffffffffffffffffffffffffffffffffffffffffffffffffffffffff8203612e3e57612e3d612dd2565b5b600182019050919050565b6000604082019050612e5e6000830185612775565b612e6b6020830184612775565b9392505050565b600081905092915050565b6000612e88826124d8565b612e928185612e72565b9350612ea28185602086016124f4565b80840191505092915050565b6000612eba8285612e7d565b9150612ec68284612e7d565b91508190509392505050565b600081519050919050565b600082825260208201905092915050565b6000612ef982612ed2565b612f038185612edd565b9350612f138185602086016124f4565b612f1c8161251e565b840191505092915050565b6000608082019050612f3c600083018761261f565b612f49602083018661261f565b612f566040830185612775565b8181036060830152612f688184612eee565b905095945050505050565b600081519050612f8281612449565b92915050565b600060208284031215612f9e57612f9d612413565b5b6000612fac84828501612f73565b91505092915050565b7f4e487b7100000000000000000000000000000000000000000000000000000000600052601260045260246000fd5b6000604082019050612ff9600083018561261f565b6130066020830184612775565b939250505056fea2646970667358221220706faf7dde4b9341af0befda5314b10b9cb7065f52fc5e1b510cfffdc67ff9db64736f6c63430008140033",
  "linkReferences": {},
  "deployedLinkReferences": {}
}